BL51 BANKED LINKER/LOCATER V6.22                                                        07/21/2014  16:39:35  PAGE 1


BL51 BANKED LINKER/LOCATER V6.22, INVOKED BY:
C:\MYPROG\KEIL\C51\BIN\BL51.EXE HELLO.obj, program.obj, boolean.obj, transfer.obj, logical.obj, arithmetic.obj, instruct
>> ion.obj TO HELLO RAMSIZE (256)


MEMORY MODEL: SMALL


INPUT MODULES INCLUDED:
  HELLO.obj (HELLO)
  program.obj (PROGRAM)
  boolean.obj (BOOLEAN)
  transfer.obj (TRANSFER)
  logical.obj (LOGICAL)
  arithmetic.obj (ARITHMETIC)
  instruction.obj (INSTRUCTION)
  C:\MYPROG\KEIL\C51\LIB\C51S.LIB (?C_STARTUP)
  C:\MYPROG\KEIL\C51\LIB\C51S.LIB (PRINTF)
  C:\MYPROG\KEIL\C51\LIB\C51S.LIB (?C?CLDPTR)
  C:\MYPROG\KEIL\C51\LIB\C51S.LIB (?C?CLDOPTR)
  C:\MYPROG\KEIL\C51\LIB\C51S.LIB (?C?CSTPTR)
  C:\MYPROG\KEIL\C51\LIB\C51S.LIB (?C?PLDIIDATA)
  C:\MYPROG\KEIL\C51\LIB\C51S.LIB (?C?CCASE)
  C:\MYPROG\KEIL\C51\LIB\C51S.LIB (PUTCHAR)


LINK MAP OF MODULE:  HELLO (HELLO)


            TYPE    BASE      LENGTH    RELOCATION   SEGMENT NAME
            -----------------------------------------------------

            * * * * * * *   D A T A   M E M O R Y   * * * * * * *
            REG     0000H     0008H     ABSOLUTE     "REG BANK 0"
            DATA    0008H     0014H     UNIT         _DATA_GROUP_
                    001CH     0004H                  *** GAP ***
            BIT     0020H.0   0001H.1   UNIT         _BIT_GROUP_
                    0021H.1   0000H.7                *** GAP ***
            IDATA   0022H     0001H     UNIT         ?STACK

            * * * * * * *   C O D E   M E M O R Y   * * * * * * *
            CODE    0000H     0003H     ABSOLUTE     
            CODE    0003H     035CH     UNIT         ?PR?PRINTF?PRINTF
            CODE    035FH     0125H     UNIT         ?CO?TRANSFER
            CODE    0484H     00E7H     UNIT         ?CO?LOGICAL
            CODE    056BH     00D8H     UNIT         ?CO?ARITHMETIC
            CODE    0643H     00CDH     UNIT         ?PR?ADDC_A_RI?ARITHMETIC
            CODE    0710H     00CDH     UNIT         ?PR?SUBB_A_RI?ARITHMETIC
            CODE    07DDH     00C9H     UNIT         ?PR?ADD_A_RI?ARITHMETIC
            CODE    08A6H     00C9H     UNIT         ?PR?ADDC_A_DI?ARITHMETIC
            CODE    096FH     00C9H     UNIT         ?PR?SUBB_A_DI?ARITHMETIC
            CODE    0A38H     00C5H     UNIT         ?PR?ADD_A_DI?ARITHMETIC
            CODE    0AFDH     00C5H     UNIT         ?PR?ADDC_A_RN?ARITHMETIC
            CODE    0BC2H     00C5H     UNIT         ?PR?SUBB_A_RN?ARITHMETIC
            CODE    0C87H     00C1H     UNIT         ?PR?ADD_A_RN?ARITHMETIC
            CODE    0D48H     00C1H     UNIT         ?PR?ADDC_A_DA?ARITHMETIC
            CODE    0E09H     00C1H     UNIT         ?PR?SUBB_A_DA?ARITHMETIC
            CODE    0ECAH     00BDH     UNIT         ?PR?ADD_A_DA?ARITHMETIC
BL51 BANKED LINKER/LOCATER V6.22                                                      07/21/2014  16:39:35  PAGE 2


            CODE    0F87H     00B8H     UNIT         ?CO?PROGRAM
            CODE    103FH     009DH     UNIT         ?CO?BOOLEAN
            CODE    10DCH     008EH     UNIT         ?C?LIB_CODE
            CODE    116AH     0081H     UNIT         ?PR?MULT?ARITHMETIC
            CODE    11EBH     007DH     UNIT         ?PR?JBC_BIT?BOOLEAN
            CODE    1268H     0071H     UNIT         ?PR?DIVIDE?ARITHMETIC
            CODE    12D9H     006DH     UNIT         ?PR?DA_A?ARITHMETIC
            CODE    1346H     0065H     UNIT         ?PR?JB_BIT?BOOLEAN
            CODE    13ABH     0065H     UNIT         ?PR?JNB_BIT?BOOLEAN
            CODE    1410H     005BH     UNIT         ?PR?JC_C?BOOLEAN
            CODE    146BH     005BH     UNIT         ?PR?JNC_C?BOOLEAN
            CODE    14C6H     0054H     UNIT         ?PR?TRANSFER?INSTRUCTION
            CODE    151AH     004DH     UNIT         ?PR?INC_DP?ARITHMETIC
            CODE    1567H     004BH     UNIT         ?PR?LOGICAL?INSTRUCTION
            CODE    15B2H     0048H     UNIT         ?PR?ARITHMETIC?INSTRUCTION
            CODE    15FAH     0047H     UNIT         ?PR?CJNE_A_DI_REL?PROGRAM
            CODE    1641H     0045H     UNIT         ?PR?INC_RI?ARITHMETIC
            CODE    1686H     0045H     UNIT         ?PR?DEC_RI?ARITHMETIC
            CODE    16CBH     0044H     UNIT         ?PR?LCALL_FUNC?PROGRAM
            CODE    170FH     0044H     UNIT         ?PR?CJNE_RI_DA_REL?PROGRAM
            CODE    1753H     0044H     UNIT         ?PR?DJNZ_DI_REL?PROGRAM
            CODE    1797H     0044H     UNIT         ?PR?INC_DI?ARITHMETIC
            CODE    17DBH     0044H     UNIT         ?PR?DEC_DI?ARITHMETIC
            CODE    181FH     0043H     UNIT         ?PR?ACALL_FUNC?PROGRAM
            CODE    1862H     0043H     UNIT         ?PR?INC_RN?ARITHMETIC
            CODE    18A5H     0043H     UNIT         ?PR?DEC_RN?ARITHMETIC
            CODE    18E8H     0042H     UNIT         ?PR?CJNE_A_DA_REL?PROGRAM
            CODE    192AH     0042H     UNIT         ?PR?CJNE_RN_DA_REL?PROGRAM
            CODE    196CH     0042H     UNIT         ?PR?DJNZ_RN_REL?PROGRAM
            CODE    19AEH     0040H     UNIT         ?PR?INC_A?ARITHMETIC
            CODE    19EEH     0040H     UNIT         ?PR?DEC_A?ARITHMETIC
            CODE    1A2EH     003CH     UNIT         ?PR?PUSH_DI?TRANSFER
            CODE    1A6AH     003BH     UNIT         ?PR?POP_DI?TRANSFER
            CODE    1AA5H     003AH     UNIT         ?PR?JZ_FUNC?PROGRAM
            CODE    1ADFH     003AH     UNIT         ?PR?JNZ_FUNC?PROGRAM
            CODE    1B19H     0039H     UNIT         ?PR?RET_FUNC?PROGRAM
            CODE    1B52H     0039H     UNIT         ?PR?RETI_FUNC?PROGRAM
            CODE    1B8BH     0038H     UNIT         ?PR?XCH_A_RI?TRANSFER
            CODE    1BC3H     0038H     UNIT         ?PR?XCHD_A_RI?TRANSFER
            CODE    1BFBH     0037H     UNIT         ?PR?XCH_A_DI?TRANSFER
            CODE    1C32H     0035H     UNIT         ?PR?XCH_A_RN?TRANSFER
            CODE    1C67H     0034H     UNIT         ?PR?MOV_DP_DA?TRANSFER
            CODE    1C9BH     0033H     UNIT         ?PR?BOOLEAN?INSTRUCTION
            CODE    1CCEH     0031H     UNIT         ?PR?JMP_FUNC?PROGRAM
            CODE    1CFFH     0031H     UNIT         ?PR?MOVC_A_DP?TRANSFER
            CODE    1D30H     002FH     UNIT         ?PR?MAIN?HELLO
            CODE    1D5FH     002FH     UNIT         ?PR?MOVC_A_PC?TRANSFER
            CODE    1D8EH     002FH     UNIT         ?PR?RLC_A?LOGICAL
            CODE    1DBDH     002FH     UNIT         ?PR?RRC_A?LOGICAL
            CODE    1DECH     002EH     UNIT         ?PR?ANL_DI_A?LOGICAL
            CODE    1E1AH     002EH     UNIT         ?PR?ORL_DI_A?LOGICAL
            CODE    1E48H     002EH     UNIT         ?PR?XRL_DI_A?LOGICAL
            CODE    1E76H     002DH     UNIT         ?CO?HELLO
            CODE    1EA3H     002DH     UNIT         ?PR?MOV_BIT_C?BOOLEAN
            CODE    1ED0H     002DH     UNIT         ?PR?MOV_DI_RI?TRANSFER
            CODE    1EFDH     002DH     UNIT         ?PR?MOV_RI_DI?TRANSFER
            CODE    1F2AH     002DH     UNIT         ?PR?MOVX_A_DP?TRANSFER
BL51 BANKED LINKER/LOCATER V6.22                                                      07/21/2014  16:39:35  PAGE 3


            CODE    1F57H     002DH     UNIT         ?PR?MOVX_DP_A?TRANSFER
            CODE    1F84H     002DH     UNIT         ?PR?PROGRAM?INSTRUCTION
            CODE    1FB1H     002CH     UNIT         ?PR?CLR_BIT?BOOLEAN
            CODE    1FDDH     002CH     UNIT         ?PR?SETB_BIT?BOOLEAN
            CODE    2009H     002CH     UNIT         ?PR?CPL_BIT?BOOLEAN
            CODE    2035H     002CH     UNIT         ?PR?MOV_A_RI?TRANSFER
            CODE    2061H     002CH     UNIT         ?PR?MOV_DI_DI?TRANSFER
            CODE    208DH     002CH     UNIT         ?PR?MOV_RI_A?TRANSFER
            CODE    20B9H     002CH     UNIT         ?PR?MOVX_A_RI?TRANSFER
            CODE    20E5H     002CH     UNIT         ?PR?MOVX_RI_A?TRANSFER
            CODE    2111H     002CH     UNIT         ?PR?ANL_A_RI?LOGICAL
            CODE    213DH     002CH     UNIT         ?PR?ANL_DI_DA?LOGICAL
            CODE    2169H     002CH     UNIT         ?PR?ORL_A_RI?LOGICAL
            CODE    2195H     002CH     UNIT         ?PR?ORL_DI_DA?LOGICAL
            CODE    21C1H     002CH     UNIT         ?PR?XRL_A_RI?LOGICAL
            CODE    21EDH     002CH     UNIT         ?PR?XRL_DI_DA?LOGICAL
            CODE    2219H     002BH     UNIT         ?PR?MOV_A_DI?TRANSFER
            CODE    2244H     002BH     UNIT         ?PR?MOV_RN_A?TRANSFER
            CODE    226FH     002BH     UNIT         ?PR?MOV_RN_DI?TRANSFER
            CODE    229AH     002BH     UNIT         ?PR?MOV_DI_A?TRANSFER
            CODE    22C5H     002BH     UNIT         ?PR?MOV_DI_RN?TRANSFER
            CODE    22F0H     002BH     UNIT         ?PR?MOV_RI_DA?TRANSFER
            CODE    231BH     002BH     UNIT         ?PR?ANL_A_DI?LOGICAL
            CODE    2346H     002BH     UNIT         ?PR?ORL_A_DI?LOGICAL
            CODE    2371H     002BH     UNIT         ?PR?XRL_A_DI?LOGICAL
            CODE    239CH     002AH     UNIT         ?PR?MOV_A_RN?TRANSFER
            CODE    23C6H     002AH     UNIT         ?PR?MOV_DI_DA?TRANSFER
            CODE    23F0H     002AH     UNIT         ?PR?ANL_A_RN?LOGICAL
            CODE    241AH     002AH     UNIT         ?PR?ORL_A_RN?LOGICAL
            CODE    2444H     002AH     UNIT         ?PR?XRL_A_RN?LOGICAL
            CODE    246EH     0029H     UNIT         ?PR?ANL_C_BIT?BOOLEAN
            CODE    2497H     0029H     UNIT         ?PR?ANL_C_NBIT?BOOLEAN
            CODE    24C0H     0029H     UNIT         ?PR?ORL_C_BIT?BOOLEAN
            CODE    24E9H     0029H     UNIT         ?PR?ORL_C_NBIT?BOOLEAN
            CODE    2512H     0029H     UNIT         ?PR?MOV_C_BIT?BOOLEAN
            CODE    253BH     0029H     UNIT         ?PR?MOV_RN_DA?TRANSFER
            CODE    2564H     0029H     UNIT         ?PR?ANL_A_DA?LOGICAL
            CODE    258DH     0029H     UNIT         ?PR?ORL_A_DA?LOGICAL
            CODE    25B6H     0029H     UNIT         ?PR?XRL_A_DA?LOGICAL
            CODE    25DFH     0028H     UNIT         ?PR?AJMP_FUNC?PROGRAM
            CODE    2607H     0028H     UNIT         ?PR?SJMP_FUNC?PROGRAM
            CODE    262FH     0027H     UNIT         ?PR?CPL_A?LOGICAL
            CODE    2656H     0027H     UNIT         ?PR?RL_A?LOGICAL
            CODE    267DH     0027H     UNIT         ?PR?RR_A?LOGICAL
            CODE    26A4H     0027H     UNIT         ?PR?SWAP_A?LOGICAL
            CODE    26CBH     0027H     UNIT         ?PR?PUTCHAR?PUTCHAR
            CODE    26F2H     0026H     UNIT         ?PR?MOV_A_DA?TRANSFER
            CODE    2718H     0025H     UNIT         ?PR?CLR_C?BOOLEAN
            CODE    273DH     0025H     UNIT         ?PR?CPL_C?BOOLEAN
            CODE    2762H     0025H     UNIT         ?PR?CLR_A?LOGICAL
            CODE    2787H     0024H     UNIT         ?PR?SETB_C?BOOLEAN
            CODE    27ABH     0012H     UNIT         ?PR?ERROR?INSTRUCTION
            CODE    27BDH     000FH     UNIT         ?PR?INSTRUCTION_TEST_ALL?INSTRUCTION
            CODE    27CCH     000FH     UNIT         ?CO?INSTRUCTION
            CODE    27DBH     000CH     UNIT         ?C_C51STARTUP


BL51 BANKED LINKER/LOCATER V6.22                                                      07/21/2014  16:39:35  PAGE 4



OVERLAY MAP OF MODULE:   HELLO (HELLO)


SEGMENT                                         BIT_GROUP          DATA_GROUP 
  +--> CALLED SEGMENT                        START    LENGTH     START    LENGTH
--------------------------------------------------------------------------------
?C_C51STARTUP                                -----    -----      -----    -----
  +--> ?PR?MAIN?HELLO

?PR?MAIN?HELLO                               -----    -----      -----    -----
  +--> ?PR?INSTRUCTION_TEST_ALL?INSTRUCTION
  +--> ?CO?HELLO
  +--> ?PR?PRINTF?PRINTF

?PR?INSTRUCTION_TEST_ALL?INSTRUCTION         -----    -----      -----    -----
  +--> ?PR?ARITHMETIC?INSTRUCTION
  +--> ?PR?LOGICAL?INSTRUCTION
  +--> ?PR?TRANSFER?INSTRUCTION
  +--> ?PR?BOOLEAN?INSTRUCTION
  +--> ?PR?PROGRAM?INSTRUCTION

?PR?ARITHMETIC?INSTRUCTION                   -----    -----      -----    -----
  +--> ?PR?ADD_A_RN?ARITHMETIC
  +--> ?PR?ADD_A_DI?ARITHMETIC
  +--> ?PR?ADD_A_RI?ARITHMETIC
  +--> ?PR?ADD_A_DA?ARITHMETIC
  +--> ?PR?ADDC_A_RN?ARITHMETIC
  +--> ?PR?ADDC_A_DI?ARITHMETIC
  +--> ?PR?ADDC_A_RI?ARITHMETIC
  +--> ?PR?ADDC_A_DA?ARITHMETIC
  +--> ?PR?SUBB_A_RN?ARITHMETIC
  +--> ?PR?SUBB_A_DI?ARITHMETIC
  +--> ?PR?SUBB_A_RI?ARITHMETIC
  +--> ?PR?SUBB_A_DA?ARITHMETIC
  +--> ?PR?INC_A?ARITHMETIC
  +--> ?PR?INC_RN?ARITHMETIC
  +--> ?PR?INC_DI?ARITHMETIC
  +--> ?PR?INC_RI?ARITHMETIC
  +--> ?PR?INC_DP?ARITHMETIC
  +--> ?PR?DEC_A?ARITHMETIC
  +--> ?PR?DEC_RN?ARITHMETIC
  +--> ?PR?DEC_DI?ARITHMETIC
  +--> ?PR?DEC_RI?ARITHMETIC
  +--> ?PR?MULT?ARITHMETIC
  +--> ?PR?DIVIDE?ARITHMETIC
  +--> ?PR?DA_A?ARITHMETIC

?PR?ADD_A_RN?ARITHMETIC                      -----    -----      -----    -----
  +--> ?CO?ARITHMETIC
  +--> ?PR?PRINTF?PRINTF
  +--> ?PR?ERROR?INSTRUCTION

?PR?PRINTF?PRINTF                            0020H.0  0001H.1    0008H    0014H
  +--> ?PR?PUTCHAR?PUTCHAR

?PR?ERROR?INSTRUCTION                        -----    -----      -----    -----
BL51 BANKED LINKER/LOCATER V6.22                                                      07/21/2014  16:39:35  PAGE 5


  +--> ?CO?INSTRUCTION
  +--> ?PR?PRINTF?PRINTF

?PR?ADD_A_DI?ARITHMETIC                      -----    -----      -----    -----
  +--> ?CO?ARITHMETIC
  +--> ?PR?PRINTF?PRINTF
  +--> ?PR?ERROR?INSTRUCTION

?PR?ADD_A_RI?ARITHMETIC                      -----    -----      -----    -----
  +--> ?CO?ARITHMETIC
  +--> ?PR?PRINTF?PRINTF
  +--> ?PR?ERROR?INSTRUCTION

?PR?ADD_A_DA?ARITHMETIC                      -----    -----      -----    -----
  +--> ?CO?ARITHMETIC
  +--> ?PR?PRINTF?PRINTF
  +--> ?PR?ERROR?INSTRUCTION

?PR?ADDC_A_RN?ARITHMETIC                     -----    -----      -----    -----
  +--> ?CO?ARITHMETIC
  +--> ?PR?PRINTF?PRINTF
  +--> ?PR?ERROR?INSTRUCTION

?PR?ADDC_A_DI?ARITHMETIC                     -----    -----      -----    -----
  +--> ?CO?ARITHMETIC
  +--> ?PR?PRINTF?PRINTF
  +--> ?PR?ERROR?INSTRUCTION

?PR?ADDC_A_RI?ARITHMETIC                     -----    -----      -----    -----
  +--> ?CO?ARITHMETIC
  +--> ?PR?PRINTF?PRINTF
  +--> ?PR?ERROR?INSTRUCTION

?PR?ADDC_A_DA?ARITHMETIC                     -----    -----      -----    -----
  +--> ?CO?ARITHMETIC
  +--> ?PR?PRINTF?PRINTF
  +--> ?PR?ERROR?INSTRUCTION

?PR?SUBB_A_RN?ARITHMETIC                     -----    -----      -----    -----
  +--> ?CO?ARITHMETIC
  +--> ?PR?PRINTF?PRINTF
  +--> ?PR?ERROR?INSTRUCTION

?PR?SUBB_A_DI?ARITHMETIC                     -----    -----      -----    -----
  +--> ?CO?ARITHMETIC
  +--> ?PR?PRINTF?PRINTF
  +--> ?PR?ERROR?INSTRUCTION

?PR?SUBB_A_RI?ARITHMETIC                     -----    -----      -----    -----
  +--> ?CO?ARITHMETIC
  +--> ?PR?PRINTF?PRINTF
  +--> ?PR?ERROR?INSTRUCTION

?PR?SUBB_A_DA?ARITHMETIC                     -----    -----      -----    -----
  +--> ?CO?ARITHMETIC
  +--> ?PR?PRINTF?PRINTF
  +--> ?PR?ERROR?INSTRUCTION
BL51 BANKED LINKER/LOCATER V6.22                                                      07/21/2014  16:39:35  PAGE 6



?PR?INC_A?ARITHMETIC                         -----    -----      -----    -----
  +--> ?CO?ARITHMETIC
  +--> ?PR?PRINTF?PRINTF
  +--> ?PR?ERROR?INSTRUCTION

?PR?INC_RN?ARITHMETIC                        -----    -----      -----    -----
  +--> ?CO?ARITHMETIC
  +--> ?PR?PRINTF?PRINTF
  +--> ?PR?ERROR?INSTRUCTION

?PR?INC_DI?ARITHMETIC                        -----    -----      -----    -----
  +--> ?CO?ARITHMETIC
  +--> ?PR?PRINTF?PRINTF
  +--> ?PR?ERROR?INSTRUCTION

?PR?INC_RI?ARITHMETIC                        -----    -----      -----    -----
  +--> ?CO?ARITHMETIC
  +--> ?PR?PRINTF?PRINTF
  +--> ?PR?ERROR?INSTRUCTION

?PR?INC_DP?ARITHMETIC                        -----    -----      -----    -----
  +--> ?CO?ARITHMETIC
  +--> ?PR?PRINTF?PRINTF
  +--> ?PR?ERROR?INSTRUCTION

?PR?DEC_A?ARITHMETIC                         -----    -----      -----    -----
  +--> ?CO?ARITHMETIC
  +--> ?PR?PRINTF?PRINTF
  +--> ?PR?ERROR?INSTRUCTION

?PR?DEC_RN?ARITHMETIC                        -----    -----      -----    -----
  +--> ?CO?ARITHMETIC
  +--> ?PR?PRINTF?PRINTF
  +--> ?PR?ERROR?INSTRUCTION

?PR?DEC_DI?ARITHMETIC                        -----    -----      -----    -----
  +--> ?CO?ARITHMETIC
  +--> ?PR?PRINTF?PRINTF
  +--> ?PR?ERROR?INSTRUCTION

?PR?DEC_RI?ARITHMETIC                        -----    -----      -----    -----
  +--> ?CO?ARITHMETIC
  +--> ?PR?PRINTF?PRINTF
  +--> ?PR?ERROR?INSTRUCTION

?PR?MULT?ARITHMETIC                          -----    -----      -----    -----
  +--> ?CO?ARITHMETIC
  +--> ?PR?PRINTF?PRINTF
  +--> ?PR?ERROR?INSTRUCTION

?PR?DIVIDE?ARITHMETIC                        -----    -----      -----    -----
  +--> ?CO?ARITHMETIC
  +--> ?PR?PRINTF?PRINTF
  +--> ?PR?ERROR?INSTRUCTION

?PR?DA_A?ARITHMETIC                          -----    -----      -----    -----
BL51 BANKED LINKER/LOCATER V6.22                                                      07/21/2014  16:39:35  PAGE 7


  +--> ?CO?ARITHMETIC
  +--> ?PR?PRINTF?PRINTF
  +--> ?PR?ERROR?INSTRUCTION

?PR?LOGICAL?INSTRUCTION                      -----    -----      -----    -----
  +--> ?PR?ANL_A_RN?LOGICAL
  +--> ?PR?ANL_A_DI?LOGICAL
  +--> ?PR?ANL_A_RI?LOGICAL
  +--> ?PR?ANL_A_DA?LOGICAL
  +--> ?PR?ANL_DI_A?LOGICAL
  +--> ?PR?ANL_DI_DA?LOGICAL
  +--> ?PR?ORL_A_RN?LOGICAL
  +--> ?PR?ORL_A_DI?LOGICAL
  +--> ?PR?ORL_A_RI?LOGICAL
  +--> ?PR?ORL_A_DA?LOGICAL
  +--> ?PR?ORL_DI_A?LOGICAL
  +--> ?PR?ORL_DI_DA?LOGICAL
  +--> ?PR?XRL_A_RN?LOGICAL
  +--> ?PR?XRL_A_DI?LOGICAL
  +--> ?PR?XRL_A_RI?LOGICAL
  +--> ?PR?XRL_A_DA?LOGICAL
  +--> ?PR?XRL_DI_A?LOGICAL
  +--> ?PR?XRL_DI_DA?LOGICAL
  +--> ?PR?CLR_A?LOGICAL
  +--> ?PR?CPL_A?LOGICAL
  +--> ?PR?RL_A?LOGICAL
  +--> ?PR?RLC_A?LOGICAL
  +--> ?PR?RR_A?LOGICAL
  +--> ?PR?RRC_A?LOGICAL
  +--> ?PR?SWAP_A?LOGICAL

?PR?ANL_A_RN?LOGICAL                         -----    -----      -----    -----
  +--> ?CO?LOGICAL
  +--> ?PR?PRINTF?PRINTF
  +--> ?PR?ERROR?INSTRUCTION

?PR?ANL_A_DI?LOGICAL                         -----    -----      -----    -----
  +--> ?CO?LOGICAL
  +--> ?PR?PRINTF?PRINTF
  +--> ?PR?ERROR?INSTRUCTION

?PR?ANL_A_RI?LOGICAL                         -----    -----      -----    -----
  +--> ?CO?LOGICAL
  +--> ?PR?PRINTF?PRINTF
  +--> ?PR?ERROR?INSTRUCTION

?PR?ANL_A_DA?LOGICAL                         -----    -----      -----    -----
  +--> ?CO?LOGICAL
  +--> ?PR?PRINTF?PRINTF
  +--> ?PR?ERROR?INSTRUCTION

?PR?ANL_DI_A?LOGICAL                         -----    -----      -----    -----
  +--> ?CO?LOGICAL
  +--> ?PR?PRINTF?PRINTF
  +--> ?PR?ERROR?INSTRUCTION

?PR?ANL_DI_DA?LOGICAL                        -----    -----      -----    -----
BL51 BANKED LINKER/LOCATER V6.22                                                      07/21/2014  16:39:35  PAGE 8


  +--> ?CO?LOGICAL
  +--> ?PR?PRINTF?PRINTF
  +--> ?PR?ERROR?INSTRUCTION

?PR?ORL_A_RN?LOGICAL                         -----    -----      -----    -----
  +--> ?CO?LOGICAL
  +--> ?PR?PRINTF?PRINTF
  +--> ?PR?ERROR?INSTRUCTION

?PR?ORL_A_DI?LOGICAL                         -----    -----      -----    -----
  +--> ?CO?LOGICAL
  +--> ?PR?PRINTF?PRINTF
  +--> ?PR?ERROR?INSTRUCTION

?PR?ORL_A_RI?LOGICAL                         -----    -----      -----    -----
  +--> ?CO?LOGICAL
  +--> ?PR?PRINTF?PRINTF
  +--> ?PR?ERROR?INSTRUCTION

?PR?ORL_A_DA?LOGICAL                         -----    -----      -----    -----
  +--> ?CO?LOGICAL
  +--> ?PR?PRINTF?PRINTF
  +--> ?PR?ERROR?INSTRUCTION

?PR?ORL_DI_A?LOGICAL                         -----    -----      -----    -----
  +--> ?CO?LOGICAL
  +--> ?PR?PRINTF?PRINTF
  +--> ?PR?ERROR?INSTRUCTION

?PR?ORL_DI_DA?LOGICAL                        -----    -----      -----    -----
  +--> ?CO?LOGICAL
  +--> ?PR?PRINTF?PRINTF
  +--> ?PR?ERROR?INSTRUCTION

?PR?XRL_A_RN?LOGICAL                         -----    -----      -----    -----
  +--> ?CO?LOGICAL
  +--> ?PR?PRINTF?PRINTF
  +--> ?PR?ERROR?INSTRUCTION

?PR?XRL_A_DI?LOGICAL                         -----    -----      -----    -----
  +--> ?CO?LOGICAL
  +--> ?PR?PRINTF?PRINTF
  +--> ?PR?ERROR?INSTRUCTION

?PR?XRL_A_RI?LOGICAL                         -----    -----      -----    -----
  +--> ?CO?LOGICAL
  +--> ?PR?PRINTF?PRINTF
  +--> ?PR?ERROR?INSTRUCTION

?PR?XRL_A_DA?LOGICAL                         -----    -----      -----    -----
  +--> ?CO?LOGICAL
  +--> ?PR?PRINTF?PRINTF
  +--> ?PR?ERROR?INSTRUCTION

?PR?XRL_DI_A?LOGICAL                         -----    -----      -----    -----
  +--> ?CO?LOGICAL
  +--> ?PR?PRINTF?PRINTF
BL51 BANKED LINKER/LOCATER V6.22                                                      07/21/2014  16:39:35  PAGE 9


  +--> ?PR?ERROR?INSTRUCTION

?PR?XRL_DI_DA?LOGICAL                        -----    -----      -----    -----
  +--> ?CO?LOGICAL
  +--> ?PR?PRINTF?PRINTF
  +--> ?PR?ERROR?INSTRUCTION

?PR?CLR_A?LOGICAL                            -----    -----      -----    -----
  +--> ?CO?LOGICAL
  +--> ?PR?PRINTF?PRINTF
  +--> ?PR?ERROR?INSTRUCTION

?PR?CPL_A?LOGICAL                            -----    -----      -----    -----
  +--> ?CO?LOGICAL
  +--> ?PR?PRINTF?PRINTF
  +--> ?PR?ERROR?INSTRUCTION

?PR?RL_A?LOGICAL                             -----    -----      -----    -----
  +--> ?CO?LOGICAL
  +--> ?PR?PRINTF?PRINTF
  +--> ?PR?ERROR?INSTRUCTION

?PR?RLC_A?LOGICAL                            -----    -----      -----    -----
  +--> ?CO?LOGICAL
  +--> ?PR?PRINTF?PRINTF
  +--> ?PR?ERROR?INSTRUCTION

?PR?RR_A?LOGICAL                             -----    -----      -----    -----
  +--> ?CO?LOGICAL
  +--> ?PR?PRINTF?PRINTF
  +--> ?PR?ERROR?INSTRUCTION

?PR?RRC_A?LOGICAL                            -----    -----      -----    -----
  +--> ?CO?LOGICAL
  +--> ?PR?PRINTF?PRINTF
  +--> ?PR?ERROR?INSTRUCTION

?PR?SWAP_A?LOGICAL                           -----    -----      -----    -----
  +--> ?CO?LOGICAL
  +--> ?PR?PRINTF?PRINTF
  +--> ?PR?ERROR?INSTRUCTION

?PR?TRANSFER?INSTRUCTION                     -----    -----      -----    -----
  +--> ?PR?MOV_A_RN?TRANSFER
  +--> ?PR?MOV_A_DI?TRANSFER
  +--> ?PR?MOV_A_RI?TRANSFER
  +--> ?PR?MOV_A_DA?TRANSFER
  +--> ?PR?MOV_RN_A?TRANSFER
  +--> ?PR?MOV_RN_DI?TRANSFER
  +--> ?PR?MOV_RN_DA?TRANSFER
  +--> ?PR?MOV_DI_A?TRANSFER
  +--> ?PR?MOV_DI_RN?TRANSFER
  +--> ?PR?MOV_DI_DI?TRANSFER
  +--> ?PR?MOV_DI_RI?TRANSFER
  +--> ?PR?MOV_DI_DA?TRANSFER
  +--> ?PR?MOV_RI_A?TRANSFER
  +--> ?PR?MOV_RI_DI?TRANSFER
BL51 BANKED LINKER/LOCATER V6.22                                                      07/21/2014  16:39:35  PAGE 10


  +--> ?PR?MOV_RI_DA?TRANSFER
  +--> ?PR?MOV_DP_DA?TRANSFER
  +--> ?PR?MOVC_A_DP?TRANSFER
  +--> ?PR?MOVC_A_PC?TRANSFER
  +--> ?PR?MOVX_A_RI?TRANSFER
  +--> ?PR?MOVX_A_DP?TRANSFER
  +--> ?PR?MOVX_RI_A?TRANSFER
  +--> ?PR?MOVX_DP_A?TRANSFER
  +--> ?PR?PUSH_DI?TRANSFER
  +--> ?PR?POP_DI?TRANSFER
  +--> ?PR?XCH_A_RN?TRANSFER
  +--> ?PR?XCH_A_DI?TRANSFER
  +--> ?PR?XCH_A_RI?TRANSFER
  +--> ?PR?XCHD_A_RI?TRANSFER

?PR?MOV_A_RN?TRANSFER                        -----    -----      -----    -----
  +--> ?CO?TRANSFER
  +--> ?PR?PRINTF?PRINTF
  +--> ?PR?ERROR?INSTRUCTION

?PR?MOV_A_DI?TRANSFER                        -----    -----      -----    -----
  +--> ?CO?TRANSFER
  +--> ?PR?PRINTF?PRINTF
  +--> ?PR?ERROR?INSTRUCTION

?PR?MOV_A_RI?TRANSFER                        -----    -----      -----    -----
  +--> ?CO?TRANSFER
  +--> ?PR?PRINTF?PRINTF
  +--> ?PR?ERROR?INSTRUCTION

?PR?MOV_A_DA?TRANSFER                        -----    -----      -----    -----
  +--> ?CO?TRANSFER
  +--> ?PR?PRINTF?PRINTF
  +--> ?PR?ERROR?INSTRUCTION

?PR?MOV_RN_A?TRANSFER                        -----    -----      -----    -----
  +--> ?CO?TRANSFER
  +--> ?PR?PRINTF?PRINTF
  +--> ?PR?ERROR?INSTRUCTION

?PR?MOV_RN_DI?TRANSFER                       -----    -----      -----    -----
  +--> ?CO?TRANSFER
  +--> ?PR?PRINTF?PRINTF
  +--> ?PR?ERROR?INSTRUCTION

?PR?MOV_RN_DA?TRANSFER                       -----    -----      -----    -----
  +--> ?CO?TRANSFER
  +--> ?PR?PRINTF?PRINTF
  +--> ?PR?ERROR?INSTRUCTION

?PR?MOV_DI_A?TRANSFER                        -----    -----      -----    -----
  +--> ?CO?TRANSFER
  +--> ?PR?PRINTF?PRINTF
  +--> ?PR?ERROR?INSTRUCTION

?PR?MOV_DI_RN?TRANSFER                       -----    -----      -----    -----
  +--> ?CO?TRANSFER
BL51 BANKED LINKER/LOCATER V6.22                                                      07/21/2014  16:39:35  PAGE 11


  +--> ?PR?PRINTF?PRINTF
  +--> ?PR?ERROR?INSTRUCTION

?PR?MOV_DI_DI?TRANSFER                       -----    -----      -----    -----
  +--> ?CO?TRANSFER
  +--> ?PR?PRINTF?PRINTF
  +--> ?PR?ERROR?INSTRUCTION

?PR?MOV_DI_RI?TRANSFER                       -----    -----      -----    -----
  +--> ?CO?TRANSFER
  +--> ?PR?PRINTF?PRINTF
  +--> ?PR?ERROR?INSTRUCTION

?PR?MOV_DI_DA?TRANSFER                       -----    -----      -----    -----
  +--> ?CO?TRANSFER
  +--> ?PR?PRINTF?PRINTF
  +--> ?PR?ERROR?INSTRUCTION

?PR?MOV_RI_A?TRANSFER                        -----    -----      -----    -----
  +--> ?CO?TRANSFER
  +--> ?PR?PRINTF?PRINTF
  +--> ?PR?ERROR?INSTRUCTION

?PR?MOV_RI_DI?TRANSFER                       -----    -----      -----    -----
  +--> ?CO?TRANSFER
  +--> ?PR?PRINTF?PRINTF
  +--> ?PR?ERROR?INSTRUCTION

?PR?MOV_RI_DA?TRANSFER                       -----    -----      -----    -----
  +--> ?CO?TRANSFER
  +--> ?PR?PRINTF?PRINTF
  +--> ?PR?ERROR?INSTRUCTION

?PR?MOV_DP_DA?TRANSFER                       -----    -----      -----    -----
  +--> ?CO?TRANSFER
  +--> ?PR?PRINTF?PRINTF
  +--> ?PR?ERROR?INSTRUCTION

?PR?MOVC_A_DP?TRANSFER                       -----    -----      -----    -----
  +--> ?CO?TRANSFER
  +--> ?PR?PRINTF?PRINTF
  +--> ?PR?ERROR?INSTRUCTION

?PR?MOVC_A_PC?TRANSFER                       -----    -----      -----    -----
  +--> ?CO?TRANSFER
  +--> ?PR?PRINTF?PRINTF
  +--> ?PR?ERROR?INSTRUCTION

?PR?MOVX_A_RI?TRANSFER                       -----    -----      -----    -----
  +--> ?CO?TRANSFER
  +--> ?PR?PRINTF?PRINTF
  +--> ?PR?ERROR?INSTRUCTION

?PR?MOVX_A_DP?TRANSFER                       -----    -----      -----    -----
  +--> ?CO?TRANSFER
  +--> ?PR?PRINTF?PRINTF
  +--> ?PR?ERROR?INSTRUCTION
BL51 BANKED LINKER/LOCATER V6.22                                                      07/21/2014  16:39:35  PAGE 12



?PR?MOVX_RI_A?TRANSFER                       -----    -----      -----    -----
  +--> ?CO?TRANSFER
  +--> ?PR?PRINTF?PRINTF
  +--> ?PR?ERROR?INSTRUCTION

?PR?MOVX_DP_A?TRANSFER                       -----    -----      -----    -----
  +--> ?CO?TRANSFER
  +--> ?PR?PRINTF?PRINTF
  +--> ?PR?ERROR?INSTRUCTION

?PR?PUSH_DI?TRANSFER                         -----    -----      -----    -----
  +--> ?CO?TRANSFER
  +--> ?PR?PRINTF?PRINTF
  +--> ?PR?ERROR?INSTRUCTION

?PR?POP_DI?TRANSFER                          -----    -----      -----    -----
  +--> ?CO?TRANSFER
  +--> ?PR?PRINTF?PRINTF
  +--> ?PR?ERROR?INSTRUCTION

?PR?XCH_A_RN?TRANSFER                        -----    -----      -----    -----
  +--> ?CO?TRANSFER
  +--> ?PR?PRINTF?PRINTF
  +--> ?PR?ERROR?INSTRUCTION

?PR?XCH_A_DI?TRANSFER                        -----    -----      -----    -----
  +--> ?CO?TRANSFER
  +--> ?PR?PRINTF?PRINTF
  +--> ?PR?ERROR?INSTRUCTION

?PR?XCH_A_RI?TRANSFER                        -----    -----      -----    -----
  +--> ?CO?TRANSFER
  +--> ?PR?PRINTF?PRINTF
  +--> ?PR?ERROR?INSTRUCTION

?PR?XCHD_A_RI?TRANSFER                       -----    -----      -----    -----
  +--> ?CO?TRANSFER
  +--> ?PR?PRINTF?PRINTF
  +--> ?PR?ERROR?INSTRUCTION

?PR?BOOLEAN?INSTRUCTION                      -----    -----      -----    -----
  +--> ?PR?CLR_C?BOOLEAN
  +--> ?PR?CLR_BIT?BOOLEAN
  +--> ?PR?SETB_C?BOOLEAN
  +--> ?PR?SETB_BIT?BOOLEAN
  +--> ?PR?CPL_C?BOOLEAN
  +--> ?PR?CPL_BIT?BOOLEAN
  +--> ?PR?ANL_C_BIT?BOOLEAN
  +--> ?PR?ANL_C_NBIT?BOOLEAN
  +--> ?PR?ORL_C_BIT?BOOLEAN
  +--> ?PR?ORL_C_NBIT?BOOLEAN
  +--> ?PR?MOV_C_BIT?BOOLEAN
  +--> ?PR?MOV_BIT_C?BOOLEAN
  +--> ?PR?JC_C?BOOLEAN
  +--> ?PR?JNC_C?BOOLEAN
  +--> ?PR?JB_BIT?BOOLEAN
BL51 BANKED LINKER/LOCATER V6.22                                                      07/21/2014  16:39:35  PAGE 13


  +--> ?PR?JNB_BIT?BOOLEAN
  +--> ?PR?JBC_BIT?BOOLEAN

?PR?CLR_C?BOOLEAN                            -----    -----      -----    -----
  +--> ?CO?BOOLEAN
  +--> ?PR?PRINTF?PRINTF
  +--> ?PR?ERROR?INSTRUCTION

?PR?CLR_BIT?BOOLEAN                          -----    -----      -----    -----
  +--> ?CO?BOOLEAN
  +--> ?PR?PRINTF?PRINTF
  +--> ?PR?ERROR?INSTRUCTION

?PR?SETB_C?BOOLEAN                           -----    -----      -----    -----
  +--> ?CO?BOOLEAN
  +--> ?PR?PRINTF?PRINTF
  +--> ?PR?ERROR?INSTRUCTION

?PR?SETB_BIT?BOOLEAN                         -----    -----      -----    -----
  +--> ?CO?BOOLEAN
  +--> ?PR?PRINTF?PRINTF
  +--> ?PR?ERROR?INSTRUCTION

?PR?CPL_C?BOOLEAN                            -----    -----      -----    -----
  +--> ?CO?BOOLEAN
  +--> ?PR?PRINTF?PRINTF
  +--> ?PR?ERROR?INSTRUCTION

?PR?CPL_BIT?BOOLEAN                          -----    -----      -----    -----
  +--> ?CO?BOOLEAN
  +--> ?PR?PRINTF?PRINTF
  +--> ?PR?ERROR?INSTRUCTION

?PR?ANL_C_BIT?BOOLEAN                        -----    -----      -----    -----
  +--> ?CO?BOOLEAN
  +--> ?PR?PRINTF?PRINTF
  +--> ?PR?ERROR?INSTRUCTION

?PR?ANL_C_NBIT?BOOLEAN                       -----    -----      -----    -----
  +--> ?CO?BOOLEAN
  +--> ?PR?PRINTF?PRINTF
  +--> ?PR?ERROR?INSTRUCTION

?PR?ORL_C_BIT?BOOLEAN                        -----    -----      -----    -----
  +--> ?CO?BOOLEAN
  +--> ?PR?PRINTF?PRINTF
  +--> ?PR?ERROR?INSTRUCTION

?PR?ORL_C_NBIT?BOOLEAN                       -----    -----      -----    -----
  +--> ?CO?BOOLEAN
  +--> ?PR?PRINTF?PRINTF
  +--> ?PR?ERROR?INSTRUCTION

?PR?MOV_C_BIT?BOOLEAN                        -----    -----      -----    -----
  +--> ?CO?BOOLEAN
  +--> ?PR?PRINTF?PRINTF
  +--> ?PR?ERROR?INSTRUCTION
BL51 BANKED LINKER/LOCATER V6.22                                                      07/21/2014  16:39:35  PAGE 14



?PR?MOV_BIT_C?BOOLEAN                        -----    -----      -----    -----
  +--> ?CO?BOOLEAN
  +--> ?PR?PRINTF?PRINTF
  +--> ?PR?ERROR?INSTRUCTION

?PR?JC_C?BOOLEAN                             -----    -----      -----    -----
  +--> ?CO?BOOLEAN
  +--> ?PR?PRINTF?PRINTF
  +--> ?PR?ERROR?INSTRUCTION

?PR?JNC_C?BOOLEAN                            -----    -----      -----    -----
  +--> ?CO?BOOLEAN
  +--> ?PR?PRINTF?PRINTF
  +--> ?PR?ERROR?INSTRUCTION

?PR?JB_BIT?BOOLEAN                           -----    -----      -----    -----
  +--> ?CO?BOOLEAN
  +--> ?PR?PRINTF?PRINTF
  +--> ?PR?ERROR?INSTRUCTION

?PR?JNB_BIT?BOOLEAN                          -----    -----      -----    -----
  +--> ?CO?BOOLEAN
  +--> ?PR?PRINTF?PRINTF
  +--> ?PR?ERROR?INSTRUCTION

?PR?JBC_BIT?BOOLEAN                          -----    -----      -----    -----
  +--> ?CO?BOOLEAN
  +--> ?PR?PRINTF?PRINTF
  +--> ?PR?ERROR?INSTRUCTION

?PR?PROGRAM?INSTRUCTION                      -----    -----      -----    -----
  +--> ?PR?ACALL_FUNC?PROGRAM
  +--> ?PR?LCALL_FUNC?PROGRAM
  +--> ?PR?RET_FUNC?PROGRAM
  +--> ?PR?RETI_FUNC?PROGRAM
  +--> ?PR?AJMP_FUNC?PROGRAM
  +--> ?PR?SJMP_FUNC?PROGRAM
  +--> ?PR?JMP_FUNC?PROGRAM
  +--> ?PR?JZ_FUNC?PROGRAM
  +--> ?PR?JNZ_FUNC?PROGRAM
  +--> ?PR?CJNE_A_DI_REL?PROGRAM
  +--> ?PR?CJNE_A_DA_REL?PROGRAM
  +--> ?PR?CJNE_RN_DA_REL?PROGRAM
  +--> ?PR?CJNE_RI_DA_REL?PROGRAM
  +--> ?PR?DJNZ_RN_REL?PROGRAM
  +--> ?PR?DJNZ_DI_REL?PROGRAM

?PR?ACALL_FUNC?PROGRAM                       -----    -----      -----    -----
  +--> ?CO?PROGRAM
  +--> ?PR?PRINTF?PRINTF
  +--> ?PR?ERROR?INSTRUCTION

?PR?LCALL_FUNC?PROGRAM                       -----    -----      -----    -----
  +--> ?CO?PROGRAM
  +--> ?PR?PRINTF?PRINTF
  +--> ?PR?ERROR?INSTRUCTION
BL51 BANKED LINKER/LOCATER V6.22                                                      07/21/2014  16:39:35  PAGE 15



?PR?RET_FUNC?PROGRAM                         -----    -----      -----    -----
  +--> ?CO?PROGRAM
  +--> ?PR?PRINTF?PRINTF
  +--> ?PR?ERROR?INSTRUCTION

?PR?RETI_FUNC?PROGRAM                        -----    -----      -----    -----
  +--> ?CO?PROGRAM
  +--> ?PR?PRINTF?PRINTF
  +--> ?PR?ERROR?INSTRUCTION

?PR?AJMP_FUNC?PROGRAM                        -----    -----      -----    -----
  +--> ?CO?PROGRAM
  +--> ?PR?PRINTF?PRINTF
  +--> ?PR?ERROR?INSTRUCTION

?PR?SJMP_FUNC?PROGRAM                        -----    -----      -----    -----
  +--> ?CO?PROGRAM
  +--> ?PR?PRINTF?PRINTF
  +--> ?PR?ERROR?INSTRUCTION

?PR?JMP_FUNC?PROGRAM                         -----    -----      -----    -----
  +--> ?CO?PROGRAM
  +--> ?PR?PRINTF?PRINTF
  +--> ?PR?ERROR?INSTRUCTION

?PR?JZ_FUNC?PROGRAM                          -----    -----      -----    -----
  +--> ?CO?PROGRAM
  +--> ?PR?PRINTF?PRINTF
  +--> ?PR?ERROR?INSTRUCTION

?PR?JNZ_FUNC?PROGRAM                         -----    -----      -----    -----
  +--> ?CO?PROGRAM
  +--> ?PR?PRINTF?PRINTF
  +--> ?PR?ERROR?INSTRUCTION

?PR?CJNE_A_DI_REL?PROGRAM                    -----    -----      -----    -----
  +--> ?CO?PROGRAM
  +--> ?PR?PRINTF?PRINTF
  +--> ?PR?ERROR?INSTRUCTION

?PR?CJNE_A_DA_REL?PROGRAM                    -----    -----      -----    -----
  +--> ?CO?PROGRAM
  +--> ?PR?PRINTF?PRINTF
  +--> ?PR?ERROR?INSTRUCTION

?PR?CJNE_RN_DA_REL?PROGRAM                   -----    -----      -----    -----
  +--> ?CO?PROGRAM
  +--> ?PR?PRINTF?PRINTF
  +--> ?PR?ERROR?INSTRUCTION

?PR?CJNE_RI_DA_REL?PROGRAM                   -----    -----      -----    -----
  +--> ?CO?PROGRAM
  +--> ?PR?PRINTF?PRINTF
  +--> ?PR?ERROR?INSTRUCTION

?PR?DJNZ_RN_REL?PROGRAM                      -----    -----      -----    -----
BL51 BANKED LINKER/LOCATER V6.22                                                      07/21/2014  16:39:35  PAGE 16


  +--> ?CO?PROGRAM
  +--> ?PR?PRINTF?PRINTF
  +--> ?PR?ERROR?INSTRUCTION

?PR?DJNZ_DI_REL?PROGRAM                      -----    -----      -----    -----
  +--> ?CO?PROGRAM
  +--> ?PR?PRINTF?PRINTF
  +--> ?PR?ERROR?INSTRUCTION



SYMBOL TABLE OF MODULE:  HELLO (HELLO)

  VALUE           TYPE          NAME
  ----------------------------------

  -------         MODULE        HELLO
  C:0000H         SYMBOL        _ICE_DUMMY_
  D:0090H         PUBLIC        P1
  D:00B0H         PUBLIC        P3
  D:00A8H         PUBLIC        IE
  D:00B8H         PUBLIC        IP
  C:1D30H         PUBLIC        main
  D:0098H         PUBLIC        SCON
  D:0088H         PUBLIC        TCON
  D:00C8H         PUBLIC        T2CON
  D:00D0H         PUBLIC        PSW
  -------         PROC          MAIN
  C:1D30H         LINE#         19
  C:1D30H         LINE#         20
  C:1D36H         LINE#         22
  C:1D39H         LINE#         25
  C:1D41H         LINE#         26
  C:1D45H         LINE#         27
  C:1D47H         LINE#         28
  C:1D4EH         LINE#         29
  C:1D4EH         LINE#         30
  C:1D57H         LINE#         31
  C:1D5DH         LINE#         32
  -------         ENDPROC       MAIN
  -------         ENDMOD        HELLO

  -------         MODULE        PROGRAM
  C:181FH         SEGMENT       ?PR?ACALL_FUNC?PROGRAM
  C:16CBH         SEGMENT       ?PR?LCALL_FUNC?PROGRAM
  C:1B19H         SEGMENT       ?PR?RET_FUNC?PROGRAM
  C:1B52H         SEGMENT       ?PR?RETI_FUNC?PROGRAM
  C:25DFH         SEGMENT       ?PR?AJMP_FUNC?PROGRAM
  C:2607H         SEGMENT       ?PR?SJMP_FUNC?PROGRAM
  C:1CCEH         SEGMENT       ?PR?JMP_FUNC?PROGRAM
  C:1AA5H         SEGMENT       ?PR?JZ_FUNC?PROGRAM
  C:1ADFH         SEGMENT       ?PR?JNZ_FUNC?PROGRAM
  C:15FAH         SEGMENT       ?PR?CJNE_A_DI_REL?PROGRAM
  C:18E8H         SEGMENT       ?PR?CJNE_A_DA_REL?PROGRAM
  C:192AH         SEGMENT       ?PR?CJNE_RN_DA_REL?PROGRAM
  C:170FH         SEGMENT       ?PR?CJNE_RI_DA_REL?PROGRAM
  C:196CH         SEGMENT       ?PR?DJNZ_RN_REL?PROGRAM
BL51 BANKED LINKER/LOCATER V6.22                                                      07/21/2014  16:39:35  PAGE 17


  C:1753H         SEGMENT       ?PR?DJNZ_DI_REL?PROGRAM
  C:0F87H         SEGMENT       ?CO?PROGRAM
  C:181FH         PUBLIC        ACALL_FUNC
  C:25DFH         PUBLIC        AJMP_FUNC
  C:18E8H         PUBLIC        CJNE_A_DA_REL
  C:15FAH         PUBLIC        CJNE_A_DI_REL
  C:170FH         PUBLIC        CJNE_RI_DA_REL
  C:192AH         PUBLIC        CJNE_RN_DA_REL
  C:1753H         PUBLIC        DJNZ_DI_REL
  C:196CH         PUBLIC        DJNZ_RN_REL
  C:1CCEH         PUBLIC        JMP_FUNC
  C:1ADFH         PUBLIC        JNZ_FUNC
  C:1AA5H         PUBLIC        JZ_FUNC
  C:16CBH         PUBLIC        LCALL_FUNC
  C:1B52H         PUBLIC        RETI_FUNC
  C:1B19H         PUBLIC        RET_FUNC
  C:2607H         PUBLIC        SJMP_FUNC
  C:184EH         SYMBOL        ?C0001
  C:185BH         SYMBOL        ?C0002
  C:16FBH         SYMBOL        ?C0004
  C:1708H         SYMBOL        ?C0005
  C:1B4BH         SYMBOL        ?C0007
  C:1B84H         SYMBOL        ?C0009
  C:2600H         SYMBOL        ?C0011
  C:2628H         SYMBOL        ?C0013
  C:1CF8H         SYMBOL        ?C0015
  C:1AD8H         SYMBOL        ?C0017
  C:1B12H         SYMBOL        ?C0019
  C:1632H         SYMBOL        ?C0021
  C:163AH         SYMBOL        ?C0022
  C:191BH         SYMBOL        ?C0024
  C:1923H         SYMBOL        ?C0025
  C:195DH         SYMBOL        ?C0027
  C:1965H         SYMBOL        ?C0028
  C:1744H         SYMBOL        ?C0030
  C:174CH         SYMBOL        ?C0031
  C:199CH         SYMBOL        ?C0033
  C:19A7H         SYMBOL        ?C0034
  C:1785H         SYMBOL        ?C0036
  C:1790H         SYMBOL        ?C0037
  C:0F87H         SYMBOL        ?SC_0
  C:0FF6H         SYMBOL        ?SC_111
  C:0F93H         SYMBOL        ?SC_12
  C:1005H         SYMBOL        ?SC_126
  C:1015H         SYMBOL        ?SC_142
  C:1025H         SYMBOL        ?SC_158
  C:1032H         SYMBOL        ?SC_171
  C:0F9FH         SYMBOL        ?SC_24
  C:0FA9H         SYMBOL        ?SC_34
  C:0FB4H         SYMBOL        ?SC_45
  C:0FBFH         SYMBOL        ?SC_56
  C:0FCAH         SYMBOL        ?SC_67
  C:0FD4H         SYMBOL        ?SC_77
  C:0FDDH         SYMBOL        ?SC_86
  C:0FE7H         SYMBOL        ?SC_96
  B:00D0H.6       SYMBOL        AC
  D:00E0H         SYMBOL        ACC
BL51 BANKED LINKER/LOCATER V6.22                                                      07/21/2014  16:39:35  PAGE 18


  D:00F0H         SYMBOL        B
  B:00C8H.0       SYMBOL        CP_RL2
  B:00D0H.7       SYMBOL        CY
  B:00C8H.1       SYMBOL        C_T2
  D:0083H         SYMBOL        DPH
  D:0082H         SYMBOL        DPL
  B:00A8H.7       SYMBOL        EA
  B:00A8H.4       SYMBOL        ES
  B:00A8H.1       SYMBOL        ET0
  B:00A8H.3       SYMBOL        ET1
  B:00A8H.5       SYMBOL        ET2
  B:00A8H.0       SYMBOL        EX0
  B:00A8H.2       SYMBOL        EX1
  B:00C8H.3       SYMBOL        EXEN2
  B:00C8H.6       SYMBOL        EXF2
  C:1844H         SYMBOL        EXIT_ACALL
  C:25F8H         SYMBOL        EXIT_AJMP
  C:1910H         SYMBOL        EXIT_CJNE_A_DA_REL
  C:1627H         SYMBOL        EXIT_CJNE_A_DI_REL
  C:1739H         SYMBOL        EXIT_CJNE_RI_DA_REL
  C:1952H         SYMBOL        EXIT_CJNE_RN_DA_REL
  C:177AH         SYMBOL        EXIT_DJNZ_DI_REL
  C:1991H         SYMBOL        EXIT_DJNZ_RN_REL
  C:1CEEH         SYMBOL        EXIT_JMP
  C:1B07H         SYMBOL        EXIT_JNZ
  C:1ACDH         SYMBOL        EXIT_JZ
  C:16F1H         SYMBOL        EXIT_LCALL
  C:1B41H         SYMBOL        EXIT_RET
  C:1B7AH         SYMBOL        EXIT_RETI
  C:2620H         SYMBOL        EXIT_SJMP
  B:00D0H.5       SYMBOL        F0
  D:00A8H         SYMBOL        IE
  B:0088H.1       SYMBOL        IE0
  B:0088H.3       SYMBOL        IE1
  B:00B0H.2       SYMBOL        INT0
  B:00B0H.3       SYMBOL        INT1
  D:00B8H         SYMBOL        IP
  B:0088H.0       SYMBOL        IT0
  B:0088H.2       SYMBOL        IT1
  C:183CH         SYMBOL        JUMP_ACALL
  C:16E9H         SYMBOL        JUMP_LCALL
  C:1B3CH         SYMBOL        JUMP_RET
  C:1B75H         SYMBOL        JUMP_RETI
  B:00D0H.2       SYMBOL        OV
  B:00D0H.0       SYMBOL        P
  D:0080H         SYMBOL        P0
  D:0090H         SYMBOL        P1
  D:00A0H         SYMBOL        P2
  D:00B0H         SYMBOL        P3
  D:0087H         SYMBOL        PCON
  N:0000H         SYMBOL        PROGRAM
  B:00B8H.4       SYMBOL        PS
  D:00D0H         SYMBOL        PSW
  B:00B8H.1       SYMBOL        PT0
  B:00B8H.3       SYMBOL        PT1
  B:00B8H.5       SYMBOL        PT2
  B:00B8H.0       SYMBOL        PX0
BL51 BANKED LINKER/LOCATER V6.22                                                      07/21/2014  16:39:35  PAGE 19


  B:00B8H.2       SYMBOL        PX1
  B:0098H.2       SYMBOL        RB8
  D:00CBH         SYMBOL        RCAP2H
  D:00CAH         SYMBOL        RCAP2L
  B:00C8H.5       SYMBOL        RCLK
  B:00B0H.7       SYMBOL        RD
  B:0098H.4       SYMBOL        REN
  B:0098H.0       SYMBOL        RI
  B:00D0H.3       SYMBOL        RS0
  B:00D0H.4       SYMBOL        RS1
  B:00B0H.0       SYMBOL        RXD
  D:0099H         SYMBOL        SBUF
  D:0098H         SYMBOL        SCON
  B:0098H.7       SYMBOL        SM0
  B:0098H.6       SYMBOL        SM1
  B:0098H.5       SYMBOL        SM2
  D:0081H         SYMBOL        SP
  B:00B0H.4       SYMBOL        T0
  B:00B0H.5       SYMBOL        T1
  B:0090H.0       SYMBOL        T2
  D:00C8H         SYMBOL        T2CON
  B:0090H.1       SYMBOL        T2EX
  B:0098H.3       SYMBOL        TB8
  B:00C8H.4       SYMBOL        TCLK
  D:0088H         SYMBOL        TCON
  B:0088H.5       SYMBOL        TF0
  B:0088H.7       SYMBOL        TF1
  B:00C8H.7       SYMBOL        TF2
  D:008CH         SYMBOL        TH0
  D:008DH         SYMBOL        TH1
  D:00CDH         SYMBOL        TH2
  B:0098H.1       SYMBOL        TI
  D:008AH         SYMBOL        TL0
  D:008BH         SYMBOL        TL1
  D:00CCH         SYMBOL        TL2
  D:0089H         SYMBOL        TMOD
  B:0088H.4       SYMBOL        TR0
  B:0088H.6       SYMBOL        TR1
  B:00C8H.2       SYMBOL        TR2
  B:00B0H.1       SYMBOL        TXD
  B:00B0H.6       SYMBOL        WR
  C:181FH         LINE#         193
  C:1821H         LINE#         194
  C:1823H         LINE#         195
  C:1825H         LINE#         196
  C:1828H         LINE#         199
  C:182AH         LINE#         201
  C:182CH         LINE#         203
  C:182FH         LINE#         205
  C:1831H         LINE#         207
  C:1833H         LINE#         212
  C:1835H         LINE#         214
  C:1837H         LINE#         216
  C:1839H         LINE#         218
  C:183AH         LINE#         220
  C:183BH         LINE#         222
  C:183CH         LINE#         224
BL51 BANKED LINKER/LOCATER V6.22                                                      07/21/2014  16:39:35  PAGE 20


  C:183DH         LINE#         226
  C:183EH         LINE#         228
  C:1841H         LINE#         230
  C:1842H         LINE#         232
  C:1843H         LINE#         234
  C:1844H         LINE#         236
  C:1845H         LINE#         240
  C:1847H         LINE#         241
  C:1849H         LINE#         242
  C:184CH         LINE#         243
  C:184DH         LINE#         244
  C:184EH         LINE#         248
  C:1850H         LINE#         249
  C:1852H         LINE#         250
  C:1854H         LINE#         251
  C:1856H         LINE#         252
  C:1859H         LINE#         253
  C:185AH         LINE#         254
  C:185BH         LINE#         259
  C:185DH         LINE#         261
  C:185FH         LINE#         265
  C:16CBH         LINE#         278
  C:16CDH         LINE#         279
  C:16CFH         LINE#         280
  C:16D1H         LINE#         281
  C:16D4H         LINE#         284
  C:16D6H         LINE#         286
  C:16D8H         LINE#         288
  C:16DBH         LINE#         290
  C:16DDH         LINE#         292
  C:16DFH         LINE#         297
  C:16E1H         LINE#         299
  C:16E4H         LINE#         301
  C:16E6H         LINE#         303
  C:16E7H         LINE#         305
  C:16E8H         LINE#         307
  C:16E9H         LINE#         309
  C:16EAH         LINE#         311
  C:16EBH         LINE#         313
  C:16EEH         LINE#         315
  C:16EFH         LINE#         317
  C:16F0H         LINE#         319
  C:16F1H         LINE#         321
  C:16F2H         LINE#         325
  C:16F4H         LINE#         326
  C:16F6H         LINE#         327
  C:16F9H         LINE#         328
  C:16FAH         LINE#         329
  C:16FBH         LINE#         333
  C:16FDH         LINE#         334
  C:16FFH         LINE#         335
  C:1701H         LINE#         336
  C:1703H         LINE#         337
  C:1706H         LINE#         338
  C:1707H         LINE#         339
  C:1708H         LINE#         344
  C:170AH         LINE#         346
BL51 BANKED LINKER/LOCATER V6.22                                                      07/21/2014  16:39:35  PAGE 21


  C:170CH         LINE#         350
  C:1B19H         LINE#         364
  C:1B1BH         LINE#         365
  C:1B1DH         LINE#         366
  C:1B1FH         LINE#         367
  C:1B22H         LINE#         370
  C:1B24H         LINE#         372
  C:1B26H         LINE#         374
  C:1B29H         LINE#         376
  C:1B2BH         LINE#         378
  C:1B2DH         LINE#         383
  C:1B30H         LINE#         385
  C:1B33H         LINE#         387
  C:1B35H         LINE#         389
  C:1B37H         LINE#         391
  C:1B39H         LINE#         393
  C:1B3AH         LINE#         395
  C:1B3BH         LINE#         397
  C:1B3CH         LINE#         399
  C:1B3EH         LINE#         401
  C:1B3FH         LINE#         403
  C:1B40H         LINE#         405
  C:1B41H         LINE#         407
  C:1B42H         LINE#         411
  C:1B44H         LINE#         412
  C:1B46H         LINE#         413
  C:1B49H         LINE#         414
  C:1B4AH         LINE#         415
  C:1B4BH         LINE#         420
  C:1B4DH         LINE#         422
  C:1B4FH         LINE#         426
  C:1B52H         LINE#         439
  C:1B54H         LINE#         440
  C:1B56H         LINE#         441
  C:1B58H         LINE#         442
  C:1B5BH         LINE#         445
  C:1B5DH         LINE#         447
  C:1B5FH         LINE#         449
  C:1B62H         LINE#         451
  C:1B64H         LINE#         453
  C:1B66H         LINE#         458
  C:1B69H         LINE#         460
  C:1B6CH         LINE#         462
  C:1B6EH         LINE#         464
  C:1B70H         LINE#         466
  C:1B72H         LINE#         468
  C:1B73H         LINE#         470
  C:1B74H         LINE#         472
  C:1B75H         LINE#         474
  C:1B77H         LINE#         476
  C:1B78H         LINE#         478
  C:1B79H         LINE#         480
  C:1B7AH         LINE#         482
  C:1B7BH         LINE#         486
  C:1B7DH         LINE#         487
  C:1B7FH         LINE#         488
  C:1B82H         LINE#         489
BL51 BANKED LINKER/LOCATER V6.22                                                      07/21/2014  16:39:35  PAGE 22


  C:1B83H         LINE#         490
  C:1B84H         LINE#         495
  C:1B86H         LINE#         497
  C:1B88H         LINE#         501
  C:25DFH         LINE#         514
  C:25E1H         LINE#         515
  C:25E3H         LINE#         516
  C:25E5H         LINE#         517
  C:25E8H         LINE#         520
  C:25EAH         LINE#         522
  C:25ECH         LINE#         524
  C:25EFH         LINE#         526
  C:25F1H         LINE#         528
  C:25F3H         LINE#         533
  C:25F4H         LINE#         535
  C:25F6H         LINE#         537
  C:25F8H         LINE#         539
  C:25F9H         LINE#         543
  C:25FBH         LINE#         544
  C:25FEH         LINE#         545
  C:25FFH         LINE#         546
  C:2600H         LINE#         551
  C:2602H         LINE#         553
  C:2604H         LINE#         557
  C:2607H         LINE#         569
  C:2609H         LINE#         570
  C:260BH         LINE#         571
  C:260DH         LINE#         572
  C:2610H         LINE#         575
  C:2612H         LINE#         577
  C:2614H         LINE#         579
  C:2617H         LINE#         581
  C:2619H         LINE#         583
  C:261BH         LINE#         588
  C:261CH         LINE#         590
  C:261EH         LINE#         592
  C:2620H         LINE#         594
  C:2621H         LINE#         598
  C:2623H         LINE#         599
  C:2626H         LINE#         600
  C:2627H         LINE#         601
  C:2628H         LINE#         606
  C:262AH         LINE#         608
  C:262CH         LINE#         612
  C:1CCEH         LINE#         625
  C:1CD0H         LINE#         626
  C:1CD2H         LINE#         627
  C:1CD4H         LINE#         628
  C:1CD7H         LINE#         631
  C:1CD9H         LINE#         633
  C:1CDBH         LINE#         635
  C:1CDEH         LINE#         637
  C:1CE0H         LINE#         639
  C:1CE2H         LINE#         644
  C:1CE5H         LINE#         646
  C:1CE8H         LINE#         648
  C:1CE9H         LINE#         650
BL51 BANKED LINKER/LOCATER V6.22                                                      07/21/2014  16:39:35  PAGE 23


  C:1CEBH         LINE#         652
  C:1CECH         LINE#         654
  C:1CEEH         LINE#         656
  C:1CEFH         LINE#         660
  C:1CF1H         LINE#         661
  C:1CF3H         LINE#         662
  C:1CF6H         LINE#         663
  C:1CF7H         LINE#         664
  C:1CF8H         LINE#         669
  C:1CFAH         LINE#         671
  C:1CFCH         LINE#         675
  C:1AA5H         LINE#         688
  C:1AA7H         LINE#         689
  C:1AA9H         LINE#         690
  C:1AABH         LINE#         691
  C:1AAEH         LINE#         694
  C:1AB0H         LINE#         696
  C:1AB2H         LINE#         698
  C:1AB5H         LINE#         700
  C:1AB7H         LINE#         702
  C:1AB9H         LINE#         707
  C:1ABCH         LINE#         709
  C:1ABEH         LINE#         711
  C:1AC0H         LINE#         713
  C:1AC3H         LINE#         715
  C:1AC4H         LINE#         717
  C:1AC6H         LINE#         719
  C:1AC7H         LINE#         721
  C:1AC8H         LINE#         723
  C:1ACBH         LINE#         725
  C:1ACCH         LINE#         727
  C:1ACDH         LINE#         729
  C:1ACEH         LINE#         733
  C:1AD0H         LINE#         734
  C:1AD1H         LINE#         735
  C:1AD3H         LINE#         736
  C:1AD6H         LINE#         737
  C:1AD7H         LINE#         738
  C:1AD8H         LINE#         743
  C:1ADAH         LINE#         745
  C:1ADCH         LINE#         749
  C:1ADFH         LINE#         762
  C:1AE1H         LINE#         763
  C:1AE3H         LINE#         764
  C:1AE5H         LINE#         765
  C:1AE8H         LINE#         768
  C:1AEAH         LINE#         770
  C:1AECH         LINE#         772
  C:1AEFH         LINE#         774
  C:1AF1H         LINE#         776
  C:1AF3H         LINE#         781
  C:1AF6H         LINE#         783
  C:1AF8H         LINE#         785
  C:1AFAH         LINE#         787
  C:1AFDH         LINE#         789
  C:1AFEH         LINE#         791
  C:1B00H         LINE#         793
BL51 BANKED LINKER/LOCATER V6.22                                                      07/21/2014  16:39:35  PAGE 24


  C:1B01H         LINE#         795
  C:1B02H         LINE#         797
  C:1B05H         LINE#         799
  C:1B06H         LINE#         801
  C:1B07H         LINE#         803
  C:1B08H         LINE#         807
  C:1B0AH         LINE#         808
  C:1B0BH         LINE#         809
  C:1B0DH         LINE#         810
  C:1B10H         LINE#         811
  C:1B11H         LINE#         812
  C:1B12H         LINE#         817
  C:1B14H         LINE#         819
  C:1B16H         LINE#         823
  C:15FAH         LINE#         836
  C:15FCH         LINE#         837
  C:15FEH         LINE#         838
  C:1600H         LINE#         839
  C:1603H         LINE#         842
  C:1605H         LINE#         844
  C:1607H         LINE#         846
  C:160AH         LINE#         848
  C:160CH         LINE#         850
  C:160EH         LINE#         855
  C:1611H         LINE#         857
  C:1613H         LINE#         859
  C:1616H         LINE#         861
  C:1619H         LINE#         863
  C:161AH         LINE#         865
  C:161DH         LINE#         867
  C:161FH         LINE#         869
  C:1622H         LINE#         871
  C:1623H         LINE#         873
  C:1626H         LINE#         875
  C:1627H         LINE#         877
  C:1628H         LINE#         881
  C:162AH         LINE#         882
  C:162BH         LINE#         883
  C:162DH         LINE#         884
  C:1630H         LINE#         885
  C:1631H         LINE#         886
  C:1632H         LINE#         890
  C:1635H         LINE#         891
  C:1638H         LINE#         892
  C:1639H         LINE#         893
  C:163AH         LINE#         898
  C:163CH         LINE#         900
  C:163EH         LINE#         904
  C:18E8H         LINE#         917
  C:18EAH         LINE#         918
  C:18ECH         LINE#         919
  C:18EEH         LINE#         920
  C:18F1H         LINE#         923
  C:18F3H         LINE#         925
  C:18F5H         LINE#         927
  C:18F8H         LINE#         929
  C:18FAH         LINE#         931
BL51 BANKED LINKER/LOCATER V6.22                                                      07/21/2014  16:39:35  PAGE 25


  C:18FCH         LINE#         936
  C:18FFH         LINE#         938
  C:1901H         LINE#         940
  C:1904H         LINE#         942
  C:1905H         LINE#         944
  C:1908H         LINE#         946
  C:190BH         LINE#         948
  C:190CH         LINE#         950
  C:190FH         LINE#         952
  C:1910H         LINE#         954
  C:1911H         LINE#         958
  C:1913H         LINE#         959
  C:1914H         LINE#         960
  C:1916H         LINE#         961
  C:1919H         LINE#         962
  C:191AH         LINE#         963
  C:191BH         LINE#         967
  C:191EH         LINE#         968
  C:1921H         LINE#         969
  C:1922H         LINE#         970
  C:1923H         LINE#         975
  C:1925H         LINE#         977
  C:1927H         LINE#         981
  C:192AH         LINE#         994
  C:192CH         LINE#         995
  C:192EH         LINE#         996
  C:1930H         LINE#         997
  C:1933H         LINE#         1000
  C:1935H         LINE#         1002
  C:1937H         LINE#         1004
  C:193AH         LINE#         1006
  C:193CH         LINE#         1008
  C:193EH         LINE#         1013
  C:1941H         LINE#         1015
  C:1943H         LINE#         1017
  C:1946H         LINE#         1019
  C:1947H         LINE#         1021
  C:194AH         LINE#         1023
  C:194DH         LINE#         1025
  C:194EH         LINE#         1027
  C:1951H         LINE#         1029
  C:1952H         LINE#         1031
  C:1953H         LINE#         1035
  C:1955H         LINE#         1036
  C:1956H         LINE#         1037
  C:1958H         LINE#         1038
  C:195BH         LINE#         1039
  C:195CH         LINE#         1040
  C:195DH         LINE#         1044
  C:1960H         LINE#         1045
  C:1963H         LINE#         1046
  C:1964H         LINE#         1047
  C:1965H         LINE#         1052
  C:1967H         LINE#         1054
  C:1969H         LINE#         1058
  C:170FH         LINE#         1071
  C:1711H         LINE#         1072
BL51 BANKED LINKER/LOCATER V6.22                                                      07/21/2014  16:39:35  PAGE 26


  C:1713H         LINE#         1073
  C:1715H         LINE#         1074
  C:1718H         LINE#         1077
  C:171AH         LINE#         1079
  C:171CH         LINE#         1081
  C:171FH         LINE#         1083
  C:1721H         LINE#         1085
  C:1723H         LINE#         1090
  C:1726H         LINE#         1092
  C:1728H         LINE#         1094
  C:172AH         LINE#         1096
  C:172DH         LINE#         1098
  C:172EH         LINE#         1100
  C:1731H         LINE#         1102
  C:1734H         LINE#         1104
  C:1735H         LINE#         1106
  C:1738H         LINE#         1108
  C:1739H         LINE#         1110
  C:173AH         LINE#         1114
  C:173CH         LINE#         1115
  C:173DH         LINE#         1116
  C:173FH         LINE#         1117
  C:1742H         LINE#         1118
  C:1743H         LINE#         1119
  C:1744H         LINE#         1123
  C:1747H         LINE#         1124
  C:174AH         LINE#         1125
  C:174BH         LINE#         1126
  C:174CH         LINE#         1131
  C:174EH         LINE#         1133
  C:1750H         LINE#         1137
  C:196CH         LINE#         1150
  C:196EH         LINE#         1151
  C:1970H         LINE#         1152
  C:1972H         LINE#         1153
  C:1975H         LINE#         1156
  C:1977H         LINE#         1158
  C:1979H         LINE#         1160
  C:197CH         LINE#         1162
  C:197EH         LINE#         1164
  C:1980H         LINE#         1169
  C:1983H         LINE#         1171
  C:1985H         LINE#         1173
  C:1987H         LINE#         1175
  C:198AH         LINE#         1177
  C:198CH         LINE#         1179
  C:198DH         LINE#         1181
  C:1990H         LINE#         1183
  C:1991H         LINE#         1185
  C:1992H         LINE#         1189
  C:1994H         LINE#         1190
  C:1995H         LINE#         1191
  C:1997H         LINE#         1192
  C:199AH         LINE#         1193
  C:199BH         LINE#         1194
  C:199CH         LINE#         1198
  C:199EH         LINE#         1199
BL51 BANKED LINKER/LOCATER V6.22                                                      07/21/2014  16:39:35  PAGE 27


  C:199FH         LINE#         1200
  C:19A0H         LINE#         1201
  C:19A2H         LINE#         1202
  C:19A5H         LINE#         1203
  C:19A6H         LINE#         1204
  C:19A7H         LINE#         1209
  C:19A9H         LINE#         1211
  C:19ABH         LINE#         1215
  C:1753H         LINE#         1228
  C:1755H         LINE#         1229
  C:1757H         LINE#         1230
  C:1759H         LINE#         1231
  C:175CH         LINE#         1234
  C:175EH         LINE#         1236
  C:1760H         LINE#         1238
  C:1763H         LINE#         1240
  C:1765H         LINE#         1242
  C:1767H         LINE#         1247
  C:176AH         LINE#         1249
  C:176CH         LINE#         1251
  C:176FH         LINE#         1253
  C:1772H         LINE#         1255
  C:1775H         LINE#         1257
  C:1776H         LINE#         1259
  C:1779H         LINE#         1261
  C:177AH         LINE#         1263
  C:177BH         LINE#         1267
  C:177DH         LINE#         1268
  C:177EH         LINE#         1269
  C:1780H         LINE#         1270
  C:1783H         LINE#         1271
  C:1784H         LINE#         1272
  C:1785H         LINE#         1276
  C:1787H         LINE#         1277
  C:1788H         LINE#         1278
  C:1789H         LINE#         1279
  C:178BH         LINE#         1280
  C:178EH         LINE#         1281
  C:178FH         LINE#         1282
  C:1790H         LINE#         1287
  C:1792H         LINE#         1289
  C:1794H         LINE#         1293
  -------         ENDMOD        PROGRAM

  -------         MODULE        BOOLEAN
  C:2718H         SEGMENT       ?PR?CLR_C?BOOLEAN
  C:1FB1H         SEGMENT       ?PR?CLR_BIT?BOOLEAN
  C:2787H         SEGMENT       ?PR?SETB_C?BOOLEAN
  C:1FDDH         SEGMENT       ?PR?SETB_BIT?BOOLEAN
  C:273DH         SEGMENT       ?PR?CPL_C?BOOLEAN
  C:2009H         SEGMENT       ?PR?CPL_BIT?BOOLEAN
  C:246EH         SEGMENT       ?PR?ANL_C_BIT?BOOLEAN
  C:2497H         SEGMENT       ?PR?ANL_C_NBIT?BOOLEAN
  C:24C0H         SEGMENT       ?PR?ORL_C_BIT?BOOLEAN
  C:24E9H         SEGMENT       ?PR?ORL_C_NBIT?BOOLEAN
  C:2512H         SEGMENT       ?PR?MOV_C_BIT?BOOLEAN
  C:1EA3H         SEGMENT       ?PR?MOV_BIT_C?BOOLEAN
BL51 BANKED LINKER/LOCATER V6.22                                                      07/21/2014  16:39:35  PAGE 28


  C:1410H         SEGMENT       ?PR?JC_C?BOOLEAN
  C:146BH         SEGMENT       ?PR?JNC_C?BOOLEAN
  C:1346H         SEGMENT       ?PR?JB_BIT?BOOLEAN
  C:13ABH         SEGMENT       ?PR?JNB_BIT?BOOLEAN
  C:11EBH         SEGMENT       ?PR?JBC_BIT?BOOLEAN
  C:103FH         SEGMENT       ?CO?BOOLEAN
  C:246EH         PUBLIC        ANL_C_BIT
  C:2497H         PUBLIC        ANL_C_NBIT
  C:1FB1H         PUBLIC        CLR_BIT
  C:2718H         PUBLIC        CLR_C
  C:2009H         PUBLIC        CPL_BIT
  C:273DH         PUBLIC        CPL_C
  C:11EBH         PUBLIC        JBC_BIT
  C:1346H         PUBLIC        JB_BIT
  C:1410H         PUBLIC        JC_C
  C:13ABH         PUBLIC        JNB_BIT
  C:146BH         PUBLIC        JNC_C
  C:1EA3H         PUBLIC        MOV_BIT_C
  C:2512H         PUBLIC        MOV_C_BIT
  C:24C0H         PUBLIC        ORL_C_BIT
  C:24E9H         PUBLIC        ORL_C_NBIT
  C:1FDDH         PUBLIC        SETB_BIT
  C:2787H         PUBLIC        SETB_C
  C:2736H         SYMBOL        ?C0001
  C:1FD6H         SYMBOL        ?C0003
  C:27A4H         SYMBOL        ?C0005
  C:2002H         SYMBOL        ?C0007
  C:275BH         SYMBOL        ?C0009
  C:202EH         SYMBOL        ?C0011
  C:2490H         SYMBOL        ?C0013
  C:24B9H         SYMBOL        ?C0015
  C:24E2H         SYMBOL        ?C0017
  C:250BH         SYMBOL        ?C0019
  C:2534H         SYMBOL        ?C0021
  C:1EC9H         SYMBOL        ?C0023
  C:1441H         SYMBOL        ?C0025
  C:1464H         SYMBOL        ?C0026
  C:149CH         SYMBOL        ?C0028
  C:14BFH         SYMBOL        ?C0029
  C:137CH         SYMBOL        ?C0031
  C:13A4H         SYMBOL        ?C0032
  C:13E1H         SYMBOL        ?C0034
  C:1409H         SYMBOL        ?C0035
  C:1221H         SYMBOL        ?C0037
  C:122DH         SYMBOL        ?C0038
  C:1255H         SYMBOL        ?C0039
  C:1261H         SYMBOL        ?C0040
  C:103FH         SYMBOL        ?SC_0
  C:10AAH         SYMBOL        ?SC_107
  C:10B5H         SYMBOL        ?SC_118
  C:10BBH         SYMBOL        ?SC_124
  C:10C2H         SYMBOL        ?SC_131
  C:10CAH         SYMBOL        ?SC_139
  C:10D3H         SYMBOL        ?SC_148
  C:104FH         SYMBOL        ?SC_16
  C:1057H         SYMBOL        ?SC_24
  C:1061H         SYMBOL        ?SC_34
BL51 BANKED LINKER/LOCATER V6.22                                                      07/21/2014  16:39:35  PAGE 29


  C:1068H         SYMBOL        ?SC_41
  C:1071H         SYMBOL        ?SC_50
  C:107CH         SYMBOL        ?SC_61
  C:1046H         SYMBOL        ?SC_7
  C:1088H         SYMBOL        ?SC_73
  C:1093H         SYMBOL        ?SC_84
  C:109FH         SYMBOL        ?SC_96
  B:00D0H.6       SYMBOL        AC
  D:00E0H         SYMBOL        ACC
  D:00F0H         SYMBOL        B
  N:0000H         SYMBOL        BOOLEAN
  B:00C8H.0       SYMBOL        CP_RL2
  B:00D0H.7       SYMBOL        CY
  B:00C8H.1       SYMBOL        C_T2
  D:0083H         SYMBOL        DPH
  D:0082H         SYMBOL        DPL
  B:00A8H.7       SYMBOL        EA
  C:120DH         SYMBOL        ERROR0_JBC_BIT
  C:1368H         SYMBOL        ERROR0_JB_BIT
  C:142DH         SYMBOL        ERROR0_JC_C
  C:13CDH         SYMBOL        ERROR0_JNB_BIT
  C:1488H         SYMBOL        ERROR0_JNC_C
  C:1232H         SYMBOL        ERROR1_JBC_BIT
  C:1381H         SYMBOL        ERROR1_JB_BIT
  C:1446H         SYMBOL        ERROR1_JC_C
  C:13E6H         SYMBOL        ERROR1_JNB_BIT
  C:14A1H         SYMBOL        ERROR1_JNC_C
  B:00A8H.4       SYMBOL        ES
  B:00A8H.1       SYMBOL        ET0
  B:00A8H.3       SYMBOL        ET1
  B:00A8H.5       SYMBOL        ET2
  B:00A8H.0       SYMBOL        EX0
  B:00A8H.2       SYMBOL        EX1
  B:00C8H.3       SYMBOL        EXEN2
  B:00C8H.6       SYMBOL        EXF2
  C:1218H         SYMBOL        EXIT0_JBC_BIT
  C:1373H         SYMBOL        EXIT0_JB_BIT
  C:1438H         SYMBOL        EXIT0_JC_C
  C:13D8H         SYMBOL        EXIT0_JNB_BIT
  C:1493H         SYMBOL        EXIT0_JNC_C
  C:124CH         SYMBOL        EXIT1_JBC_BIT
  C:139BH         SYMBOL        EXIT1_JB_BIT
  C:145BH         SYMBOL        EXIT1_JC_C
  C:1400H         SYMBOL        EXIT1_JNB_BIT
  C:14B6H         SYMBOL        EXIT1_JNC_C
  B:00D0H.5       SYMBOL        F0
  D:00A8H         SYMBOL        IE
  B:0088H.1       SYMBOL        IE0
  B:0088H.3       SYMBOL        IE1
  B:00B0H.2       SYMBOL        INT0
  B:00B0H.3       SYMBOL        INT1
  D:00B8H         SYMBOL        IP
  B:0088H.0       SYMBOL        IT0
  B:0088H.2       SYMBOL        IT1
  C:123FH         SYMBOL        NOW_JBC_BIT
  C:138EH         SYMBOL        NOW_JB_BIT
  C:1453H         SYMBOL        NOW_JC_C
BL51 BANKED LINKER/LOCATER V6.22                                                      07/21/2014  16:39:35  PAGE 30


  C:13F3H         SYMBOL        NOW_JNB_BIT
  C:14AEH         SYMBOL        NOW_JNC_C
  B:00D0H.2       SYMBOL        OV
  B:00D0H.0       SYMBOL        P
  D:0080H         SYMBOL        P0
  D:0090H         SYMBOL        P1
  D:00A0H         SYMBOL        P2
  D:00B0H         SYMBOL        P3
  D:0087H         SYMBOL        PCON
  B:00B8H.4       SYMBOL        PS
  D:00D0H         SYMBOL        PSW
  B:00B8H.1       SYMBOL        PT0
  B:00B8H.3       SYMBOL        PT1
  B:00B8H.5       SYMBOL        PT2
  B:00B8H.0       SYMBOL        PX0
  B:00B8H.2       SYMBOL        PX1
  B:0098H.2       SYMBOL        RB8
  D:00CBH         SYMBOL        RCAP2H
  D:00CAH         SYMBOL        RCAP2L
  B:00C8H.5       SYMBOL        RCLK
  B:00B0H.7       SYMBOL        RD
  B:0098H.4       SYMBOL        REN
  B:0098H.0       SYMBOL        RI
  C:1212H         SYMBOL        RIGHT0_JBC_BIT
  C:136DH         SYMBOL        RIGHT0_JB_BIT
  C:1432H         SYMBOL        RIGHT0_JC_C
  C:13D2H         SYMBOL        RIGHT0_JNB_BIT
  C:148DH         SYMBOL        RIGHT0_JNC_C
  C:1237H         SYMBOL        RIGHT1_JBC_BIT
  C:1386H         SYMBOL        RIGHT1_JB_BIT
  C:144BH         SYMBOL        RIGHT1_JC_C
  C:13EBH         SYMBOL        RIGHT1_JNB_BIT
  C:14A6H         SYMBOL        RIGHT1_JNC_C
  B:00D0H.3       SYMBOL        RS0
  B:00D0H.4       SYMBOL        RS1
  B:00B0H.0       SYMBOL        RXD
  D:0099H         SYMBOL        SBUF
  D:0098H         SYMBOL        SCON
  B:0098H.7       SYMBOL        SM0
  B:0098H.6       SYMBOL        SM1
  B:0098H.5       SYMBOL        SM2
  D:0081H         SYMBOL        SP
  B:00B0H.4       SYMBOL        T0
  B:00B0H.5       SYMBOL        T1
  B:0090H.0       SYMBOL        T2
  D:00C8H         SYMBOL        T2CON
  B:0090H.1       SYMBOL        T2EX
  B:0098H.3       SYMBOL        TB8
  B:00C8H.4       SYMBOL        TCLK
  D:0088H         SYMBOL        TCON
  B:0088H.5       SYMBOL        TF0
  B:0088H.7       SYMBOL        TF1
  B:00C8H.7       SYMBOL        TF2
  D:008CH         SYMBOL        TH0
  D:008DH         SYMBOL        TH1
  D:00CDH         SYMBOL        TH2
  B:0098H.1       SYMBOL        TI
BL51 BANKED LINKER/LOCATER V6.22                                                      07/21/2014  16:39:35  PAGE 31


  D:008AH         SYMBOL        TL0
  D:008BH         SYMBOL        TL1
  D:00CCH         SYMBOL        TL2
  D:0089H         SYMBOL        TMOD
  B:0088H.4       SYMBOL        TR0
  B:0088H.6       SYMBOL        TR1
  B:00C8H.2       SYMBOL        TR2
  B:00B0H.1       SYMBOL        TXD
  B:00B0H.6       SYMBOL        WR
  C:2718H         LINE#         198
  C:271AH         LINE#         199
  C:271CH         LINE#         200
  C:271EH         LINE#         201
  C:2721H         LINE#         204
  C:2723H         LINE#         206
  C:2725H         LINE#         208
  C:2728H         LINE#         210
  C:272AH         LINE#         212
  C:272CH         LINE#         217
  C:272DH         LINE#         219
  C:272EH         LINE#         223
  C:2731H         LINE#         224
  C:2734H         LINE#         225
  C:2735H         LINE#         226
  C:2736H         LINE#         231
  C:2738H         LINE#         233
  C:273AH         LINE#         237
  C:1FB1H         LINE#         250
  C:1FB3H         LINE#         251
  C:1FB5H         LINE#         252
  C:1FB7H         LINE#         253
  C:1FBAH         LINE#         256
  C:1FBCH         LINE#         258
  C:1FBEH         LINE#         260
  C:1FC1H         LINE#         262
  C:1FC3H         LINE#         264
  C:1FC5H         LINE#         269
  C:1FC8H         LINE#         271
  C:1FCAH         LINE#         275
  C:1FCCH         LINE#         276
  C:1FCDH         LINE#         277
  C:1FCFH         LINE#         278
  C:1FD1H         LINE#         279
  C:1FD4H         LINE#         280
  C:1FD5H         LINE#         281
  C:1FD6H         LINE#         286
  C:1FD8H         LINE#         288
  C:1FDAH         LINE#         292
  C:2787H         LINE#         305
  C:2789H         LINE#         306
  C:278BH         LINE#         307
  C:278DH         LINE#         308
  C:2790H         LINE#         311
  C:2792H         LINE#         313
  C:2794H         LINE#         315
  C:2797H         LINE#         317
  C:2799H         LINE#         319
BL51 BANKED LINKER/LOCATER V6.22                                                      07/21/2014  16:39:35  PAGE 32


  C:279BH         LINE#         324
  C:279CH         LINE#         328
  C:279FH         LINE#         329
  C:27A2H         LINE#         330
  C:27A3H         LINE#         331
  C:27A4H         LINE#         336
  C:27A6H         LINE#         338
  C:27A8H         LINE#         342
  C:1FDDH         LINE#         355
  C:1FDFH         LINE#         356
  C:1FE1H         LINE#         357
  C:1FE3H         LINE#         358
  C:1FE6H         LINE#         361
  C:1FE8H         LINE#         363
  C:1FEAH         LINE#         365
  C:1FEDH         LINE#         367
  C:1FEFH         LINE#         369
  C:1FF1H         LINE#         374
  C:1FF4H         LINE#         376
  C:1FF6H         LINE#         380
  C:1FF8H         LINE#         381
  C:1FF9H         LINE#         382
  C:1FFBH         LINE#         383
  C:1FFDH         LINE#         384
  C:2000H         LINE#         385
  C:2001H         LINE#         386
  C:2002H         LINE#         391
  C:2004H         LINE#         393
  C:2006H         LINE#         397
  C:273DH         LINE#         410
  C:273FH         LINE#         411
  C:2741H         LINE#         412
  C:2743H         LINE#         413
  C:2746H         LINE#         416
  C:2748H         LINE#         418
  C:274AH         LINE#         420
  C:274DH         LINE#         422
  C:274FH         LINE#         424
  C:2751H         LINE#         429
  C:2752H         LINE#         431
  C:2753H         LINE#         435
  C:2756H         LINE#         436
  C:2759H         LINE#         437
  C:275AH         LINE#         438
  C:275BH         LINE#         443
  C:275DH         LINE#         445
  C:275FH         LINE#         449
  C:2009H         LINE#         462
  C:200BH         LINE#         463
  C:200DH         LINE#         464
  C:200FH         LINE#         465
  C:2012H         LINE#         468
  C:2014H         LINE#         470
  C:2016H         LINE#         472
  C:2019H         LINE#         474
  C:201BH         LINE#         476
  C:201DH         LINE#         481
BL51 BANKED LINKER/LOCATER V6.22                                                      07/21/2014  16:39:35  PAGE 33


  C:2020H         LINE#         483
  C:2022H         LINE#         487
  C:2024H         LINE#         488
  C:2025H         LINE#         489
  C:2027H         LINE#         490
  C:2029H         LINE#         491
  C:202CH         LINE#         492
  C:202DH         LINE#         493
  C:202EH         LINE#         498
  C:2030H         LINE#         500
  C:2032H         LINE#         504
  C:246EH         LINE#         517
  C:2470H         LINE#         518
  C:2472H         LINE#         519
  C:2474H         LINE#         520
  C:2477H         LINE#         523
  C:2479H         LINE#         525
  C:247BH         LINE#         527
  C:247EH         LINE#         529
  C:2480H         LINE#         531
  C:2482H         LINE#         536
  C:2485H         LINE#         538
  C:2486H         LINE#         540
  C:2488H         LINE#         544
  C:248BH         LINE#         545
  C:248EH         LINE#         546
  C:248FH         LINE#         547
  C:2490H         LINE#         552
  C:2492H         LINE#         554
  C:2494H         LINE#         558
  C:2497H         LINE#         571
  C:2499H         LINE#         572
  C:249BH         LINE#         573
  C:249DH         LINE#         574
  C:24A0H         LINE#         577
  C:24A2H         LINE#         579
  C:24A4H         LINE#         581
  C:24A7H         LINE#         583
  C:24A9H         LINE#         585
  C:24ABH         LINE#         590
  C:24AEH         LINE#         592
  C:24AFH         LINE#         594
  C:24B1H         LINE#         598
  C:24B4H         LINE#         599
  C:24B7H         LINE#         600
  C:24B8H         LINE#         601
  C:24B9H         LINE#         606
  C:24BBH         LINE#         608
  C:24BDH         LINE#         612
  C:24C0H         LINE#         625
  C:24C2H         LINE#         626
  C:24C4H         LINE#         627
  C:24C6H         LINE#         628
  C:24C9H         LINE#         631
  C:24CBH         LINE#         633
  C:24CDH         LINE#         635
  C:24D0H         LINE#         637
BL51 BANKED LINKER/LOCATER V6.22                                                      07/21/2014  16:39:35  PAGE 34


  C:24D2H         LINE#         639
  C:24D4H         LINE#         644
  C:24D7H         LINE#         646
  C:24D8H         LINE#         648
  C:24DAH         LINE#         652
  C:24DDH         LINE#         653
  C:24E0H         LINE#         654
  C:24E1H         LINE#         655
  C:24E2H         LINE#         660
  C:24E4H         LINE#         662
  C:24E6H         LINE#         666
  C:24E9H         LINE#         679
  C:24EBH         LINE#         680
  C:24EDH         LINE#         681
  C:24EFH         LINE#         682
  C:24F2H         LINE#         685
  C:24F4H         LINE#         687
  C:24F6H         LINE#         689
  C:24F9H         LINE#         691
  C:24FBH         LINE#         693
  C:24FDH         LINE#         698
  C:2500H         LINE#         700
  C:2501H         LINE#         702
  C:2503H         LINE#         706
  C:2506H         LINE#         707
  C:2509H         LINE#         708
  C:250AH         LINE#         709
  C:250BH         LINE#         714
  C:250DH         LINE#         716
  C:250FH         LINE#         720
  C:2512H         LINE#         733
  C:2514H         LINE#         734
  C:2516H         LINE#         735
  C:2518H         LINE#         736
  C:251BH         LINE#         739
  C:251DH         LINE#         741
  C:251FH         LINE#         743
  C:2522H         LINE#         745
  C:2524H         LINE#         747
  C:2526H         LINE#         752
  C:2529H         LINE#         754
  C:252AH         LINE#         756
  C:252CH         LINE#         760
  C:252FH         LINE#         761
  C:2532H         LINE#         762
  C:2533H         LINE#         763
  C:2534H         LINE#         768
  C:2536H         LINE#         770
  C:2538H         LINE#         774
  C:1EA3H         LINE#         787
  C:1EA5H         LINE#         788
  C:1EA7H         LINE#         789
  C:1EA9H         LINE#         790
  C:1EACH         LINE#         793
  C:1EAEH         LINE#         795
  C:1EB0H         LINE#         797
  C:1EB3H         LINE#         799
BL51 BANKED LINKER/LOCATER V6.22                                                      07/21/2014  16:39:35  PAGE 35


  C:1EB5H         LINE#         801
  C:1EB7H         LINE#         806
  C:1EBAH         LINE#         808
  C:1EBBH         LINE#         810
  C:1EBDH         LINE#         814
  C:1EBFH         LINE#         815
  C:1EC0H         LINE#         816
  C:1EC2H         LINE#         817
  C:1EC4H         LINE#         818
  C:1EC7H         LINE#         819
  C:1EC8H         LINE#         820
  C:1EC9H         LINE#         825
  C:1ECBH         LINE#         827
  C:1ECDH         LINE#         831
  C:1410H         LINE#         844
  C:1412H         LINE#         845
  C:1414H         LINE#         846
  C:1416H         LINE#         847
  C:1419H         LINE#         850
  C:141BH         LINE#         852
  C:141DH         LINE#         854
  C:1420H         LINE#         856
  C:1422H         LINE#         858
  C:1424H         LINE#         863
  C:1425H         LINE#         865
  C:1427H         LINE#         867
  C:1428H         LINE#         869
  C:142AH         LINE#         871
  C:142BH         LINE#         873
  C:142CH         LINE#         875
  C:142DH         LINE#         877
  C:142EH         LINE#         879
  C:1430H         LINE#         881
  C:1431H         LINE#         883
  C:1432H         LINE#         885
  C:1434H         LINE#         887
  C:1436H         LINE#         889
  C:1437H         LINE#         891
  C:1438H         LINE#         893
  C:1439H         LINE#         897
  C:143AH         LINE#         898
  C:143CH         LINE#         899
  C:143FH         LINE#         900
  C:1440H         LINE#         901
  C:1441H         LINE#         906
  C:1443H         LINE#         908
  C:1444H         LINE#         910
  C:1445H         LINE#         912
  C:1446H         LINE#         914
  C:1447H         LINE#         916
  C:1449H         LINE#         918
  C:144AH         LINE#         920
  C:144BH         LINE#         922
  C:144DH         LINE#         924
  C:144FH         LINE#         926
  C:1450H         LINE#         928
  C:1451H         LINE#         930
BL51 BANKED LINKER/LOCATER V6.22                                                      07/21/2014  16:39:35  PAGE 36


  C:1452H         LINE#         932
  C:1453H         LINE#         934
  C:1454H         LINE#         936
  C:1456H         LINE#         938
  C:1457H         LINE#         940
  C:1459H         LINE#         942
  C:145AH         LINE#         944
  C:145BH         LINE#         946
  C:145CH         LINE#         950
  C:145DH         LINE#         951
  C:145FH         LINE#         952
  C:1462H         LINE#         953
  C:1463H         LINE#         954
  C:1464H         LINE#         959
  C:1466H         LINE#         961
  C:1468H         LINE#         965
  C:146BH         LINE#         978
  C:146DH         LINE#         979
  C:146FH         LINE#         980
  C:1471H         LINE#         981
  C:1474H         LINE#         984
  C:1476H         LINE#         986
  C:1478H         LINE#         988
  C:147BH         LINE#         990
  C:147DH         LINE#         992
  C:147FH         LINE#         997
  C:1480H         LINE#         999
  C:1482H         LINE#         1001
  C:1483H         LINE#         1003
  C:1485H         LINE#         1005
  C:1486H         LINE#         1007
  C:1487H         LINE#         1009
  C:1488H         LINE#         1011
  C:1489H         LINE#         1013
  C:148BH         LINE#         1015
  C:148CH         LINE#         1017
  C:148DH         LINE#         1019
  C:148FH         LINE#         1021
  C:1491H         LINE#         1023
  C:1492H         LINE#         1025
  C:1493H         LINE#         1027
  C:1494H         LINE#         1031
  C:1495H         LINE#         1032
  C:1497H         LINE#         1033
  C:149AH         LINE#         1034
  C:149BH         LINE#         1035
  C:149CH         LINE#         1040
  C:149EH         LINE#         1042
  C:149FH         LINE#         1044
  C:14A0H         LINE#         1046
  C:14A1H         LINE#         1048
  C:14A2H         LINE#         1050
  C:14A4H         LINE#         1052
  C:14A5H         LINE#         1054
  C:14A6H         LINE#         1056
  C:14A8H         LINE#         1058
  C:14AAH         LINE#         1060
BL51 BANKED LINKER/LOCATER V6.22                                                      07/21/2014  16:39:35  PAGE 37


  C:14ABH         LINE#         1062
  C:14ACH         LINE#         1064
  C:14ADH         LINE#         1066
  C:14AEH         LINE#         1068
  C:14AFH         LINE#         1070
  C:14B1H         LINE#         1072
  C:14B2H         LINE#         1074
  C:14B4H         LINE#         1076
  C:14B5H         LINE#         1078
  C:14B6H         LINE#         1080
  C:14B7H         LINE#         1084
  C:14B8H         LINE#         1085
  C:14BAH         LINE#         1086
  C:14BDH         LINE#         1087
  C:14BEH         LINE#         1088
  C:14BFH         LINE#         1093
  C:14C1H         LINE#         1095
  C:14C3H         LINE#         1099
  C:1346H         LINE#         1112
  C:1348H         LINE#         1113
  C:134AH         LINE#         1114
  C:134CH         LINE#         1115
  C:134FH         LINE#         1118
  C:1351H         LINE#         1120
  C:1353H         LINE#         1122
  C:1356H         LINE#         1124
  C:1358H         LINE#         1126
  C:135AH         LINE#         1131
  C:135DH         LINE#         1133
  C:1360H         LINE#         1135
  C:1362H         LINE#         1137
  C:1365H         LINE#         1139
  C:1366H         LINE#         1141
  C:1367H         LINE#         1143
  C:1368H         LINE#         1145
  C:1369H         LINE#         1147
  C:136BH         LINE#         1149
  C:136CH         LINE#         1151
  C:136DH         LINE#         1153
  C:136FH         LINE#         1155
  C:1371H         LINE#         1157
  C:1372H         LINE#         1159
  C:1373H         LINE#         1161
  C:1374H         LINE#         1165
  C:1375H         LINE#         1166
  C:1377H         LINE#         1167
  C:137AH         LINE#         1168
  C:137BH         LINE#         1169
  C:137CH         LINE#         1174
  C:137EH         LINE#         1176
  C:137FH         LINE#         1178
  C:1380H         LINE#         1180
  C:1381H         LINE#         1182
  C:1382H         LINE#         1184
  C:1384H         LINE#         1186
  C:1385H         LINE#         1188
  C:1386H         LINE#         1190
BL51 BANKED LINKER/LOCATER V6.22                                                      07/21/2014  16:39:35  PAGE 38


  C:1388H         LINE#         1192
  C:138AH         LINE#         1194
  C:138BH         LINE#         1196
  C:138CH         LINE#         1198
  C:138DH         LINE#         1200
  C:138EH         LINE#         1202
  C:1391H         LINE#         1204
  C:1394H         LINE#         1206
  C:1396H         LINE#         1208
  C:1399H         LINE#         1210
  C:139AH         LINE#         1212
  C:139BH         LINE#         1214
  C:139CH         LINE#         1218
  C:139DH         LINE#         1219
  C:139FH         LINE#         1220
  C:13A2H         LINE#         1221
  C:13A3H         LINE#         1222
  C:13A4H         LINE#         1227
  C:13A6H         LINE#         1229
  C:13A8H         LINE#         1233
  C:13ABH         LINE#         1246
  C:13ADH         LINE#         1247
  C:13AFH         LINE#         1248
  C:13B1H         LINE#         1249
  C:13B4H         LINE#         1252
  C:13B6H         LINE#         1254
  C:13B8H         LINE#         1256
  C:13BBH         LINE#         1258
  C:13BDH         LINE#         1260
  C:13BFH         LINE#         1265
  C:13C2H         LINE#         1267
  C:13C5H         LINE#         1269
  C:13C7H         LINE#         1271
  C:13CAH         LINE#         1273
  C:13CBH         LINE#         1275
  C:13CCH         LINE#         1277
  C:13CDH         LINE#         1279
  C:13CEH         LINE#         1281
  C:13D0H         LINE#         1283
  C:13D1H         LINE#         1285
  C:13D2H         LINE#         1287
  C:13D4H         LINE#         1289
  C:13D6H         LINE#         1291
  C:13D7H         LINE#         1293
  C:13D8H         LINE#         1295
  C:13D9H         LINE#         1299
  C:13DAH         LINE#         1300
  C:13DCH         LINE#         1301
  C:13DFH         LINE#         1302
  C:13E0H         LINE#         1303
  C:13E1H         LINE#         1308
  C:13E3H         LINE#         1310
  C:13E4H         LINE#         1312
  C:13E5H         LINE#         1314
  C:13E6H         LINE#         1316
  C:13E7H         LINE#         1318
  C:13E9H         LINE#         1320
BL51 BANKED LINKER/LOCATER V6.22                                                      07/21/2014  16:39:35  PAGE 39


  C:13EAH         LINE#         1322
  C:13EBH         LINE#         1324
  C:13EDH         LINE#         1326
  C:13EFH         LINE#         1328
  C:13F0H         LINE#         1330
  C:13F1H         LINE#         1332
  C:13F2H         LINE#         1334
  C:13F3H         LINE#         1336
  C:13F6H         LINE#         1338
  C:13F9H         LINE#         1340
  C:13FBH         LINE#         1342
  C:13FEH         LINE#         1344
  C:13FFH         LINE#         1346
  C:1400H         LINE#         1348
  C:1401H         LINE#         1352
  C:1402H         LINE#         1353
  C:1404H         LINE#         1354
  C:1407H         LINE#         1355
  C:1408H         LINE#         1356
  C:1409H         LINE#         1361
  C:140BH         LINE#         1363
  C:140DH         LINE#         1367
  C:11EBH         LINE#         1380
  C:11EDH         LINE#         1381
  C:11EFH         LINE#         1382
  C:11F1H         LINE#         1383
  C:11F4H         LINE#         1386
  C:11F6H         LINE#         1388
  C:11F8H         LINE#         1390
  C:11FBH         LINE#         1392
  C:11FDH         LINE#         1394
  C:11FFH         LINE#         1399
  C:1202H         LINE#         1401
  C:1205H         LINE#         1403
  C:1207H         LINE#         1405
  C:120AH         LINE#         1407
  C:120BH         LINE#         1409
  C:120CH         LINE#         1411
  C:120DH         LINE#         1413
  C:120EH         LINE#         1415
  C:1210H         LINE#         1417
  C:1211H         LINE#         1419
  C:1212H         LINE#         1421
  C:1214H         LINE#         1423
  C:1216H         LINE#         1425
  C:1217H         LINE#         1427
  C:1218H         LINE#         1429
  C:1219H         LINE#         1433
  C:121AH         LINE#         1434
  C:121CH         LINE#         1435
  C:121FH         LINE#         1436
  C:1220H         LINE#         1437
  C:1221H         LINE#         1441
  C:1223H         LINE#         1442
  C:1224H         LINE#         1443
  C:1226H         LINE#         1444
  C:1228H         LINE#         1445
BL51 BANKED LINKER/LOCATER V6.22                                                      07/21/2014  16:39:35  PAGE 40


  C:122BH         LINE#         1446
  C:122CH         LINE#         1447
  C:122DH         LINE#         1452
  C:122FH         LINE#         1454
  C:1230H         LINE#         1456
  C:1231H         LINE#         1458
  C:1232H         LINE#         1460
  C:1233H         LINE#         1462
  C:1235H         LINE#         1464
  C:1236H         LINE#         1466
  C:1237H         LINE#         1468
  C:1239H         LINE#         1470
  C:123BH         LINE#         1472
  C:123CH         LINE#         1474
  C:123DH         LINE#         1476
  C:123EH         LINE#         1478
  C:123FH         LINE#         1480
  C:1242H         LINE#         1482
  C:1245H         LINE#         1484
  C:1247H         LINE#         1486
  C:124AH         LINE#         1488
  C:124BH         LINE#         1490
  C:124CH         LINE#         1492
  C:124DH         LINE#         1496
  C:124EH         LINE#         1497
  C:1250H         LINE#         1498
  C:1253H         LINE#         1499
  C:1254H         LINE#         1500
  C:1255H         LINE#         1504
  C:1257H         LINE#         1505
  C:1258H         LINE#         1506
  C:125AH         LINE#         1507
  C:125CH         LINE#         1508
  C:125FH         LINE#         1509
  C:1260H         LINE#         1510
  C:1261H         LINE#         1515
  C:1263H         LINE#         1517
  C:1265H         LINE#         1521
  -------         ENDMOD        BOOLEAN

  -------         MODULE        TRANSFER
  C:239CH         SEGMENT       ?PR?MOV_A_RN?TRANSFER
  C:2219H         SEGMENT       ?PR?MOV_A_DI?TRANSFER
  C:2035H         SEGMENT       ?PR?MOV_A_RI?TRANSFER
  C:26F2H         SEGMENT       ?PR?MOV_A_DA?TRANSFER
  C:2244H         SEGMENT       ?PR?MOV_RN_A?TRANSFER
  C:226FH         SEGMENT       ?PR?MOV_RN_DI?TRANSFER
  C:253BH         SEGMENT       ?PR?MOV_RN_DA?TRANSFER
  C:229AH         SEGMENT       ?PR?MOV_DI_A?TRANSFER
  C:22C5H         SEGMENT       ?PR?MOV_DI_RN?TRANSFER
  C:2061H         SEGMENT       ?PR?MOV_DI_DI?TRANSFER
  C:1ED0H         SEGMENT       ?PR?MOV_DI_RI?TRANSFER
  C:23C6H         SEGMENT       ?PR?MOV_DI_DA?TRANSFER
  C:208DH         SEGMENT       ?PR?MOV_RI_A?TRANSFER
  C:1EFDH         SEGMENT       ?PR?MOV_RI_DI?TRANSFER
  C:22F0H         SEGMENT       ?PR?MOV_RI_DA?TRANSFER
  C:1C67H         SEGMENT       ?PR?MOV_DP_DA?TRANSFER
BL51 BANKED LINKER/LOCATER V6.22                                                      07/21/2014  16:39:35  PAGE 41


  C:1CFFH         SEGMENT       ?PR?MOVC_A_DP?TRANSFER
  C:1D5FH         SEGMENT       ?PR?MOVC_A_PC?TRANSFER
  C:20B9H         SEGMENT       ?PR?MOVX_A_RI?TRANSFER
  C:1F2AH         SEGMENT       ?PR?MOVX_A_DP?TRANSFER
  C:20E5H         SEGMENT       ?PR?MOVX_RI_A?TRANSFER
  C:1F57H         SEGMENT       ?PR?MOVX_DP_A?TRANSFER
  C:1A2EH         SEGMENT       ?PR?PUSH_DI?TRANSFER
  C:1A6AH         SEGMENT       ?PR?POP_DI?TRANSFER
  C:1C32H         SEGMENT       ?PR?XCH_A_RN?TRANSFER
  C:1BFBH         SEGMENT       ?PR?XCH_A_DI?TRANSFER
  C:1B8BH         SEGMENT       ?PR?XCH_A_RI?TRANSFER
  C:1BC3H         SEGMENT       ?PR?XCHD_A_RI?TRANSFER
  C:035FH         SEGMENT       ?CO?TRANSFER
  C:1CFFH         PUBLIC        MOVC_A_DP
  C:1D5FH         PUBLIC        MOVC_A_PC
  C:1F2AH         PUBLIC        MOVX_A_DP
  C:20B9H         PUBLIC        MOVX_A_RI
  C:1F57H         PUBLIC        MOVX_DP_A
  C:20E5H         PUBLIC        MOVX_RI_A
  C:26F2H         PUBLIC        MOV_A_DA
  C:2219H         PUBLIC        MOV_A_DI
  C:2035H         PUBLIC        MOV_A_RI
  C:239CH         PUBLIC        MOV_A_RN
  C:229AH         PUBLIC        MOV_DI_A
  C:23C6H         PUBLIC        MOV_DI_DA
  C:2061H         PUBLIC        MOV_DI_DI
  C:1ED0H         PUBLIC        MOV_DI_RI
  C:22C5H         PUBLIC        MOV_DI_RN
  C:1C67H         PUBLIC        MOV_DP_DA
  C:208DH         PUBLIC        MOV_RI_A
  C:22F0H         PUBLIC        MOV_RI_DA
  C:1EFDH         PUBLIC        MOV_RI_DI
  C:2244H         PUBLIC        MOV_RN_A
  C:253BH         PUBLIC        MOV_RN_DA
  C:226FH         PUBLIC        MOV_RN_DI
  C:1A6AH         PUBLIC        POP_DI
  C:1A2EH         PUBLIC        PUSH_DI
  C:1BC3H         PUBLIC        XCHD_A_RI
  C:1BFBH         PUBLIC        XCH_A_DI
  C:1B8BH         PUBLIC        XCH_A_RI
  C:1C32H         PUBLIC        XCH_A_RN
  C:23BFH         SYMBOL        ?C0001
  C:223DH         SYMBOL        ?C0003
  C:205AH         SYMBOL        ?C0005
  C:2711H         SYMBOL        ?C0007
  C:2268H         SYMBOL        ?C0009
  C:2293H         SYMBOL        ?C0011
  C:255DH         SYMBOL        ?C0013
  C:22BEH         SYMBOL        ?C0015
  C:22E9H         SYMBOL        ?C0017
  C:2086H         SYMBOL        ?C0019
  C:1EF6H         SYMBOL        ?C0021
  C:23E9H         SYMBOL        ?C0023
  C:20B2H         SYMBOL        ?C0025
  C:1F23H         SYMBOL        ?C0027
  C:2314H         SYMBOL        ?C0029
  C:1C89H         SYMBOL        ?C0031
BL51 BANKED LINKER/LOCATER V6.22                                                      07/21/2014  16:39:35  PAGE 42


  C:1C94H         SYMBOL        ?C0032
  C:1D29H         SYMBOL        ?C0034
  C:1D87H         SYMBOL        ?C0036
  C:20DEH         SYMBOL        ?C0038
  C:1F50H         SYMBOL        ?C0040
  C:210AH         SYMBOL        ?C0042
  C:1F7DH         SYMBOL        ?C0044
  C:1A56H         SYMBOL        ?C0046
  C:1A61H         SYMBOL        ?C0047
  C:1A92H         SYMBOL        ?C0049
  C:1A9EH         SYMBOL        ?C0050
  C:1C55H         SYMBOL        ?C0052
  C:1C60H         SYMBOL        ?C0053
  C:1C1FH         SYMBOL        ?C0055
  C:1C2BH         SYMBOL        ?C0056
  C:1BB0H         SYMBOL        ?C0058
  C:1BBCH         SYMBOL        ?C0059
  C:1BE8H         SYMBOL        ?C0061
  C:1BF4H         SYMBOL        ?C0062
  C:035FH         SYMBOL        ?SC_0
  C:0369H         SYMBOL        ?SC_10
  C:03C7H         SYMBOL        ?SC_104
  C:03D2H         SYMBOL        ?SC_115
  C:03DDH         SYMBOL        ?SC_126
  C:03E7H         SYMBOL        ?SC_136
  C:03F2H         SYMBOL        ?SC_147
  C:03FDH         SYMBOL        ?SC_158
  C:0408H         SYMBOL        ?SC_169
  C:0413H         SYMBOL        ?SC_180
  C:041EH         SYMBOL        ?SC_191
  C:0373H         SYMBOL        ?SC_20
  C:0429H         SYMBOL        ?SC_202
  C:0434H         SYMBOL        ?SC_213
  C:043FH         SYMBOL        ?SC_224
  C:044AH         SYMBOL        ?SC_235
  C:0453H         SYMBOL        ?SC_244
  C:045BH         SYMBOL        ?SC_252
  C:0465H         SYMBOL        ?SC_262
  C:046FH         SYMBOL        ?SC_272
  C:0479H         SYMBOL        ?SC_282
  C:037DH         SYMBOL        ?SC_30
  C:0387H         SYMBOL        ?SC_40
  C:0391H         SYMBOL        ?SC_50
  C:039CH         SYMBOL        ?SC_61
  C:03A7H         SYMBOL        ?SC_72
  C:03B1H         SYMBOL        ?SC_82
  C:03BCH         SYMBOL        ?SC_93
  B:00D0H.6       SYMBOL        AC
  D:00E0H         SYMBOL        ACC
  D:00F0H         SYMBOL        B
  B:00C8H.0       SYMBOL        CP_RL2
  B:00D0H.7       SYMBOL        CY
  B:00C8H.1       SYMBOL        C_T2
  D:0083H         SYMBOL        DPH
  D:0082H         SYMBOL        DPL
  B:00A8H.7       SYMBOL        EA
  B:00A8H.4       SYMBOL        ES
BL51 BANKED LINKER/LOCATER V6.22                                                      07/21/2014  16:39:35  PAGE 43


  B:00A8H.1       SYMBOL        ET0
  B:00A8H.3       SYMBOL        ET1
  B:00A8H.5       SYMBOL        ET2
  B:00A8H.0       SYMBOL        EX0
  B:00A8H.2       SYMBOL        EX1
  B:00C8H.3       SYMBOL        EXEN2
  B:00C8H.6       SYMBOL        EXF2
  C:1D1FH         SYMBOL        EXIT_MOVC_A_DP
  C:1D7DH         SYMBOL        EXIT_MOVC_A_PC
  B:00D0H.5       SYMBOL        F0
  D:00A8H         SYMBOL        IE
  B:0088H.1       SYMBOL        IE0
  B:0088H.3       SYMBOL        IE1
  B:00B0H.2       SYMBOL        INT0
  B:00B0H.3       SYMBOL        INT1
  D:00B8H         SYMBOL        IP
  B:0088H.0       SYMBOL        IT0
  B:0088H.2       SYMBOL        IT1
  B:00D0H.2       SYMBOL        OV
  B:00D0H.0       SYMBOL        P
  D:0080H         SYMBOL        P0
  D:0090H         SYMBOL        P1
  D:00A0H         SYMBOL        P2
  D:00B0H         SYMBOL        P3
  D:0087H         SYMBOL        PCON
  C:1D1CH         SYMBOL        POINT_MOVC_A_DP
  B:00B8H.4       SYMBOL        PS
  D:00D0H         SYMBOL        PSW
  B:00B8H.1       SYMBOL        PT0
  B:00B8H.3       SYMBOL        PT1
  B:00B8H.5       SYMBOL        PT2
  B:00B8H.0       SYMBOL        PX0
  B:00B8H.2       SYMBOL        PX1
  B:0098H.2       SYMBOL        RB8
  D:00CBH         SYMBOL        RCAP2H
  D:00CAH         SYMBOL        RCAP2L
  B:00C8H.5       SYMBOL        RCLK
  B:00B0H.7       SYMBOL        RD
  B:0098H.4       SYMBOL        REN
  B:0098H.0       SYMBOL        RI
  B:00D0H.3       SYMBOL        RS0
  B:00D0H.4       SYMBOL        RS1
  B:00B0H.0       SYMBOL        RXD
  D:0099H         SYMBOL        SBUF
  D:0098H         SYMBOL        SCON
  B:0098H.7       SYMBOL        SM0
  B:0098H.6       SYMBOL        SM1
  B:0098H.5       SYMBOL        SM2
  D:0081H         SYMBOL        SP
  B:00B0H.4       SYMBOL        T0
  B:00B0H.5       SYMBOL        T1
  B:0090H.0       SYMBOL        T2
  D:00C8H         SYMBOL        T2CON
  B:0090H.1       SYMBOL        T2EX
  B:0098H.3       SYMBOL        TB8
  B:00C8H.4       SYMBOL        TCLK
  D:0088H         SYMBOL        TCON
BL51 BANKED LINKER/LOCATER V6.22                                                      07/21/2014  16:39:35  PAGE 44


  B:0088H.5       SYMBOL        TF0
  B:0088H.7       SYMBOL        TF1
  B:00C8H.7       SYMBOL        TF2
  D:008CH         SYMBOL        TH0
  D:008DH         SYMBOL        TH1
  D:00CDH         SYMBOL        TH2
  B:0098H.1       SYMBOL        TI
  D:008AH         SYMBOL        TL0
  D:008BH         SYMBOL        TL1
  D:00CCH         SYMBOL        TL2
  D:0089H         SYMBOL        TMOD
  B:0088H.4       SYMBOL        TR0
  B:0088H.6       SYMBOL        TR1
  B:00C8H.2       SYMBOL        TR2
  N:0000H         SYMBOL        TRANSFER
  B:00B0H.1       SYMBOL        TXD
  B:00B0H.6       SYMBOL        WR
  C:239CH         LINE#         263
  C:239EH         LINE#         264
  C:23A0H         LINE#         265
  C:23A2H         LINE#         266
  C:23A5H         LINE#         269
  C:23A7H         LINE#         271
  C:23A9H         LINE#         273
  C:23ACH         LINE#         275
  C:23AEH         LINE#         277
  C:23B0H         LINE#         282
  C:23B3H         LINE#         284
  C:23B5H         LINE#         286
  C:23B6H         LINE#         290
  C:23B8H         LINE#         291
  C:23BAH         LINE#         292
  C:23BDH         LINE#         293
  C:23BEH         LINE#         294
  C:23BFH         LINE#         299
  C:23C1H         LINE#         301
  C:23C3H         LINE#         305
  C:2219H         LINE#         318
  C:221BH         LINE#         319
  C:221DH         LINE#         320
  C:221FH         LINE#         321
  C:2222H         LINE#         324
  C:2224H         LINE#         326
  C:2226H         LINE#         328
  C:2229H         LINE#         330
  C:222BH         LINE#         332
  C:222DH         LINE#         337
  C:2230H         LINE#         339
  C:2232H         LINE#         341
  C:2234H         LINE#         345
  C:2236H         LINE#         346
  C:2238H         LINE#         347
  C:223BH         LINE#         348
  C:223CH         LINE#         349
  C:223DH         LINE#         354
  C:223FH         LINE#         356
  C:2241H         LINE#         360
BL51 BANKED LINKER/LOCATER V6.22                                                      07/21/2014  16:39:35  PAGE 45


  C:2035H         LINE#         373
  C:2037H         LINE#         374
  C:2039H         LINE#         375
  C:203BH         LINE#         376
  C:203EH         LINE#         379
  C:2040H         LINE#         381
  C:2042H         LINE#         383
  C:2045H         LINE#         385
  C:2047H         LINE#         387
  C:2049H         LINE#         392
  C:204CH         LINE#         394
  C:204EH         LINE#         396
  C:2050H         LINE#         398
  C:2051H         LINE#         402
  C:2053H         LINE#         403
  C:2055H         LINE#         404
  C:2058H         LINE#         405
  C:2059H         LINE#         406
  C:205AH         LINE#         411
  C:205CH         LINE#         413
  C:205EH         LINE#         417
  C:26F2H         LINE#         430
  C:26F4H         LINE#         431
  C:26F6H         LINE#         432
  C:26F8H         LINE#         433
  C:26FBH         LINE#         436
  C:26FDH         LINE#         438
  C:26FFH         LINE#         440
  C:2702H         LINE#         442
  C:2704H         LINE#         444
  C:2706H         LINE#         449
  C:2708H         LINE#         453
  C:270AH         LINE#         454
  C:270CH         LINE#         455
  C:270FH         LINE#         456
  C:2710H         LINE#         457
  C:2711H         LINE#         462
  C:2713H         LINE#         464
  C:2715H         LINE#         468
  C:2244H         LINE#         481
  C:2246H         LINE#         482
  C:2248H         LINE#         483
  C:224AH         LINE#         484
  C:224DH         LINE#         487
  C:224FH         LINE#         489
  C:2251H         LINE#         491
  C:2254H         LINE#         493
  C:2256H         LINE#         495
  C:2258H         LINE#         500
  C:225BH         LINE#         502
  C:225CH         LINE#         506
  C:225EH         LINE#         507
  C:225FH         LINE#         508
  C:2261H         LINE#         509
  C:2263H         LINE#         510
  C:2266H         LINE#         511
  C:2267H         LINE#         512
BL51 BANKED LINKER/LOCATER V6.22                                                      07/21/2014  16:39:35  PAGE 46


  C:2268H         LINE#         517
  C:226AH         LINE#         519
  C:226CH         LINE#         523
  C:226FH         LINE#         536
  C:2271H         LINE#         537
  C:2273H         LINE#         538
  C:2275H         LINE#         539
  C:2278H         LINE#         542
  C:227AH         LINE#         544
  C:227CH         LINE#         546
  C:227FH         LINE#         548
  C:2281H         LINE#         550
  C:2283H         LINE#         555
  C:2285H         LINE#         557
  C:2287H         LINE#         561
  C:2289H         LINE#         562
  C:228AH         LINE#         563
  C:228CH         LINE#         564
  C:228EH         LINE#         565
  C:2291H         LINE#         566
  C:2292H         LINE#         567
  C:2293H         LINE#         572
  C:2295H         LINE#         574
  C:2297H         LINE#         578
  C:253BH         LINE#         591
  C:253DH         LINE#         592
  C:253FH         LINE#         593
  C:2541H         LINE#         594
  C:2544H         LINE#         597
  C:2546H         LINE#         599
  C:2548H         LINE#         601
  C:254BH         LINE#         603
  C:254DH         LINE#         605
  C:254FH         LINE#         610
  C:2551H         LINE#         614
  C:2553H         LINE#         615
  C:2554H         LINE#         616
  C:2556H         LINE#         617
  C:2558H         LINE#         618
  C:255BH         LINE#         619
  C:255CH         LINE#         620
  C:255DH         LINE#         625
  C:255FH         LINE#         627
  C:2561H         LINE#         631
  C:229AH         LINE#         644
  C:229CH         LINE#         645
  C:229EH         LINE#         646
  C:22A0H         LINE#         647
  C:22A3H         LINE#         650
  C:22A5H         LINE#         652
  C:22A7H         LINE#         654
  C:22AAH         LINE#         656
  C:22ACH         LINE#         658
  C:22AEH         LINE#         663
  C:22B0H         LINE#         665
  C:22B2H         LINE#         669
  C:22B4H         LINE#         670
BL51 BANKED LINKER/LOCATER V6.22                                                      07/21/2014  16:39:35  PAGE 47


  C:22B5H         LINE#         671
  C:22B7H         LINE#         672
  C:22B9H         LINE#         673
  C:22BCH         LINE#         674
  C:22BDH         LINE#         675
  C:22BEH         LINE#         680
  C:22C0H         LINE#         682
  C:22C2H         LINE#         686
  C:22C5H         LINE#         699
  C:22C7H         LINE#         700
  C:22C9H         LINE#         701
  C:22CBH         LINE#         702
  C:22CEH         LINE#         705
  C:22D0H         LINE#         707
  C:22D2H         LINE#         709
  C:22D5H         LINE#         711
  C:22D7H         LINE#         713
  C:22D9H         LINE#         718
  C:22DBH         LINE#         720
  C:22DDH         LINE#         724
  C:22DFH         LINE#         725
  C:22E0H         LINE#         726
  C:22E2H         LINE#         727
  C:22E4H         LINE#         728
  C:22E7H         LINE#         729
  C:22E8H         LINE#         730
  C:22E9H         LINE#         735
  C:22EBH         LINE#         737
  C:22EDH         LINE#         741
  C:2061H         LINE#         754
  C:2063H         LINE#         755
  C:2065H         LINE#         756
  C:2067H         LINE#         757
  C:206AH         LINE#         760
  C:206CH         LINE#         762
  C:206EH         LINE#         764
  C:2071H         LINE#         766
  C:2073H         LINE#         768
  C:2075H         LINE#         773
  C:2077H         LINE#         775
  C:207AH         LINE#         779
  C:207CH         LINE#         780
  C:207DH         LINE#         781
  C:207FH         LINE#         782
  C:2081H         LINE#         783
  C:2084H         LINE#         784
  C:2085H         LINE#         785
  C:2086H         LINE#         790
  C:2088H         LINE#         792
  C:208AH         LINE#         796
  C:1ED0H         LINE#         809
  C:1ED2H         LINE#         810
  C:1ED4H         LINE#         811
  C:1ED6H         LINE#         812
  C:1ED9H         LINE#         815
  C:1EDBH         LINE#         817
  C:1EDDH         LINE#         819
BL51 BANKED LINKER/LOCATER V6.22                                                      07/21/2014  16:39:35  PAGE 48


  C:1EE0H         LINE#         821
  C:1EE2H         LINE#         823
  C:1EE4H         LINE#         828
  C:1EE6H         LINE#         830
  C:1EE8H         LINE#         832
  C:1EEAH         LINE#         836
  C:1EECH         LINE#         837
  C:1EEDH         LINE#         838
  C:1EEFH         LINE#         839
  C:1EF1H         LINE#         840
  C:1EF4H         LINE#         841
  C:1EF5H         LINE#         842
  C:1EF6H         LINE#         847
  C:1EF8H         LINE#         849
  C:1EFAH         LINE#         853
  C:23C6H         LINE#         866
  C:23C8H         LINE#         867
  C:23CAH         LINE#         868
  C:23CCH         LINE#         869
  C:23CFH         LINE#         872
  C:23D1H         LINE#         874
  C:23D3H         LINE#         876
  C:23D6H         LINE#         878
  C:23D8H         LINE#         880
  C:23DAH         LINE#         885
  C:23DDH         LINE#         889
  C:23DFH         LINE#         890
  C:23E0H         LINE#         891
  C:23E2H         LINE#         892
  C:23E4H         LINE#         893
  C:23E7H         LINE#         894
  C:23E8H         LINE#         895
  C:23E9H         LINE#         900
  C:23EBH         LINE#         902
  C:23EDH         LINE#         906
  C:208DH         LINE#         919
  C:208FH         LINE#         920
  C:2091H         LINE#         921
  C:2093H         LINE#         922
  C:2096H         LINE#         925
  C:2098H         LINE#         927
  C:209AH         LINE#         929
  C:209DH         LINE#         931
  C:209FH         LINE#         933
  C:20A1H         LINE#         938
  C:20A3H         LINE#         940
  C:20A5H         LINE#         942
  C:20A6H         LINE#         946
  C:20A8H         LINE#         947
  C:20A9H         LINE#         948
  C:20ABH         LINE#         949
  C:20ADH         LINE#         950
  C:20B0H         LINE#         951
  C:20B1H         LINE#         952
  C:20B2H         LINE#         957
  C:20B4H         LINE#         959
  C:20B6H         LINE#         963
BL51 BANKED LINKER/LOCATER V6.22                                                      07/21/2014  16:39:35  PAGE 49


  C:1EFDH         LINE#         976
  C:1EFFH         LINE#         977
  C:1F01H         LINE#         978
  C:1F03H         LINE#         979
  C:1F06H         LINE#         982
  C:1F08H         LINE#         984
  C:1F0AH         LINE#         986
  C:1F0DH         LINE#         988
  C:1F0FH         LINE#         990
  C:1F11H         LINE#         995
  C:1F13H         LINE#         997
  C:1F15H         LINE#         999
  C:1F17H         LINE#         1003
  C:1F19H         LINE#         1004
  C:1F1AH         LINE#         1005
  C:1F1CH         LINE#         1006
  C:1F1EH         LINE#         1007
  C:1F21H         LINE#         1008
  C:1F22H         LINE#         1009
  C:1F23H         LINE#         1014
  C:1F25H         LINE#         1016
  C:1F27H         LINE#         1020
  C:22F0H         LINE#         1033
  C:22F2H         LINE#         1034
  C:22F4H         LINE#         1035
  C:22F6H         LINE#         1036
  C:22F9H         LINE#         1039
  C:22FBH         LINE#         1041
  C:22FDH         LINE#         1043
  C:2300H         LINE#         1045
  C:2302H         LINE#         1047
  C:2304H         LINE#         1052
  C:2306H         LINE#         1054
  C:2308H         LINE#         1058
  C:230AH         LINE#         1059
  C:230BH         LINE#         1060
  C:230DH         LINE#         1061
  C:230FH         LINE#         1062
  C:2312H         LINE#         1063
  C:2313H         LINE#         1064
  C:2314H         LINE#         1069
  C:2316H         LINE#         1071
  C:2318H         LINE#         1075
  C:1C67H         LINE#         1088
  C:1C69H         LINE#         1089
  C:1C6BH         LINE#         1090
  C:1C6DH         LINE#         1091
  C:1C70H         LINE#         1094
  C:1C72H         LINE#         1096
  C:1C74H         LINE#         1098
  C:1C77H         LINE#         1100
  C:1C79H         LINE#         1102
  C:1C7BH         LINE#         1107
  C:1C7EH         LINE#         1111
  C:1C80H         LINE#         1112
  C:1C82H         LINE#         1113
  C:1C84H         LINE#         1114
BL51 BANKED LINKER/LOCATER V6.22                                                      07/21/2014  16:39:35  PAGE 50


  C:1C87H         LINE#         1115
  C:1C88H         LINE#         1116
  C:1C89H         LINE#         1120
  C:1C8BH         LINE#         1121
  C:1C8DH         LINE#         1122
  C:1C8FH         LINE#         1123
  C:1C92H         LINE#         1124
  C:1C93H         LINE#         1125
  C:1C94H         LINE#         1130
  C:1C96H         LINE#         1132
  C:1C98H         LINE#         1136
  C:1CFFH         LINE#         1148
  C:1D01H         LINE#         1149
  C:1D03H         LINE#         1150
  C:1D05H         LINE#         1151
  C:1D08H         LINE#         1154
  C:1D0AH         LINE#         1156
  C:1D0CH         LINE#         1158
  C:1D0FH         LINE#         1160
  C:1D11H         LINE#         1162
  C:1D13H         LINE#         1167
  C:1D14H         LINE#         1169
  C:1D17H         LINE#         1171
  C:1D18H         LINE#         1173
  C:1D1AH         LINE#         1175
  C:1D1BH         LINE#         1177
  C:1D1DH         LINE#         1181
  C:1D1EH         LINE#         1183
  C:1D1FH         LINE#         1185
  C:1D20H         LINE#         1189
  C:1D22H         LINE#         1190
  C:1D24H         LINE#         1191
  C:1D27H         LINE#         1192
  C:1D28H         LINE#         1193
  C:1D29H         LINE#         1198
  C:1D2BH         LINE#         1200
  C:1D2DH         LINE#         1204
  C:1D5FH         LINE#         1217
  C:1D61H         LINE#         1218
  C:1D63H         LINE#         1219
  C:1D65H         LINE#         1220
  C:1D68H         LINE#         1223
  C:1D6AH         LINE#         1225
  C:1D6CH         LINE#         1227
  C:1D6FH         LINE#         1229
  C:1D71H         LINE#         1231
  C:1D73H         LINE#         1236
  C:1D75H         LINE#         1238
  C:1D76H         LINE#         1240
  C:1D78H         LINE#         1242
  C:1D79H         LINE#         1244
  C:1D7BH         LINE#         1248
  C:1D7CH         LINE#         1250
  C:1D7DH         LINE#         1252
  C:1D7EH         LINE#         1256
  C:1D80H         LINE#         1257
  C:1D82H         LINE#         1258
BL51 BANKED LINKER/LOCATER V6.22                                                      07/21/2014  16:39:35  PAGE 51


  C:1D85H         LINE#         1259
  C:1D86H         LINE#         1260
  C:1D87H         LINE#         1265
  C:1D89H         LINE#         1267
  C:1D8BH         LINE#         1271
  C:20B9H         LINE#         1284
  C:20BBH         LINE#         1285
  C:20BDH         LINE#         1286
  C:20BFH         LINE#         1287
  C:20C2H         LINE#         1290
  C:20C4H         LINE#         1292
  C:20C6H         LINE#         1294
  C:20C9H         LINE#         1296
  C:20CBH         LINE#         1298
  C:20CDH         LINE#         1303
  C:20CFH         LINE#         1305
  C:20D2H         LINE#         1307
  C:20D3H         LINE#         1309
  C:20D4H         LINE#         1311
  C:20D5H         LINE#         1315
  C:20D7H         LINE#         1316
  C:20D9H         LINE#         1317
  C:20DCH         LINE#         1318
  C:20DDH         LINE#         1319
  C:20DEH         LINE#         1324
  C:20E0H         LINE#         1326
  C:20E2H         LINE#         1330
  C:1F2AH         LINE#         1343
  C:1F2CH         LINE#         1344
  C:1F2EH         LINE#         1345
  C:1F30H         LINE#         1346
  C:1F33H         LINE#         1349
  C:1F35H         LINE#         1351
  C:1F37H         LINE#         1353
  C:1F3AH         LINE#         1355
  C:1F3CH         LINE#         1357
  C:1F3EH         LINE#         1362
  C:1F41H         LINE#         1364
  C:1F44H         LINE#         1366
  C:1F45H         LINE#         1368
  C:1F46H         LINE#         1370
  C:1F47H         LINE#         1374
  C:1F49H         LINE#         1375
  C:1F4BH         LINE#         1376
  C:1F4EH         LINE#         1377
  C:1F4FH         LINE#         1378
  C:1F50H         LINE#         1383
  C:1F52H         LINE#         1385
  C:1F54H         LINE#         1389
  C:20E5H         LINE#         1402
  C:20E7H         LINE#         1403
  C:20E9H         LINE#         1404
  C:20EBH         LINE#         1405
  C:20EEH         LINE#         1408
  C:20F0H         LINE#         1410
  C:20F2H         LINE#         1412
  C:20F5H         LINE#         1414
BL51 BANKED LINKER/LOCATER V6.22                                                      07/21/2014  16:39:35  PAGE 52


  C:20F7H         LINE#         1416
  C:20F9H         LINE#         1421
  C:20FBH         LINE#         1423
  C:20FEH         LINE#         1425
  C:20FFH         LINE#         1427
  C:2100H         LINE#         1429
  C:2101H         LINE#         1433
  C:2103H         LINE#         1434
  C:2105H         LINE#         1435
  C:2108H         LINE#         1436
  C:2109H         LINE#         1437
  C:210AH         LINE#         1442
  C:210CH         LINE#         1444
  C:210EH         LINE#         1448
  C:1F57H         LINE#         1461
  C:1F59H         LINE#         1462
  C:1F5BH         LINE#         1463
  C:1F5DH         LINE#         1464
  C:1F60H         LINE#         1467
  C:1F62H         LINE#         1469
  C:1F64H         LINE#         1471
  C:1F67H         LINE#         1473
  C:1F69H         LINE#         1475
  C:1F6BH         LINE#         1480
  C:1F6EH         LINE#         1482
  C:1F71H         LINE#         1484
  C:1F72H         LINE#         1486
  C:1F73H         LINE#         1488
  C:1F74H         LINE#         1492
  C:1F76H         LINE#         1493
  C:1F78H         LINE#         1494
  C:1F7BH         LINE#         1495
  C:1F7CH         LINE#         1496
  C:1F7DH         LINE#         1501
  C:1F7FH         LINE#         1503
  C:1F81H         LINE#         1507
  C:1A2EH         LINE#         1520
  C:1A30H         LINE#         1521
  C:1A32H         LINE#         1522
  C:1A34H         LINE#         1523
  C:1A37H         LINE#         1526
  C:1A39H         LINE#         1528
  C:1A3BH         LINE#         1530
  C:1A3EH         LINE#         1532
  C:1A40H         LINE#         1534
  C:1A42H         LINE#         1539
  C:1A44H         LINE#         1541
  C:1A46H         LINE#         1543
  C:1A48H         LINE#         1545
  C:1A49H         LINE#         1547
  C:1A4BH         LINE#         1549
  C:1A4DH         LINE#         1553
  C:1A4FH         LINE#         1554
  C:1A51H         LINE#         1555
  C:1A54H         LINE#         1556
  C:1A55H         LINE#         1557
  C:1A56H         LINE#         1561
BL51 BANKED LINKER/LOCATER V6.22                                                      07/21/2014  16:39:35  PAGE 53


  C:1A58H         LINE#         1562
  C:1A5AH         LINE#         1563
  C:1A5CH         LINE#         1564
  C:1A5FH         LINE#         1565
  C:1A60H         LINE#         1566
  C:1A61H         LINE#         1571
  C:1A63H         LINE#         1573
  C:1A65H         LINE#         1575
  C:1A67H         LINE#         1579
  C:1A6AH         LINE#         1592
  C:1A6CH         LINE#         1593
  C:1A6EH         LINE#         1594
  C:1A70H         LINE#         1595
  C:1A73H         LINE#         1598
  C:1A75H         LINE#         1600
  C:1A77H         LINE#         1602
  C:1A7AH         LINE#         1604
  C:1A7CH         LINE#         1606
  C:1A7EH         LINE#         1611
  C:1A80H         LINE#         1613
  C:1A82H         LINE#         1615
  C:1A84H         LINE#         1617
  C:1A86H         LINE#         1619
  C:1A88H         LINE#         1621
  C:1A89H         LINE#         1625
  C:1A8BH         LINE#         1626
  C:1A8DH         LINE#         1627
  C:1A90H         LINE#         1628
  C:1A91H         LINE#         1629
  C:1A92H         LINE#         1633
  C:1A94H         LINE#         1634
  C:1A95H         LINE#         1635
  C:1A97H         LINE#         1636
  C:1A99H         LINE#         1637
  C:1A9CH         LINE#         1638
  C:1A9DH         LINE#         1639
  C:1A9EH         LINE#         1644
  C:1AA0H         LINE#         1646
  C:1AA2H         LINE#         1650
  C:1C32H         LINE#         1663
  C:1C34H         LINE#         1664
  C:1C36H         LINE#         1665
  C:1C38H         LINE#         1666
  C:1C3BH         LINE#         1669
  C:1C3DH         LINE#         1671
  C:1C3FH         LINE#         1673
  C:1C42H         LINE#         1675
  C:1C44H         LINE#         1677
  C:1C46H         LINE#         1682
  C:1C48H         LINE#         1684
  C:1C4BH         LINE#         1686
  C:1C4CH         LINE#         1690
  C:1C4EH         LINE#         1691
  C:1C50H         LINE#         1692
  C:1C53H         LINE#         1693
  C:1C54H         LINE#         1694
  C:1C55H         LINE#         1698
BL51 BANKED LINKER/LOCATER V6.22                                                      07/21/2014  16:39:35  PAGE 54


  C:1C57H         LINE#         1699
  C:1C58H         LINE#         1700
  C:1C59H         LINE#         1701
  C:1C5BH         LINE#         1702
  C:1C5EH         LINE#         1703
  C:1C5FH         LINE#         1704
  C:1C60H         LINE#         1709
  C:1C62H         LINE#         1711
  C:1C64H         LINE#         1715
  C:1BFBH         LINE#         1728
  C:1BFDH         LINE#         1729
  C:1BFFH         LINE#         1730
  C:1C01H         LINE#         1731
  C:1C04H         LINE#         1734
  C:1C06H         LINE#         1736
  C:1C08H         LINE#         1738
  C:1C0BH         LINE#         1740
  C:1C0DH         LINE#         1742
  C:1C0FH         LINE#         1747
  C:1C11H         LINE#         1749
  C:1C14H         LINE#         1751
  C:1C16H         LINE#         1755
  C:1C18H         LINE#         1756
  C:1C1AH         LINE#         1757
  C:1C1DH         LINE#         1758
  C:1C1EH         LINE#         1759
  C:1C1FH         LINE#         1763
  C:1C21H         LINE#         1764
  C:1C22H         LINE#         1765
  C:1C24H         LINE#         1766
  C:1C26H         LINE#         1767
  C:1C29H         LINE#         1768
  C:1C2AH         LINE#         1769
  C:1C2BH         LINE#         1774
  C:1C2DH         LINE#         1776
  C:1C2FH         LINE#         1780
  C:1B8BH         LINE#         1793
  C:1B8DH         LINE#         1794
  C:1B8FH         LINE#         1795
  C:1B91H         LINE#         1796
  C:1B94H         LINE#         1799
  C:1B96H         LINE#         1801
  C:1B98H         LINE#         1803
  C:1B9BH         LINE#         1805
  C:1B9DH         LINE#         1807
  C:1B9FH         LINE#         1812
  C:1BA1H         LINE#         1814
  C:1BA4H         LINE#         1816
  C:1BA6H         LINE#         1818
  C:1BA7H         LINE#         1822
  C:1BA9H         LINE#         1823
  C:1BABH         LINE#         1824
  C:1BAEH         LINE#         1825
  C:1BAFH         LINE#         1826
  C:1BB0H         LINE#         1830
  C:1BB2H         LINE#         1831
  C:1BB3H         LINE#         1832
BL51 BANKED LINKER/LOCATER V6.22                                                      07/21/2014  16:39:35  PAGE 55


  C:1BB5H         LINE#         1833
  C:1BB7H         LINE#         1834
  C:1BBAH         LINE#         1835
  C:1BBBH         LINE#         1836
  C:1BBCH         LINE#         1841
  C:1BBEH         LINE#         1843
  C:1BC0H         LINE#         1847
  C:1BC3H         LINE#         1860
  C:1BC5H         LINE#         1861
  C:1BC7H         LINE#         1862
  C:1BC9H         LINE#         1863
  C:1BCCH         LINE#         1866
  C:1BCEH         LINE#         1868
  C:1BD0H         LINE#         1870
  C:1BD3H         LINE#         1872
  C:1BD5H         LINE#         1874
  C:1BD7H         LINE#         1879
  C:1BD9H         LINE#         1881
  C:1BDCH         LINE#         1883
  C:1BDEH         LINE#         1885
  C:1BDFH         LINE#         1889
  C:1BE1H         LINE#         1890
  C:1BE3H         LINE#         1891
  C:1BE6H         LINE#         1892
  C:1BE7H         LINE#         1893
  C:1BE8H         LINE#         1897
  C:1BEAH         LINE#         1898
  C:1BEBH         LINE#         1899
  C:1BEDH         LINE#         1900
  C:1BEFH         LINE#         1901
  C:1BF2H         LINE#         1902
  C:1BF3H         LINE#         1903
  C:1BF4H         LINE#         1908
  C:1BF6H         LINE#         1910
  C:1BF8H         LINE#         1914
  -------         ENDMOD        TRANSFER

  -------         MODULE        LOGICAL
  C:23F0H         SEGMENT       ?PR?ANL_A_RN?LOGICAL
  C:231BH         SEGMENT       ?PR?ANL_A_DI?LOGICAL
  C:2111H         SEGMENT       ?PR?ANL_A_RI?LOGICAL
  C:2564H         SEGMENT       ?PR?ANL_A_DA?LOGICAL
  C:1DECH         SEGMENT       ?PR?ANL_DI_A?LOGICAL
  C:213DH         SEGMENT       ?PR?ANL_DI_DA?LOGICAL
  C:241AH         SEGMENT       ?PR?ORL_A_RN?LOGICAL
  C:2346H         SEGMENT       ?PR?ORL_A_DI?LOGICAL
  C:2169H         SEGMENT       ?PR?ORL_A_RI?LOGICAL
  C:258DH         SEGMENT       ?PR?ORL_A_DA?LOGICAL
  C:1E1AH         SEGMENT       ?PR?ORL_DI_A?LOGICAL
  C:2195H         SEGMENT       ?PR?ORL_DI_DA?LOGICAL
  C:2444H         SEGMENT       ?PR?XRL_A_RN?LOGICAL
  C:2371H         SEGMENT       ?PR?XRL_A_DI?LOGICAL
  C:21C1H         SEGMENT       ?PR?XRL_A_RI?LOGICAL
  C:25B6H         SEGMENT       ?PR?XRL_A_DA?LOGICAL
  C:1E48H         SEGMENT       ?PR?XRL_DI_A?LOGICAL
  C:21EDH         SEGMENT       ?PR?XRL_DI_DA?LOGICAL
  C:2762H         SEGMENT       ?PR?CLR_A?LOGICAL
BL51 BANKED LINKER/LOCATER V6.22                                                      07/21/2014  16:39:35  PAGE 56


  C:262FH         SEGMENT       ?PR?CPL_A?LOGICAL
  C:2656H         SEGMENT       ?PR?RL_A?LOGICAL
  C:1D8EH         SEGMENT       ?PR?RLC_A?LOGICAL
  C:267DH         SEGMENT       ?PR?RR_A?LOGICAL
  C:1DBDH         SEGMENT       ?PR?RRC_A?LOGICAL
  C:26A4H         SEGMENT       ?PR?SWAP_A?LOGICAL
  C:0484H         SEGMENT       ?CO?LOGICAL
  C:2564H         PUBLIC        ANL_A_DA
  C:231BH         PUBLIC        ANL_A_DI
  C:2111H         PUBLIC        ANL_A_RI
  C:23F0H         PUBLIC        ANL_A_RN
  C:1DECH         PUBLIC        ANL_DI_A
  C:213DH         PUBLIC        ANL_DI_DA
  C:2762H         PUBLIC        CLR_A
  C:262FH         PUBLIC        CPL_A
  C:258DH         PUBLIC        ORL_A_DA
  C:2346H         PUBLIC        ORL_A_DI
  C:2169H         PUBLIC        ORL_A_RI
  C:241AH         PUBLIC        ORL_A_RN
  C:1E1AH         PUBLIC        ORL_DI_A
  C:2195H         PUBLIC        ORL_DI_DA
  C:1D8EH         PUBLIC        RLC_A
  C:2656H         PUBLIC        RL_A
  C:1DBDH         PUBLIC        RRC_A
  C:267DH         PUBLIC        RR_A
  C:26A4H         PUBLIC        SWAP_A
  C:25B6H         PUBLIC        XRL_A_DA
  C:2371H         PUBLIC        XRL_A_DI
  C:21C1H         PUBLIC        XRL_A_RI
  C:2444H         PUBLIC        XRL_A_RN
  C:1E48H         PUBLIC        XRL_DI_A
  C:21EDH         PUBLIC        XRL_DI_DA
  C:2413H         SYMBOL        ?C0001
  C:233FH         SYMBOL        ?C0003
  C:2136H         SYMBOL        ?C0005
  C:2586H         SYMBOL        ?C0007
  C:1E13H         SYMBOL        ?C0009
  C:2162H         SYMBOL        ?C0011
  C:243DH         SYMBOL        ?C0013
  C:236AH         SYMBOL        ?C0015
  C:218EH         SYMBOL        ?C0017
  C:25AFH         SYMBOL        ?C0019
  C:1E41H         SYMBOL        ?C0021
  C:21BAH         SYMBOL        ?C0023
  C:2467H         SYMBOL        ?C0025
  C:2395H         SYMBOL        ?C0027
  C:21E6H         SYMBOL        ?C0029
  C:25D8H         SYMBOL        ?C0031
  C:1E6FH         SYMBOL        ?C0033
  C:2212H         SYMBOL        ?C0035
  C:2780H         SYMBOL        ?C0037
  C:264FH         SYMBOL        ?C0039
  C:2676H         SYMBOL        ?C0041
  C:1DAEH         SYMBOL        ?C0043
  C:1DB6H         SYMBOL        ?C0044
  C:269DH         SYMBOL        ?C0046
  C:1DDDH         SYMBOL        ?C0048
BL51 BANKED LINKER/LOCATER V6.22                                                      07/21/2014  16:39:35  PAGE 57


  C:1DE5H         SYMBOL        ?C0049
  C:26C4H         SYMBOL        ?C0051
  C:0484H         SYMBOL        ?SC_0
  C:048EH         SYMBOL        ?SC_10
  C:04E9H         SYMBOL        ?SC_101
  C:04F3H         SYMBOL        ?SC_111
  C:04FEH         SYMBOL        ?SC_122
  C:0508H         SYMBOL        ?SC_132
  C:0512H         SYMBOL        ?SC_142
  C:051CH         SYMBOL        ?SC_152
  C:0526H         SYMBOL        ?SC_162
  C:0530H         SYMBOL        ?SC_172
  C:053BH         SYMBOL        ?SC_183
  C:0542H         SYMBOL        ?SC_190
  C:0549H         SYMBOL        ?SC_197
  C:0498H         SYMBOL        ?SC_20
  C:054FH         SYMBOL        ?SC_203
  C:0556H         SYMBOL        ?SC_210
  C:055CH         SYMBOL        ?SC_216
  C:0563H         SYMBOL        ?SC_223
  C:04A2H         SYMBOL        ?SC_30
  C:04ACH         SYMBOL        ?SC_40
  C:04B6H         SYMBOL        ?SC_50
  C:04C1H         SYMBOL        ?SC_61
  C:04CBH         SYMBOL        ?SC_71
  C:04D5H         SYMBOL        ?SC_81
  C:04DFH         SYMBOL        ?SC_91
  B:00D0H.6       SYMBOL        AC
  D:00E0H         SYMBOL        ACC
  D:00F0H         SYMBOL        B
  B:00C8H.0       SYMBOL        CP_RL2
  B:00D0H.7       SYMBOL        CY
  B:00C8H.1       SYMBOL        C_T2
  D:0083H         SYMBOL        DPH
  D:0082H         SYMBOL        DPL
  B:00A8H.7       SYMBOL        EA
  B:00A8H.4       SYMBOL        ES
  B:00A8H.1       SYMBOL        ET0
  B:00A8H.3       SYMBOL        ET1
  B:00A8H.5       SYMBOL        ET2
  B:00A8H.0       SYMBOL        EX0
  B:00A8H.2       SYMBOL        EX1
  B:00C8H.3       SYMBOL        EXEN2
  B:00C8H.6       SYMBOL        EXF2
  B:00D0H.5       SYMBOL        F0
  D:00A8H         SYMBOL        IE
  B:0088H.1       SYMBOL        IE0
  B:0088H.3       SYMBOL        IE1
  B:00B0H.2       SYMBOL        INT0
  B:00B0H.3       SYMBOL        INT1
  D:00B8H         SYMBOL        IP
  B:0088H.0       SYMBOL        IT0
  B:0088H.2       SYMBOL        IT1
  N:0000H         SYMBOL        LOGICAL
  B:00D0H.2       SYMBOL        OV
  B:00D0H.0       SYMBOL        P
  D:0080H         SYMBOL        P0
BL51 BANKED LINKER/LOCATER V6.22                                                      07/21/2014  16:39:35  PAGE 58


  D:0090H         SYMBOL        P1
  D:00A0H         SYMBOL        P2
  D:00B0H         SYMBOL        P3
  D:0087H         SYMBOL        PCON
  B:00B8H.4       SYMBOL        PS
  D:00D0H         SYMBOL        PSW
  B:00B8H.1       SYMBOL        PT0
  B:00B8H.3       SYMBOL        PT1
  B:00B8H.5       SYMBOL        PT2
  B:00B8H.0       SYMBOL        PX0
  B:00B8H.2       SYMBOL        PX1
  B:0098H.2       SYMBOL        RB8
  D:00CBH         SYMBOL        RCAP2H
  D:00CAH         SYMBOL        RCAP2L
  B:00C8H.5       SYMBOL        RCLK
  B:00B0H.7       SYMBOL        RD
  B:0098H.4       SYMBOL        REN
  B:0098H.0       SYMBOL        RI
  B:00D0H.3       SYMBOL        RS0
  B:00D0H.4       SYMBOL        RS1
  B:00B0H.0       SYMBOL        RXD
  D:0099H         SYMBOL        SBUF
  D:0098H         SYMBOL        SCON
  B:0098H.7       SYMBOL        SM0
  B:0098H.6       SYMBOL        SM1
  B:0098H.5       SYMBOL        SM2
  D:0081H         SYMBOL        SP
  B:00B0H.4       SYMBOL        T0
  B:00B0H.5       SYMBOL        T1
  B:0090H.0       SYMBOL        T2
  D:00C8H         SYMBOL        T2CON
  B:0090H.1       SYMBOL        T2EX
  B:0098H.3       SYMBOL        TB8
  B:00C8H.4       SYMBOL        TCLK
  D:0088H         SYMBOL        TCON
  B:0088H.5       SYMBOL        TF0
  B:0088H.7       SYMBOL        TF1
  B:00C8H.7       SYMBOL        TF2
  D:008CH         SYMBOL        TH0
  D:008DH         SYMBOL        TH1
  D:00CDH         SYMBOL        TH2
  B:0098H.1       SYMBOL        TI
  D:008AH         SYMBOL        TL0
  D:008BH         SYMBOL        TL1
  D:00CCH         SYMBOL        TL2
  D:0089H         SYMBOL        TMOD
  B:0088H.4       SYMBOL        TR0
  B:0088H.6       SYMBOL        TR1
  B:00C8H.2       SYMBOL        TR2
  B:00B0H.1       SYMBOL        TXD
  B:00B0H.6       SYMBOL        WR
  C:23F0H         LINE#         235
  C:23F2H         LINE#         236
  C:23F4H         LINE#         237
  C:23F6H         LINE#         238
  C:23F9H         LINE#         241
  C:23FBH         LINE#         243
BL51 BANKED LINKER/LOCATER V6.22                                                      07/21/2014  16:39:35  PAGE 59


  C:23FDH         LINE#         245
  C:2400H         LINE#         247
  C:2402H         LINE#         249
  C:2404H         LINE#         254
  C:2407H         LINE#         256
  C:2409H         LINE#         258
  C:240AH         LINE#         262
  C:240CH         LINE#         263
  C:240EH         LINE#         264
  C:2411H         LINE#         265
  C:2412H         LINE#         266
  C:2413H         LINE#         271
  C:2415H         LINE#         273
  C:2417H         LINE#         277
  C:231BH         LINE#         290
  C:231DH         LINE#         291
  C:231FH         LINE#         292
  C:2321H         LINE#         293
  C:2324H         LINE#         296
  C:2326H         LINE#         298
  C:2328H         LINE#         300
  C:232BH         LINE#         302
  C:232DH         LINE#         304
  C:232FH         LINE#         309
  C:2332H         LINE#         311
  C:2334H         LINE#         313
  C:2336H         LINE#         317
  C:2338H         LINE#         318
  C:233AH         LINE#         319
  C:233DH         LINE#         320
  C:233EH         LINE#         321
  C:233FH         LINE#         326
  C:2341H         LINE#         328
  C:2343H         LINE#         332
  C:2111H         LINE#         345
  C:2113H         LINE#         346
  C:2115H         LINE#         347
  C:2117H         LINE#         348
  C:211AH         LINE#         351
  C:211CH         LINE#         353
  C:211EH         LINE#         355
  C:2121H         LINE#         357
  C:2123H         LINE#         359
  C:2125H         LINE#         364
  C:2128H         LINE#         366
  C:212AH         LINE#         368
  C:212CH         LINE#         370
  C:212DH         LINE#         374
  C:212FH         LINE#         375
  C:2131H         LINE#         376
  C:2134H         LINE#         377
  C:2135H         LINE#         378
  C:2136H         LINE#         383
  C:2138H         LINE#         385
  C:213AH         LINE#         389
  C:2564H         LINE#         402
  C:2566H         LINE#         403
BL51 BANKED LINKER/LOCATER V6.22                                                      07/21/2014  16:39:35  PAGE 60


  C:2568H         LINE#         404
  C:256AH         LINE#         405
  C:256DH         LINE#         408
  C:256FH         LINE#         410
  C:2571H         LINE#         412
  C:2574H         LINE#         414
  C:2576H         LINE#         416
  C:2578H         LINE#         421
  C:257BH         LINE#         423
  C:257DH         LINE#         427
  C:257FH         LINE#         428
  C:2581H         LINE#         429
  C:2584H         LINE#         430
  C:2585H         LINE#         431
  C:2586H         LINE#         436
  C:2588H         LINE#         438
  C:258AH         LINE#         442
  C:1DECH         LINE#         455
  C:1DEEH         LINE#         456
  C:1DF0H         LINE#         457
  C:1DF2H         LINE#         458
  C:1DF5H         LINE#         461
  C:1DF7H         LINE#         463
  C:1DF9H         LINE#         465
  C:1DFCH         LINE#         467
  C:1DFEH         LINE#         469
  C:1E00H         LINE#         474
  C:1E03H         LINE#         476
  C:1E05H         LINE#         478
  C:1E07H         LINE#         482
  C:1E09H         LINE#         483
  C:1E0AH         LINE#         484
  C:1E0CH         LINE#         485
  C:1E0EH         LINE#         486
  C:1E11H         LINE#         487
  C:1E12H         LINE#         488
  C:1E13H         LINE#         493
  C:1E15H         LINE#         495
  C:1E17H         LINE#         499
  C:213DH         LINE#         512
  C:213FH         LINE#         513
  C:2141H         LINE#         514
  C:2143H         LINE#         515
  C:2146H         LINE#         518
  C:2148H         LINE#         520
  C:214AH         LINE#         522
  C:214DH         LINE#         524
  C:214FH         LINE#         526
  C:2151H         LINE#         531
  C:2153H         LINE#         533
  C:2156H         LINE#         537
  C:2158H         LINE#         538
  C:2159H         LINE#         539
  C:215BH         LINE#         540
  C:215DH         LINE#         541
  C:2160H         LINE#         542
  C:2161H         LINE#         543
BL51 BANKED LINKER/LOCATER V6.22                                                      07/21/2014  16:39:35  PAGE 61


  C:2162H         LINE#         548
  C:2164H         LINE#         550
  C:2166H         LINE#         554
  C:241AH         LINE#         567
  C:241CH         LINE#         568
  C:241EH         LINE#         569
  C:2420H         LINE#         570
  C:2423H         LINE#         573
  C:2425H         LINE#         575
  C:2427H         LINE#         577
  C:242AH         LINE#         579
  C:242CH         LINE#         581
  C:242EH         LINE#         586
  C:2431H         LINE#         588
  C:2433H         LINE#         590
  C:2434H         LINE#         594
  C:2436H         LINE#         595
  C:2438H         LINE#         596
  C:243BH         LINE#         597
  C:243CH         LINE#         598
  C:243DH         LINE#         603
  C:243FH         LINE#         605
  C:2441H         LINE#         609
  C:2346H         LINE#         622
  C:2348H         LINE#         623
  C:234AH         LINE#         624
  C:234CH         LINE#         625
  C:234FH         LINE#         628
  C:2351H         LINE#         630
  C:2353H         LINE#         632
  C:2356H         LINE#         634
  C:2358H         LINE#         636
  C:235AH         LINE#         641
  C:235DH         LINE#         643
  C:235FH         LINE#         645
  C:2361H         LINE#         649
  C:2363H         LINE#         650
  C:2365H         LINE#         651
  C:2368H         LINE#         652
  C:2369H         LINE#         653
  C:236AH         LINE#         658
  C:236CH         LINE#         660
  C:236EH         LINE#         664
  C:2169H         LINE#         677
  C:216BH         LINE#         678
  C:216DH         LINE#         679
  C:216FH         LINE#         680
  C:2172H         LINE#         683
  C:2174H         LINE#         685
  C:2176H         LINE#         687
  C:2179H         LINE#         689
  C:217BH         LINE#         691
  C:217DH         LINE#         696
  C:2180H         LINE#         698
  C:2182H         LINE#         700
  C:2184H         LINE#         702
  C:2185H         LINE#         706
BL51 BANKED LINKER/LOCATER V6.22                                                      07/21/2014  16:39:35  PAGE 62


  C:2187H         LINE#         707
  C:2189H         LINE#         708
  C:218CH         LINE#         709
  C:218DH         LINE#         710
  C:218EH         LINE#         715
  C:2190H         LINE#         717
  C:2192H         LINE#         721
  C:258DH         LINE#         734
  C:258FH         LINE#         735
  C:2591H         LINE#         736
  C:2593H         LINE#         737
  C:2596H         LINE#         740
  C:2598H         LINE#         742
  C:259AH         LINE#         744
  C:259DH         LINE#         746
  C:259FH         LINE#         748
  C:25A1H         LINE#         753
  C:25A4H         LINE#         755
  C:25A6H         LINE#         759
  C:25A8H         LINE#         760
  C:25AAH         LINE#         761
  C:25ADH         LINE#         762
  C:25AEH         LINE#         763
  C:25AFH         LINE#         768
  C:25B1H         LINE#         770
  C:25B3H         LINE#         774
  C:1E1AH         LINE#         787
  C:1E1CH         LINE#         788
  C:1E1EH         LINE#         789
  C:1E20H         LINE#         790
  C:1E23H         LINE#         793
  C:1E25H         LINE#         795
  C:1E27H         LINE#         797
  C:1E2AH         LINE#         799
  C:1E2CH         LINE#         801
  C:1E2EH         LINE#         806
  C:1E31H         LINE#         808
  C:1E33H         LINE#         810
  C:1E35H         LINE#         814
  C:1E37H         LINE#         815
  C:1E38H         LINE#         816
  C:1E3AH         LINE#         817
  C:1E3CH         LINE#         818
  C:1E3FH         LINE#         819
  C:1E40H         LINE#         820
  C:1E41H         LINE#         825
  C:1E43H         LINE#         827
  C:1E45H         LINE#         831
  C:2195H         LINE#         844
  C:2197H         LINE#         845
  C:2199H         LINE#         846
  C:219BH         LINE#         847
  C:219EH         LINE#         850
  C:21A0H         LINE#         852
  C:21A2H         LINE#         854
  C:21A5H         LINE#         856
  C:21A7H         LINE#         858
BL51 BANKED LINKER/LOCATER V6.22                                                      07/21/2014  16:39:35  PAGE 63


  C:21A9H         LINE#         863
  C:21ABH         LINE#         865
  C:21AEH         LINE#         869
  C:21B0H         LINE#         870
  C:21B1H         LINE#         871
  C:21B3H         LINE#         872
  C:21B5H         LINE#         873
  C:21B8H         LINE#         874
  C:21B9H         LINE#         875
  C:21BAH         LINE#         880
  C:21BCH         LINE#         882
  C:21BEH         LINE#         886
  C:2444H         LINE#         899
  C:2446H         LINE#         900
  C:2448H         LINE#         901
  C:244AH         LINE#         902
  C:244DH         LINE#         905
  C:244FH         LINE#         907
  C:2451H         LINE#         909
  C:2454H         LINE#         911
  C:2456H         LINE#         913
  C:2458H         LINE#         918
  C:245BH         LINE#         920
  C:245DH         LINE#         922
  C:245EH         LINE#         926
  C:2460H         LINE#         927
  C:2462H         LINE#         928
  C:2465H         LINE#         929
  C:2466H         LINE#         930
  C:2467H         LINE#         935
  C:2469H         LINE#         937
  C:246BH         LINE#         941
  C:2371H         LINE#         954
  C:2373H         LINE#         955
  C:2375H         LINE#         956
  C:2377H         LINE#         957
  C:237AH         LINE#         960
  C:237CH         LINE#         962
  C:237EH         LINE#         964
  C:2381H         LINE#         966
  C:2383H         LINE#         968
  C:2385H         LINE#         973
  C:2388H         LINE#         975
  C:238AH         LINE#         977
  C:238CH         LINE#         981
  C:238EH         LINE#         982
  C:2390H         LINE#         983
  C:2393H         LINE#         984
  C:2394H         LINE#         985
  C:2395H         LINE#         990
  C:2397H         LINE#         992
  C:2399H         LINE#         996
  C:21C1H         LINE#         1009
  C:21C3H         LINE#         1010
  C:21C5H         LINE#         1011
  C:21C7H         LINE#         1012
  C:21CAH         LINE#         1015
BL51 BANKED LINKER/LOCATER V6.22                                                      07/21/2014  16:39:35  PAGE 64


  C:21CCH         LINE#         1017
  C:21CEH         LINE#         1019
  C:21D1H         LINE#         1021
  C:21D3H         LINE#         1023
  C:21D5H         LINE#         1028
  C:21D8H         LINE#         1030
  C:21DAH         LINE#         1032
  C:21DCH         LINE#         1034
  C:21DDH         LINE#         1038
  C:21DFH         LINE#         1039
  C:21E1H         LINE#         1040
  C:21E4H         LINE#         1041
  C:21E5H         LINE#         1042
  C:21E6H         LINE#         1047
  C:21E8H         LINE#         1049
  C:21EAH         LINE#         1053
  C:25B6H         LINE#         1066
  C:25B8H         LINE#         1067
  C:25BAH         LINE#         1068
  C:25BCH         LINE#         1069
  C:25BFH         LINE#         1072
  C:25C1H         LINE#         1074
  C:25C3H         LINE#         1076
  C:25C6H         LINE#         1078
  C:25C8H         LINE#         1080
  C:25CAH         LINE#         1085
  C:25CDH         LINE#         1087
  C:25CFH         LINE#         1091
  C:25D1H         LINE#         1092
  C:25D3H         LINE#         1093
  C:25D6H         LINE#         1094
  C:25D7H         LINE#         1095
  C:25D8H         LINE#         1100
  C:25DAH         LINE#         1102
  C:25DCH         LINE#         1106
  C:1E48H         LINE#         1119
  C:1E4AH         LINE#         1120
  C:1E4CH         LINE#         1121
  C:1E4EH         LINE#         1122
  C:1E51H         LINE#         1125
  C:1E53H         LINE#         1127
  C:1E55H         LINE#         1129
  C:1E58H         LINE#         1131
  C:1E5AH         LINE#         1133
  C:1E5CH         LINE#         1138
  C:1E5FH         LINE#         1140
  C:1E61H         LINE#         1142
  C:1E63H         LINE#         1146
  C:1E65H         LINE#         1147
  C:1E66H         LINE#         1148
  C:1E68H         LINE#         1149
  C:1E6AH         LINE#         1150
  C:1E6DH         LINE#         1151
  C:1E6EH         LINE#         1152
  C:1E6FH         LINE#         1157
  C:1E71H         LINE#         1159
  C:1E73H         LINE#         1163
BL51 BANKED LINKER/LOCATER V6.22                                                      07/21/2014  16:39:35  PAGE 65


  C:21EDH         LINE#         1176
  C:21EFH         LINE#         1177
  C:21F1H         LINE#         1178
  C:21F3H         LINE#         1179
  C:21F6H         LINE#         1182
  C:21F8H         LINE#         1184
  C:21FAH         LINE#         1186
  C:21FDH         LINE#         1188
  C:21FFH         LINE#         1190
  C:2201H         LINE#         1195
  C:2203H         LINE#         1197
  C:2206H         LINE#         1201
  C:2208H         LINE#         1202
  C:2209H         LINE#         1203
  C:220BH         LINE#         1204
  C:220DH         LINE#         1205
  C:2210H         LINE#         1206
  C:2211H         LINE#         1207
  C:2212H         LINE#         1212
  C:2214H         LINE#         1214
  C:2216H         LINE#         1218
  C:2762H         LINE#         1231
  C:2764H         LINE#         1232
  C:2766H         LINE#         1233
  C:2768H         LINE#         1234
  C:276BH         LINE#         1237
  C:276DH         LINE#         1239
  C:276FH         LINE#         1241
  C:2772H         LINE#         1243
  C:2774H         LINE#         1245
  C:2776H         LINE#         1250
  C:2778H         LINE#         1252
  C:2779H         LINE#         1256
  C:277BH         LINE#         1257
  C:277EH         LINE#         1258
  C:277FH         LINE#         1259
  C:2780H         LINE#         1264
  C:2782H         LINE#         1266
  C:2784H         LINE#         1270
  C:262FH         LINE#         1283
  C:2631H         LINE#         1284
  C:2633H         LINE#         1285
  C:2635H         LINE#         1286
  C:2638H         LINE#         1289
  C:263AH         LINE#         1291
  C:263CH         LINE#         1293
  C:263FH         LINE#         1295
  C:2641H         LINE#         1297
  C:2643H         LINE#         1302
  C:2645H         LINE#         1304
  C:2646H         LINE#         1308
  C:2648H         LINE#         1309
  C:264AH         LINE#         1310
  C:264DH         LINE#         1311
  C:264EH         LINE#         1312
  C:264FH         LINE#         1317
  C:2651H         LINE#         1319
BL51 BANKED LINKER/LOCATER V6.22                                                      07/21/2014  16:39:35  PAGE 66


  C:2653H         LINE#         1323
  C:2656H         LINE#         1336
  C:2658H         LINE#         1337
  C:265AH         LINE#         1338
  C:265CH         LINE#         1339
  C:265FH         LINE#         1342
  C:2661H         LINE#         1344
  C:2663H         LINE#         1346
  C:2666H         LINE#         1348
  C:2668H         LINE#         1350
  C:266AH         LINE#         1355
  C:266CH         LINE#         1357
  C:266DH         LINE#         1361
  C:266FH         LINE#         1362
  C:2671H         LINE#         1363
  C:2674H         LINE#         1364
  C:2675H         LINE#         1365
  C:2676H         LINE#         1370
  C:2678H         LINE#         1372
  C:267AH         LINE#         1376
  C:1D8EH         LINE#         1389
  C:1D90H         LINE#         1390
  C:1D92H         LINE#         1391
  C:1D94H         LINE#         1392
  C:1D97H         LINE#         1395
  C:1D99H         LINE#         1397
  C:1D9BH         LINE#         1399
  C:1D9EH         LINE#         1401
  C:1DA0H         LINE#         1403
  C:1DA2H         LINE#         1408
  C:1DA4H         LINE#         1410
  C:1DA5H         LINE#         1414
  C:1DA7H         LINE#         1415
  C:1DA9H         LINE#         1416
  C:1DACH         LINE#         1417
  C:1DADH         LINE#         1418
  C:1DAEH         LINE#         1422
  C:1DB1H         LINE#         1423
  C:1DB4H         LINE#         1424
  C:1DB5H         LINE#         1425
  C:1DB6H         LINE#         1430
  C:1DB8H         LINE#         1432
  C:1DBAH         LINE#         1436
  C:267DH         LINE#         1449
  C:267FH         LINE#         1450
  C:2681H         LINE#         1451
  C:2683H         LINE#         1452
  C:2686H         LINE#         1455
  C:2688H         LINE#         1457
  C:268AH         LINE#         1459
  C:268DH         LINE#         1461
  C:268FH         LINE#         1463
  C:2691H         LINE#         1468
  C:2693H         LINE#         1470
  C:2694H         LINE#         1474
  C:2696H         LINE#         1475
  C:2698H         LINE#         1476
BL51 BANKED LINKER/LOCATER V6.22                                                      07/21/2014  16:39:35  PAGE 67


  C:269BH         LINE#         1477
  C:269CH         LINE#         1478
  C:269DH         LINE#         1483
  C:269FH         LINE#         1485
  C:26A1H         LINE#         1489
  C:1DBDH         LINE#         1502
  C:1DBFH         LINE#         1503
  C:1DC1H         LINE#         1504
  C:1DC3H         LINE#         1505
  C:1DC6H         LINE#         1508
  C:1DC8H         LINE#         1510
  C:1DCAH         LINE#         1512
  C:1DCDH         LINE#         1514
  C:1DCFH         LINE#         1516
  C:1DD1H         LINE#         1521
  C:1DD3H         LINE#         1523
  C:1DD4H         LINE#         1527
  C:1DD6H         LINE#         1528
  C:1DD8H         LINE#         1529
  C:1DDBH         LINE#         1530
  C:1DDCH         LINE#         1531
  C:1DDDH         LINE#         1535
  C:1DE0H         LINE#         1536
  C:1DE3H         LINE#         1537
  C:1DE4H         LINE#         1538
  C:1DE5H         LINE#         1543
  C:1DE7H         LINE#         1545
  C:1DE9H         LINE#         1549
  C:26A4H         LINE#         1562
  C:26A6H         LINE#         1563
  C:26A8H         LINE#         1564
  C:26AAH         LINE#         1565
  C:26ADH         LINE#         1568
  C:26AFH         LINE#         1570
  C:26B1H         LINE#         1572
  C:26B4H         LINE#         1574
  C:26B6H         LINE#         1576
  C:26B8H         LINE#         1581
  C:26BAH         LINE#         1583
  C:26BBH         LINE#         1587
  C:26BDH         LINE#         1588
  C:26BFH         LINE#         1589
  C:26C2H         LINE#         1590
  C:26C3H         LINE#         1591
  C:26C4H         LINE#         1596
  C:26C6H         LINE#         1598
  C:26C8H         LINE#         1602
  -------         ENDMOD        LOGICAL

  -------         MODULE        ARITHMETIC
  C:0C87H         SEGMENT       ?PR?ADD_A_RN?ARITHMETIC
  C:0A38H         SEGMENT       ?PR?ADD_A_DI?ARITHMETIC
  C:07DDH         SEGMENT       ?PR?ADD_A_RI?ARITHMETIC
  C:0ECAH         SEGMENT       ?PR?ADD_A_DA?ARITHMETIC
  C:0AFDH         SEGMENT       ?PR?ADDC_A_RN?ARITHMETIC
  C:08A6H         SEGMENT       ?PR?ADDC_A_DI?ARITHMETIC
  C:0643H         SEGMENT       ?PR?ADDC_A_RI?ARITHMETIC
BL51 BANKED LINKER/LOCATER V6.22                                                      07/21/2014  16:39:35  PAGE 68


  C:0D48H         SEGMENT       ?PR?ADDC_A_DA?ARITHMETIC
  C:0BC2H         SEGMENT       ?PR?SUBB_A_RN?ARITHMETIC
  C:096FH         SEGMENT       ?PR?SUBB_A_DI?ARITHMETIC
  C:0710H         SEGMENT       ?PR?SUBB_A_RI?ARITHMETIC
  C:0E09H         SEGMENT       ?PR?SUBB_A_DA?ARITHMETIC
  C:19AEH         SEGMENT       ?PR?INC_A?ARITHMETIC
  C:1862H         SEGMENT       ?PR?INC_RN?ARITHMETIC
  C:1797H         SEGMENT       ?PR?INC_DI?ARITHMETIC
  C:1641H         SEGMENT       ?PR?INC_RI?ARITHMETIC
  C:151AH         SEGMENT       ?PR?INC_DP?ARITHMETIC
  C:19EEH         SEGMENT       ?PR?DEC_A?ARITHMETIC
  C:18A5H         SEGMENT       ?PR?DEC_RN?ARITHMETIC
  C:17DBH         SEGMENT       ?PR?DEC_DI?ARITHMETIC
  C:1686H         SEGMENT       ?PR?DEC_RI?ARITHMETIC
  C:116AH         SEGMENT       ?PR?MULT?ARITHMETIC
  C:1268H         SEGMENT       ?PR?DIVIDE?ARITHMETIC
  C:12D9H         SEGMENT       ?PR?DA_A?ARITHMETIC
  C:056BH         SEGMENT       ?CO?ARITHMETIC
  C:0D48H         PUBLIC        ADDC_A_DA
  C:08A6H         PUBLIC        ADDC_A_DI
  C:0643H         PUBLIC        ADDC_A_RI
  C:0AFDH         PUBLIC        ADDC_A_RN
  C:0ECAH         PUBLIC        ADD_A_DA
  C:0A38H         PUBLIC        ADD_A_DI
  C:07DDH         PUBLIC        ADD_A_RI
  C:0C87H         PUBLIC        ADD_A_RN
  C:12D9H         PUBLIC        DA_A
  C:19EEH         PUBLIC        DEC_A
  C:17DBH         PUBLIC        DEC_DI
  C:1686H         PUBLIC        DEC_RI
  C:18A5H         PUBLIC        DEC_RN
  C:1268H         PUBLIC        DIVIDE
  C:19AEH         PUBLIC        INC_A
  C:1797H         PUBLIC        INC_DI
  C:151AH         PUBLIC        INC_DP
  C:1641H         PUBLIC        INC_RI
  C:1862H         PUBLIC        INC_RN
  C:116AH         PUBLIC        MULT
  C:0E09H         PUBLIC        SUBB_A_DA
  C:096FH         PUBLIC        SUBB_A_DI
  C:0710H         PUBLIC        SUBB_A_RI
  C:0BC2H         PUBLIC        SUBB_A_RN
  C:0CAAH         SYMBOL        ?C0001
  C:0CB2H         SYMBOL        ?C0002
  C:0CBAH         SYMBOL        ?C0003
  C:0CC2H         SYMBOL        ?C0004
  C:0CD3H         SYMBOL        ?C0005
  C:0CDBH         SYMBOL        ?C0006
  C:0CE3H         SYMBOL        ?C0007
  C:0CEBH         SYMBOL        ?C0008
  C:0CFCH         SYMBOL        ?C0009
  C:0D04H         SYMBOL        ?C0010
  C:0D0CH         SYMBOL        ?C0011
  C:0D14H         SYMBOL        ?C0012
  C:0D27H         SYMBOL        ?C0013
  C:0D2FH         SYMBOL        ?C0014
  C:0D37H         SYMBOL        ?C0015
BL51 BANKED LINKER/LOCATER V6.22                                                      07/21/2014  16:39:35  PAGE 69


  C:0D3FH         SYMBOL        ?C0016
  C:0A5CH         SYMBOL        ?C0018
  C:0A64H         SYMBOL        ?C0019
  C:0A6CH         SYMBOL        ?C0020
  C:0A74H         SYMBOL        ?C0021
  C:0A86H         SYMBOL        ?C0022
  C:0A8EH         SYMBOL        ?C0023
  C:0A96H         SYMBOL        ?C0024
  C:0A9EH         SYMBOL        ?C0025
  C:0AB0H         SYMBOL        ?C0026
  C:0AB8H         SYMBOL        ?C0027
  C:0AC0H         SYMBOL        ?C0028
  C:0AC8H         SYMBOL        ?C0029
  C:0ADCH         SYMBOL        ?C0030
  C:0AE4H         SYMBOL        ?C0031
  C:0AECH         SYMBOL        ?C0032
  C:0AF4H         SYMBOL        ?C0033
  C:0802H         SYMBOL        ?C0035
  C:080AH         SYMBOL        ?C0036
  C:0812H         SYMBOL        ?C0037
  C:081AH         SYMBOL        ?C0038
  C:082DH         SYMBOL        ?C0039
  C:0835H         SYMBOL        ?C0040
  C:083DH         SYMBOL        ?C0041
  C:0845H         SYMBOL        ?C0042
  C:0858H         SYMBOL        ?C0043
  C:0860H         SYMBOL        ?C0044
  C:0868H         SYMBOL        ?C0045
  C:0870H         SYMBOL        ?C0046
  C:0885H         SYMBOL        ?C0047
  C:088DH         SYMBOL        ?C0048
  C:0895H         SYMBOL        ?C0049
  C:089DH         SYMBOL        ?C0050
  C:0EECH         SYMBOL        ?C0052
  C:0EF4H         SYMBOL        ?C0053
  C:0EFCH         SYMBOL        ?C0054
  C:0F04H         SYMBOL        ?C0055
  C:0F14H         SYMBOL        ?C0056
  C:0F1CH         SYMBOL        ?C0057
  C:0F24H         SYMBOL        ?C0058
  C:0F2CH         SYMBOL        ?C0059
  C:0F3CH         SYMBOL        ?C0060
  C:0F44H         SYMBOL        ?C0061
  C:0F4CH         SYMBOL        ?C0062
  C:0F54H         SYMBOL        ?C0063
  C:0F66H         SYMBOL        ?C0064
  C:0F6EH         SYMBOL        ?C0065
  C:0F76H         SYMBOL        ?C0066
  C:0F7EH         SYMBOL        ?C0067
  C:0B21H         SYMBOL        ?C0069
  C:0B29H         SYMBOL        ?C0070
  C:0B31H         SYMBOL        ?C0071
  C:0B39H         SYMBOL        ?C0072
  C:0B4BH         SYMBOL        ?C0073
  C:0B53H         SYMBOL        ?C0074
  C:0B5BH         SYMBOL        ?C0075
  C:0B63H         SYMBOL        ?C0076
BL51 BANKED LINKER/LOCATER V6.22                                                      07/21/2014  16:39:35  PAGE 70


  C:0B75H         SYMBOL        ?C0077
  C:0B7DH         SYMBOL        ?C0078
  C:0B85H         SYMBOL        ?C0079
  C:0B8DH         SYMBOL        ?C0080
  C:0BA1H         SYMBOL        ?C0081
  C:0BA9H         SYMBOL        ?C0082
  C:0BB1H         SYMBOL        ?C0083
  C:0BB9H         SYMBOL        ?C0084
  C:08CBH         SYMBOL        ?C0086
  C:08D3H         SYMBOL        ?C0087
  C:08DBH         SYMBOL        ?C0088
  C:08E3H         SYMBOL        ?C0089
  C:08F6H         SYMBOL        ?C0090
  C:08FEH         SYMBOL        ?C0091
  C:0906H         SYMBOL        ?C0092
  C:090EH         SYMBOL        ?C0093
  C:0921H         SYMBOL        ?C0094
  C:0929H         SYMBOL        ?C0095
  C:0931H         SYMBOL        ?C0096
  C:0939H         SYMBOL        ?C0097
  C:094EH         SYMBOL        ?C0098
  C:0956H         SYMBOL        ?C0099
  C:095EH         SYMBOL        ?C0100
  C:0966H         SYMBOL        ?C0101
  C:0669H         SYMBOL        ?C0103
  C:0671H         SYMBOL        ?C0104
  C:0679H         SYMBOL        ?C0105
  C:0681H         SYMBOL        ?C0106
  C:0695H         SYMBOL        ?C0107
  C:069DH         SYMBOL        ?C0108
  C:06A5H         SYMBOL        ?C0109
  C:06ADH         SYMBOL        ?C0110
  C:06C1H         SYMBOL        ?C0111
  C:06C9H         SYMBOL        ?C0112
  C:06D1H         SYMBOL        ?C0113
  C:06D9H         SYMBOL        ?C0114
  C:06EFH         SYMBOL        ?C0115
  C:06F7H         SYMBOL        ?C0116
  C:06FFH         SYMBOL        ?C0117
  C:0707H         SYMBOL        ?C0118
  C:0D6BH         SYMBOL        ?C0120
  C:0D73H         SYMBOL        ?C0121
  C:0D7BH         SYMBOL        ?C0122
  C:0D83H         SYMBOL        ?C0123
  C:0D94H         SYMBOL        ?C0124
  C:0D9CH         SYMBOL        ?C0125
  C:0DA4H         SYMBOL        ?C0126
  C:0DACH         SYMBOL        ?C0127
  C:0DBDH         SYMBOL        ?C0128
  C:0DC5H         SYMBOL        ?C0129
  C:0DCDH         SYMBOL        ?C0130
  C:0DD5H         SYMBOL        ?C0131
  C:0DE8H         SYMBOL        ?C0132
  C:0DF0H         SYMBOL        ?C0133
  C:0DF8H         SYMBOL        ?C0134
  C:0E00H         SYMBOL        ?C0135
  C:0BE6H         SYMBOL        ?C0137
BL51 BANKED LINKER/LOCATER V6.22                                                      07/21/2014  16:39:35  PAGE 71


  C:0BEEH         SYMBOL        ?C0138
  C:0BF6H         SYMBOL        ?C0139
  C:0BFEH         SYMBOL        ?C0140
  C:0C10H         SYMBOL        ?C0141
  C:0C18H         SYMBOL        ?C0142
  C:0C20H         SYMBOL        ?C0143
  C:0C28H         SYMBOL        ?C0144
  C:0C3AH         SYMBOL        ?C0145
  C:0C42H         SYMBOL        ?C0146
  C:0C4AH         SYMBOL        ?C0147
  C:0C52H         SYMBOL        ?C0148
  C:0C66H         SYMBOL        ?C0149
  C:0C6EH         SYMBOL        ?C0150
  C:0C76H         SYMBOL        ?C0151
  C:0C7EH         SYMBOL        ?C0152
  C:0994H         SYMBOL        ?C0154
  C:099CH         SYMBOL        ?C0155
  C:09A4H         SYMBOL        ?C0156
  C:09ACH         SYMBOL        ?C0157
  C:09BFH         SYMBOL        ?C0158
  C:09C7H         SYMBOL        ?C0159
  C:09CFH         SYMBOL        ?C0160
  C:09D7H         SYMBOL        ?C0161
  C:09EAH         SYMBOL        ?C0162
  C:09F2H         SYMBOL        ?C0163
  C:09FAH         SYMBOL        ?C0164
  C:0A02H         SYMBOL        ?C0165
  C:0A17H         SYMBOL        ?C0166
  C:0A1FH         SYMBOL        ?C0167
  C:0A27H         SYMBOL        ?C0168
  C:0A2FH         SYMBOL        ?C0169
  C:0736H         SYMBOL        ?C0171
  C:073EH         SYMBOL        ?C0172
  C:0746H         SYMBOL        ?C0173
  C:074EH         SYMBOL        ?C0174
  C:0762H         SYMBOL        ?C0175
  C:076AH         SYMBOL        ?C0176
  C:0772H         SYMBOL        ?C0177
  C:077AH         SYMBOL        ?C0178
  C:078EH         SYMBOL        ?C0179
  C:0796H         SYMBOL        ?C0180
  C:079EH         SYMBOL        ?C0181
  C:07A6H         SYMBOL        ?C0182
  C:07BCH         SYMBOL        ?C0183
  C:07C4H         SYMBOL        ?C0184
  C:07CCH         SYMBOL        ?C0185
  C:07D4H         SYMBOL        ?C0186
  C:0E2CH         SYMBOL        ?C0188
  C:0E34H         SYMBOL        ?C0189
  C:0E3CH         SYMBOL        ?C0190
  C:0E44H         SYMBOL        ?C0191
  C:0E55H         SYMBOL        ?C0192
  C:0E5DH         SYMBOL        ?C0193
  C:0E65H         SYMBOL        ?C0194
  C:0E6DH         SYMBOL        ?C0195
  C:0E7EH         SYMBOL        ?C0196
  C:0E86H         SYMBOL        ?C0197
BL51 BANKED LINKER/LOCATER V6.22                                                      07/21/2014  16:39:35  PAGE 72


  C:0E8EH         SYMBOL        ?C0198
  C:0E96H         SYMBOL        ?C0199
  C:0EA9H         SYMBOL        ?C0200
  C:0EB1H         SYMBOL        ?C0201
  C:0EB9H         SYMBOL        ?C0202
  C:0EC1H         SYMBOL        ?C0203
  C:19CFH         SYMBOL        ?C0205
  C:19D7H         SYMBOL        ?C0206
  C:19DFH         SYMBOL        ?C0207
  C:19E7H         SYMBOL        ?C0208
  C:1886H         SYMBOL        ?C0210
  C:188EH         SYMBOL        ?C0211
  C:1896H         SYMBOL        ?C0212
  C:189EH         SYMBOL        ?C0213
  C:17BCH         SYMBOL        ?C0215
  C:17C4H         SYMBOL        ?C0216
  C:17CCH         SYMBOL        ?C0217
  C:17D4H         SYMBOL        ?C0218
  C:1667H         SYMBOL        ?C0220
  C:166FH         SYMBOL        ?C0221
  C:1677H         SYMBOL        ?C0222
  C:167FH         SYMBOL        ?C0223
  C:153DH         SYMBOL        ?C0225
  C:1548H         SYMBOL        ?C0226
  C:1550H         SYMBOL        ?C0227
  C:1558H         SYMBOL        ?C0228
  C:1560H         SYMBOL        ?C0229
  C:1A0FH         SYMBOL        ?C0231
  C:1A17H         SYMBOL        ?C0232
  C:1A1FH         SYMBOL        ?C0233
  C:1A27H         SYMBOL        ?C0234
  C:18C9H         SYMBOL        ?C0236
  C:18D1H         SYMBOL        ?C0237
  C:18D9H         SYMBOL        ?C0238
  C:18E1H         SYMBOL        ?C0239
  C:1800H         SYMBOL        ?C0241
  C:1808H         SYMBOL        ?C0242
  C:1810H         SYMBOL        ?C0243
  C:1818H         SYMBOL        ?C0244
  C:16ACH         SYMBOL        ?C0246
  C:16B4H         SYMBOL        ?C0247
  C:16BCH         SYMBOL        ?C0248
  C:16C4H         SYMBOL        ?C0249
  C:118FH         SYMBOL        ?C0251
  C:1198H         SYMBOL        ?C0252
  C:11A0H         SYMBOL        ?C0253
  C:11A8H         SYMBOL        ?C0254
  C:11B0H         SYMBOL        ?C0255
  C:11C1H         SYMBOL        ?C0256
  C:11CCH         SYMBOL        ?C0257
  C:11D4H         SYMBOL        ?C0258
  C:11DCH         SYMBOL        ?C0259
  C:11E4H         SYMBOL        ?C0260
  C:128FH         SYMBOL        ?C0262
  C:129AH         SYMBOL        ?C0263
  C:12A2H         SYMBOL        ?C0264
  C:12AAH         SYMBOL        ?C0265
BL51 BANKED LINKER/LOCATER V6.22                                                      07/21/2014  16:39:35  PAGE 73


  C:12B2H         SYMBOL        ?C0266
  C:12C2H         SYMBOL        ?C0267
  C:12CAH         SYMBOL        ?C0268
  C:12D2H         SYMBOL        ?C0269
  C:1300H         SYMBOL        ?C0271
  C:1308H         SYMBOL        ?C0272
  C:1310H         SYMBOL        ?C0273
  C:1318H         SYMBOL        ?C0274
  C:1327H         SYMBOL        ?C0275
  C:132FH         SYMBOL        ?C0276
  C:1337H         SYMBOL        ?C0277
  C:133FH         SYMBOL        ?C0278
  C:056BH         SYMBOL        ?SC_0
  C:0575H         SYMBOL        ?SC_10
  C:05D5H         SYMBOL        ?SC_106
  C:05E0H         SYMBOL        ?SC_117
  C:05EBH         SYMBOL        ?SC_128
  C:05F2H         SYMBOL        ?SC_135
  C:05FAH         SYMBOL        ?SC_143
  C:0602H         SYMBOL        ?SC_151
  C:060AH         SYMBOL        ?SC_159
  C:0612H         SYMBOL        ?SC_167
  C:0619H         SYMBOL        ?SC_174
  C:0621H         SYMBOL        ?SC_182
  C:0629H         SYMBOL        ?SC_190
  C:0631H         SYMBOL        ?SC_198
  C:057FH         SYMBOL        ?SC_20
  C:0637H         SYMBOL        ?SC_204
  C:063FH         SYMBOL        ?SC_212
  C:0589H         SYMBOL        ?SC_30
  C:0593H         SYMBOL        ?SC_40
  C:059EH         SYMBOL        ?SC_51
  C:05A9H         SYMBOL        ?SC_62
  C:05B4H         SYMBOL        ?SC_73
  C:05BFH         SYMBOL        ?SC_84
  C:05CAH         SYMBOL        ?SC_95
  B:00D0H.6       SYMBOL        AC
  D:00E0H         SYMBOL        ACC
  N:0000H         SYMBOL        ARITHMETIC
  D:00F0H         SYMBOL        B
  B:00C8H.0       SYMBOL        CP_RL2
  B:00D0H.7       SYMBOL        CY
  B:00C8H.1       SYMBOL        C_T2
  D:0083H         SYMBOL        DPH
  D:0082H         SYMBOL        DPL
  B:00A8H.7       SYMBOL        EA
  B:00A8H.4       SYMBOL        ES
  B:00A8H.1       SYMBOL        ET0
  B:00A8H.3       SYMBOL        ET1
  B:00A8H.5       SYMBOL        ET2
  B:00A8H.0       SYMBOL        EX0
  B:00A8H.2       SYMBOL        EX1
  B:00C8H.3       SYMBOL        EXEN2
  B:00C8H.6       SYMBOL        EXF2
  B:00D0H.5       SYMBOL        F0
  D:00A8H         SYMBOL        IE
  B:0088H.1       SYMBOL        IE0
BL51 BANKED LINKER/LOCATER V6.22                                                      07/21/2014  16:39:35  PAGE 74


  B:0088H.3       SYMBOL        IE1
  B:00B0H.2       SYMBOL        INT0
  B:00B0H.3       SYMBOL        INT1
  D:00B8H         SYMBOL        IP
  B:0088H.0       SYMBOL        IT0
  B:0088H.2       SYMBOL        IT1
  B:00D0H.2       SYMBOL        OV
  B:00D0H.0       SYMBOL        P
  D:0080H         SYMBOL        P0
  D:0090H         SYMBOL        P1
  D:00A0H         SYMBOL        P2
  D:00B0H         SYMBOL        P3
  D:0087H         SYMBOL        PCON
  B:00B8H.4       SYMBOL        PS
  D:00D0H         SYMBOL        PSW
  B:00B8H.1       SYMBOL        PT0
  B:00B8H.3       SYMBOL        PT1
  B:00B8H.5       SYMBOL        PT2
  B:00B8H.0       SYMBOL        PX0
  B:00B8H.2       SYMBOL        PX1
  B:0098H.2       SYMBOL        RB8
  D:00CBH         SYMBOL        RCAP2H
  D:00CAH         SYMBOL        RCAP2L
  B:00C8H.5       SYMBOL        RCLK
  B:00B0H.7       SYMBOL        RD
  B:0098H.4       SYMBOL        REN
  B:0098H.0       SYMBOL        RI
  B:00D0H.3       SYMBOL        RS0
  B:00D0H.4       SYMBOL        RS1
  B:00B0H.0       SYMBOL        RXD
  D:0099H         SYMBOL        SBUF
  D:0098H         SYMBOL        SCON
  B:0098H.7       SYMBOL        SM0
  B:0098H.6       SYMBOL        SM1
  B:0098H.5       SYMBOL        SM2
  D:0081H         SYMBOL        SP
  B:00B0H.4       SYMBOL        T0
  B:00B0H.5       SYMBOL        T1
  B:0090H.0       SYMBOL        T2
  D:00C8H         SYMBOL        T2CON
  B:0090H.1       SYMBOL        T2EX
  B:0098H.3       SYMBOL        TB8
  B:00C8H.4       SYMBOL        TCLK
  D:0088H         SYMBOL        TCON
  B:0088H.5       SYMBOL        TF0
  B:0088H.7       SYMBOL        TF1
  B:00C8H.7       SYMBOL        TF2
  D:008CH         SYMBOL        TH0
  D:008DH         SYMBOL        TH1
  D:00CDH         SYMBOL        TH2
  B:0098H.1       SYMBOL        TI
  D:008AH         SYMBOL        TL0
  D:008BH         SYMBOL        TL1
  D:00CCH         SYMBOL        TL2
  D:0089H         SYMBOL        TMOD
  B:0088H.4       SYMBOL        TR0
  B:0088H.6       SYMBOL        TR1
BL51 BANKED LINKER/LOCATER V6.22                                                      07/21/2014  16:39:35  PAGE 75


  B:00C8H.2       SYMBOL        TR2
  B:00B0H.1       SYMBOL        TXD
  B:00B0H.6       SYMBOL        WR
  C:0C87H         LINE#         235
  C:0C89H         LINE#         236
  C:0C8BH         LINE#         237
  C:0C8DH         LINE#         238
  C:0C90H         LINE#         241
  C:0C92H         LINE#         243
  C:0C94H         LINE#         245
  C:0C97H         LINE#         247
  C:0C99H         LINE#         249
  C:0C9BH         LINE#         254
  C:0C9EH         LINE#         256
  C:0CA0H         LINE#         258
  C:0CA1H         LINE#         262
  C:0CA3H         LINE#         263
  C:0CA5H         LINE#         264
  C:0CA8H         LINE#         265
  C:0CA9H         LINE#         266
  C:0CAAH         LINE#         270
  C:0CADH         LINE#         271
  C:0CB0H         LINE#         272
  C:0CB1H         LINE#         273
  C:0CB2H         LINE#         277
  C:0CB5H         LINE#         278
  C:0CB8H         LINE#         279
  C:0CB9H         LINE#         280
  C:0CBAH         LINE#         284
  C:0CBDH         LINE#         285
  C:0CC0H         LINE#         286
  C:0CC1H         LINE#         287
  C:0CC2H         LINE#         291
  C:0CC4H         LINE#         295
  C:0CC7H         LINE#         297
  C:0CC9H         LINE#         299
  C:0CCAH         LINE#         303
  C:0CCCH         LINE#         304
  C:0CCEH         LINE#         305
  C:0CD1H         LINE#         306
  C:0CD2H         LINE#         307
  C:0CD3H         LINE#         311
  C:0CD6H         LINE#         312
  C:0CD9H         LINE#         313
  C:0CDAH         LINE#         314
  C:0CDBH         LINE#         318
  C:0CDEH         LINE#         319
  C:0CE1H         LINE#         320
  C:0CE2H         LINE#         321
  C:0CE3H         LINE#         325
  C:0CE6H         LINE#         326
  C:0CE9H         LINE#         327
  C:0CEAH         LINE#         328
  C:0CEBH         LINE#         332
  C:0CEDH         LINE#         337
  C:0CF0H         LINE#         339
  C:0CF2H         LINE#         341
BL51 BANKED LINKER/LOCATER V6.22                                                      07/21/2014  16:39:35  PAGE 76


  C:0CF3H         LINE#         345
  C:0CF5H         LINE#         346
  C:0CF7H         LINE#         347
  C:0CFAH         LINE#         348
  C:0CFBH         LINE#         349
  C:0CFCH         LINE#         353
  C:0CFFH         LINE#         354
  C:0D02H         LINE#         355
  C:0D03H         LINE#         356
  C:0D04H         LINE#         360
  C:0D07H         LINE#         361
  C:0D0AH         LINE#         362
  C:0D0BH         LINE#         363
  C:0D0CH         LINE#         367
  C:0D0FH         LINE#         368
  C:0D12H         LINE#         369
  C:0D13H         LINE#         370
  C:0D14H         LINE#         374
  C:0D16H         LINE#         377
  C:0D18H         LINE#         381
  C:0D1BH         LINE#         383
  C:0D1DH         LINE#         385
  C:0D1EH         LINE#         389
  C:0D20H         LINE#         390
  C:0D22H         LINE#         391
  C:0D25H         LINE#         392
  C:0D26H         LINE#         393
  C:0D27H         LINE#         397
  C:0D2AH         LINE#         398
  C:0D2DH         LINE#         399
  C:0D2EH         LINE#         400
  C:0D2FH         LINE#         404
  C:0D32H         LINE#         405
  C:0D35H         LINE#         406
  C:0D36H         LINE#         407
  C:0D37H         LINE#         411
  C:0D3AH         LINE#         412
  C:0D3DH         LINE#         413
  C:0D3EH         LINE#         414
  C:0D3FH         LINE#         418
  C:0D41H         LINE#         422
  C:0D43H         LINE#         424
  C:0D45H         LINE#         428
  C:0A38H         LINE#         441
  C:0A3AH         LINE#         442
  C:0A3CH         LINE#         443
  C:0A3EH         LINE#         444
  C:0A41H         LINE#         447
  C:0A43H         LINE#         449
  C:0A45H         LINE#         451
  C:0A48H         LINE#         453
  C:0A4AH         LINE#         455
  C:0A4CH         LINE#         460
  C:0A4FH         LINE#         462
  C:0A51H         LINE#         464
  C:0A53H         LINE#         468
  C:0A55H         LINE#         469
BL51 BANKED LINKER/LOCATER V6.22                                                      07/21/2014  16:39:35  PAGE 77


  C:0A57H         LINE#         470
  C:0A5AH         LINE#         471
  C:0A5BH         LINE#         472
  C:0A5CH         LINE#         476
  C:0A5FH         LINE#         477
  C:0A62H         LINE#         478
  C:0A63H         LINE#         479
  C:0A64H         LINE#         483
  C:0A67H         LINE#         484
  C:0A6AH         LINE#         485
  C:0A6BH         LINE#         486
  C:0A6CH         LINE#         490
  C:0A6FH         LINE#         491
  C:0A72H         LINE#         492
  C:0A73H         LINE#         493
  C:0A74H         LINE#         497
  C:0A76H         LINE#         501
  C:0A79H         LINE#         503
  C:0A7BH         LINE#         505
  C:0A7DH         LINE#         509
  C:0A7FH         LINE#         510
  C:0A81H         LINE#         511
  C:0A84H         LINE#         512
  C:0A85H         LINE#         513
  C:0A86H         LINE#         517
  C:0A89H         LINE#         518
  C:0A8CH         LINE#         519
  C:0A8DH         LINE#         520
  C:0A8EH         LINE#         524
  C:0A91H         LINE#         525
  C:0A94H         LINE#         526
  C:0A95H         LINE#         527
  C:0A96H         LINE#         531
  C:0A99H         LINE#         532
  C:0A9CH         LINE#         533
  C:0A9DH         LINE#         534
  C:0A9EH         LINE#         538
  C:0AA0H         LINE#         543
  C:0AA3H         LINE#         545
  C:0AA5H         LINE#         547
  C:0AA7H         LINE#         551
  C:0AA9H         LINE#         552
  C:0AABH         LINE#         553
  C:0AAEH         LINE#         554
  C:0AAFH         LINE#         555
  C:0AB0H         LINE#         559
  C:0AB3H         LINE#         560
  C:0AB6H         LINE#         561
  C:0AB7H         LINE#         562
  C:0AB8H         LINE#         566
  C:0ABBH         LINE#         567
  C:0ABEH         LINE#         568
  C:0ABFH         LINE#         569
  C:0AC0H         LINE#         573
  C:0AC3H         LINE#         574
  C:0AC6H         LINE#         575
  C:0AC7H         LINE#         576
BL51 BANKED LINKER/LOCATER V6.22                                                      07/21/2014  16:39:35  PAGE 78


  C:0AC8H         LINE#         580
  C:0ACAH         LINE#         583
  C:0ACCH         LINE#         587
  C:0ACFH         LINE#         589
  C:0AD1H         LINE#         591
  C:0AD3H         LINE#         595
  C:0AD5H         LINE#         596
  C:0AD7H         LINE#         597
  C:0ADAH         LINE#         598
  C:0ADBH         LINE#         599
  C:0ADCH         LINE#         603
  C:0ADFH         LINE#         604
  C:0AE2H         LINE#         605
  C:0AE3H         LINE#         606
  C:0AE4H         LINE#         610
  C:0AE7H         LINE#         611
  C:0AEAH         LINE#         612
  C:0AEBH         LINE#         613
  C:0AECH         LINE#         617
  C:0AEFH         LINE#         618
  C:0AF2H         LINE#         619
  C:0AF3H         LINE#         620
  C:0AF4H         LINE#         624
  C:0AF6H         LINE#         628
  C:0AF8H         LINE#         630
  C:0AFAH         LINE#         634
  C:07DDH         LINE#         647
  C:07DFH         LINE#         648
  C:07E1H         LINE#         649
  C:07E3H         LINE#         650
  C:07E6H         LINE#         653
  C:07E8H         LINE#         655
  C:07EAH         LINE#         657
  C:07EDH         LINE#         659
  C:07EFH         LINE#         661
  C:07F1H         LINE#         666
  C:07F4H         LINE#         668
  C:07F6H         LINE#         670
  C:07F8H         LINE#         672
  C:07F9H         LINE#         676
  C:07FBH         LINE#         677
  C:07FDH         LINE#         678
  C:0800H         LINE#         679
  C:0801H         LINE#         680
  C:0802H         LINE#         684
  C:0805H         LINE#         685
  C:0808H         LINE#         686
  C:0809H         LINE#         687
  C:080AH         LINE#         691
  C:080DH         LINE#         692
  C:0810H         LINE#         693
  C:0811H         LINE#         694
  C:0812H         LINE#         698
  C:0815H         LINE#         699
  C:0818H         LINE#         700
  C:0819H         LINE#         701
  C:081AH         LINE#         705
BL51 BANKED LINKER/LOCATER V6.22                                                      07/21/2014  16:39:35  PAGE 79


  C:081CH         LINE#         709
  C:081FH         LINE#         711
  C:0821H         LINE#         713
  C:0823H         LINE#         715
  C:0824H         LINE#         719
  C:0826H         LINE#         720
  C:0828H         LINE#         721
  C:082BH         LINE#         722
  C:082CH         LINE#         723
  C:082DH         LINE#         727
  C:0830H         LINE#         728
  C:0833H         LINE#         729
  C:0834H         LINE#         730
  C:0835H         LINE#         734
  C:0838H         LINE#         735
  C:083BH         LINE#         736
  C:083CH         LINE#         737
  C:083DH         LINE#         741
  C:0840H         LINE#         742
  C:0843H         LINE#         743
  C:0844H         LINE#         744
  C:0845H         LINE#         748
  C:0847H         LINE#         753
  C:084AH         LINE#         755
  C:084CH         LINE#         757
  C:084EH         LINE#         759
  C:084FH         LINE#         763
  C:0851H         LINE#         764
  C:0853H         LINE#         765
  C:0856H         LINE#         766
  C:0857H         LINE#         767
  C:0858H         LINE#         771
  C:085BH         LINE#         772
  C:085EH         LINE#         773
  C:085FH         LINE#         774
  C:0860H         LINE#         778
  C:0863H         LINE#         779
  C:0866H         LINE#         780
  C:0867H         LINE#         781
  C:0868H         LINE#         785
  C:086BH         LINE#         786
  C:086EH         LINE#         787
  C:086FH         LINE#         788
  C:0870H         LINE#         792
  C:0872H         LINE#         795
  C:0874H         LINE#         799
  C:0877H         LINE#         801
  C:0879H         LINE#         803
  C:087BH         LINE#         805
  C:087CH         LINE#         809
  C:087EH         LINE#         810
  C:0880H         LINE#         811
  C:0883H         LINE#         812
  C:0884H         LINE#         813
  C:0885H         LINE#         817
  C:0888H         LINE#         818
  C:088BH         LINE#         819
BL51 BANKED LINKER/LOCATER V6.22                                                      07/21/2014  16:39:35  PAGE 80


  C:088CH         LINE#         820
  C:088DH         LINE#         824
  C:0890H         LINE#         825
  C:0893H         LINE#         826
  C:0894H         LINE#         827
  C:0895H         LINE#         831
  C:0898H         LINE#         832
  C:089BH         LINE#         833
  C:089CH         LINE#         834
  C:089DH         LINE#         838
  C:089FH         LINE#         842
  C:08A1H         LINE#         844
  C:08A3H         LINE#         848
  C:0ECAH         LINE#         861
  C:0ECCH         LINE#         862
  C:0ECEH         LINE#         863
  C:0ED0H         LINE#         864
  C:0ED3H         LINE#         867
  C:0ED5H         LINE#         869
  C:0ED7H         LINE#         871
  C:0EDAH         LINE#         873
  C:0EDCH         LINE#         875
  C:0EDEH         LINE#         880
  C:0EE1H         LINE#         882
  C:0EE3H         LINE#         886
  C:0EE5H         LINE#         887
  C:0EE7H         LINE#         888
  C:0EEAH         LINE#         889
  C:0EEBH         LINE#         890
  C:0EECH         LINE#         894
  C:0EEFH         LINE#         895
  C:0EF2H         LINE#         896
  C:0EF3H         LINE#         897
  C:0EF4H         LINE#         901
  C:0EF7H         LINE#         902
  C:0EFAH         LINE#         903
  C:0EFBH         LINE#         904
  C:0EFCH         LINE#         908
  C:0EFFH         LINE#         909
  C:0F02H         LINE#         910
  C:0F03H         LINE#         911
  C:0F04H         LINE#         915
  C:0F06H         LINE#         919
  C:0F09H         LINE#         921
  C:0F0BH         LINE#         925
  C:0F0DH         LINE#         926
  C:0F0FH         LINE#         927
  C:0F12H         LINE#         928
  C:0F13H         LINE#         929
  C:0F14H         LINE#         933
  C:0F17H         LINE#         934
  C:0F1AH         LINE#         935
  C:0F1BH         LINE#         936
  C:0F1CH         LINE#         940
  C:0F1FH         LINE#         941
  C:0F22H         LINE#         942
  C:0F23H         LINE#         943
BL51 BANKED LINKER/LOCATER V6.22                                                      07/21/2014  16:39:35  PAGE 81


  C:0F24H         LINE#         947
  C:0F27H         LINE#         948
  C:0F2AH         LINE#         949
  C:0F2BH         LINE#         950
  C:0F2CH         LINE#         954
  C:0F2EH         LINE#         959
  C:0F31H         LINE#         961
  C:0F33H         LINE#         965
  C:0F35H         LINE#         966
  C:0F37H         LINE#         967
  C:0F3AH         LINE#         968
  C:0F3BH         LINE#         969
  C:0F3CH         LINE#         973
  C:0F3FH         LINE#         974
  C:0F42H         LINE#         975
  C:0F43H         LINE#         976
  C:0F44H         LINE#         980
  C:0F47H         LINE#         981
  C:0F4AH         LINE#         982
  C:0F4BH         LINE#         983
  C:0F4CH         LINE#         987
  C:0F4FH         LINE#         988
  C:0F52H         LINE#         989
  C:0F53H         LINE#         990
  C:0F54H         LINE#         994
  C:0F56H         LINE#         997
  C:0F58H         LINE#         1001
  C:0F5BH         LINE#         1003
  C:0F5DH         LINE#         1007
  C:0F5FH         LINE#         1008
  C:0F61H         LINE#         1009
  C:0F64H         LINE#         1010
  C:0F65H         LINE#         1011
  C:0F66H         LINE#         1015
  C:0F69H         LINE#         1016
  C:0F6CH         LINE#         1017
  C:0F6DH         LINE#         1018
  C:0F6EH         LINE#         1022
  C:0F71H         LINE#         1023
  C:0F74H         LINE#         1024
  C:0F75H         LINE#         1025
  C:0F76H         LINE#         1029
  C:0F79H         LINE#         1030
  C:0F7CH         LINE#         1031
  C:0F7DH         LINE#         1032
  C:0F7EH         LINE#         1036
  C:0F80H         LINE#         1040
  C:0F82H         LINE#         1042
  C:0F84H         LINE#         1046
  C:0AFDH         LINE#         1059
  C:0AFFH         LINE#         1060
  C:0B01H         LINE#         1061
  C:0B03H         LINE#         1062
  C:0B06H         LINE#         1065
  C:0B08H         LINE#         1067
  C:0B0AH         LINE#         1069
  C:0B0DH         LINE#         1071
BL51 BANKED LINKER/LOCATER V6.22                                                      07/21/2014  16:39:35  PAGE 82


  C:0B0FH         LINE#         1073
  C:0B11H         LINE#         1078
  C:0B14H         LINE#         1080
  C:0B16H         LINE#         1082
  C:0B17H         LINE#         1084
  C:0B18H         LINE#         1088
  C:0B1AH         LINE#         1089
  C:0B1CH         LINE#         1090
  C:0B1FH         LINE#         1091
  C:0B20H         LINE#         1092
  C:0B21H         LINE#         1096
  C:0B24H         LINE#         1097
  C:0B27H         LINE#         1098
  C:0B28H         LINE#         1099
  C:0B29H         LINE#         1103
  C:0B2CH         LINE#         1104
  C:0B2FH         LINE#         1105
  C:0B30H         LINE#         1106
  C:0B31H         LINE#         1110
  C:0B34H         LINE#         1111
  C:0B37H         LINE#         1112
  C:0B38H         LINE#         1113
  C:0B39H         LINE#         1117
  C:0B3BH         LINE#         1121
  C:0B3EH         LINE#         1123
  C:0B40H         LINE#         1125
  C:0B41H         LINE#         1127
  C:0B42H         LINE#         1131
  C:0B44H         LINE#         1132
  C:0B46H         LINE#         1133
  C:0B49H         LINE#         1134
  C:0B4AH         LINE#         1135
  C:0B4BH         LINE#         1139
  C:0B4EH         LINE#         1140
  C:0B51H         LINE#         1141
  C:0B52H         LINE#         1142
  C:0B53H         LINE#         1146
  C:0B56H         LINE#         1147
  C:0B59H         LINE#         1148
  C:0B5AH         LINE#         1149
  C:0B5BH         LINE#         1153
  C:0B5EH         LINE#         1154
  C:0B61H         LINE#         1155
  C:0B62H         LINE#         1156
  C:0B63H         LINE#         1160
  C:0B65H         LINE#         1165
  C:0B68H         LINE#         1167
  C:0B6AH         LINE#         1169
  C:0B6BH         LINE#         1171
  C:0B6CH         LINE#         1175
  C:0B6EH         LINE#         1176
  C:0B70H         LINE#         1177
  C:0B73H         LINE#         1178
  C:0B74H         LINE#         1179
  C:0B75H         LINE#         1183
  C:0B78H         LINE#         1184
  C:0B7BH         LINE#         1185
BL51 BANKED LINKER/LOCATER V6.22                                                      07/21/2014  16:39:35  PAGE 83


  C:0B7CH         LINE#         1186
  C:0B7DH         LINE#         1190
  C:0B80H         LINE#         1191
  C:0B83H         LINE#         1192
  C:0B84H         LINE#         1193
  C:0B85H         LINE#         1197
  C:0B88H         LINE#         1198
  C:0B8BH         LINE#         1199
  C:0B8CH         LINE#         1200
  C:0B8DH         LINE#         1204
  C:0B8FH         LINE#         1207
  C:0B91H         LINE#         1211
  C:0B94H         LINE#         1213
  C:0B96H         LINE#         1215
  C:0B97H         LINE#         1217
  C:0B98H         LINE#         1221
  C:0B9AH         LINE#         1222
  C:0B9CH         LINE#         1223
  C:0B9FH         LINE#         1224
  C:0BA0H         LINE#         1225
  C:0BA1H         LINE#         1229
  C:0BA4H         LINE#         1230
  C:0BA7H         LINE#         1231
  C:0BA8H         LINE#         1232
  C:0BA9H         LINE#         1236
  C:0BACH         LINE#         1237
  C:0BAFH         LINE#         1238
  C:0BB0H         LINE#         1239
  C:0BB1H         LINE#         1243
  C:0BB4H         LINE#         1244
  C:0BB7H         LINE#         1245
  C:0BB8H         LINE#         1246
  C:0BB9H         LINE#         1250
  C:0BBBH         LINE#         1254
  C:0BBDH         LINE#         1256
  C:0BBFH         LINE#         1260
  C:08A6H         LINE#         1273
  C:08A8H         LINE#         1274
  C:08AAH         LINE#         1275
  C:08ACH         LINE#         1276
  C:08AFH         LINE#         1279
  C:08B1H         LINE#         1281
  C:08B3H         LINE#         1283
  C:08B6H         LINE#         1285
  C:08B8H         LINE#         1287
  C:08BAH         LINE#         1292
  C:08BDH         LINE#         1294
  C:08BFH         LINE#         1296
  C:08C0H         LINE#         1298
  C:08C2H         LINE#         1302
  C:08C4H         LINE#         1303
  C:08C6H         LINE#         1304
  C:08C9H         LINE#         1305
  C:08CAH         LINE#         1306
  C:08CBH         LINE#         1310
  C:08CEH         LINE#         1311
  C:08D1H         LINE#         1312
BL51 BANKED LINKER/LOCATER V6.22                                                      07/21/2014  16:39:35  PAGE 84


  C:08D2H         LINE#         1313
  C:08D3H         LINE#         1317
  C:08D6H         LINE#         1318
  C:08D9H         LINE#         1319
  C:08DAH         LINE#         1320
  C:08DBH         LINE#         1324
  C:08DEH         LINE#         1325
  C:08E1H         LINE#         1326
  C:08E2H         LINE#         1327
  C:08E3H         LINE#         1331
  C:08E5H         LINE#         1335
  C:08E8H         LINE#         1337
  C:08EAH         LINE#         1339
  C:08EBH         LINE#         1341
  C:08EDH         LINE#         1345
  C:08EFH         LINE#         1346
  C:08F1H         LINE#         1347
  C:08F4H         LINE#         1348
  C:08F5H         LINE#         1349
  C:08F6H         LINE#         1353
  C:08F9H         LINE#         1354
  C:08FCH         LINE#         1355
  C:08FDH         LINE#         1356
  C:08FEH         LINE#         1360
  C:0901H         LINE#         1361
  C:0904H         LINE#         1362
  C:0905H         LINE#         1363
  C:0906H         LINE#         1367
  C:0909H         LINE#         1368
  C:090CH         LINE#         1369
  C:090DH         LINE#         1370
  C:090EH         LINE#         1374
  C:0910H         LINE#         1379
  C:0913H         LINE#         1381
  C:0915H         LINE#         1383
  C:0916H         LINE#         1385
  C:0918H         LINE#         1389
  C:091AH         LINE#         1390
  C:091CH         LINE#         1391
  C:091FH         LINE#         1392
  C:0920H         LINE#         1393
  C:0921H         LINE#         1397
  C:0924H         LINE#         1398
  C:0927H         LINE#         1399
  C:0928H         LINE#         1400
  C:0929H         LINE#         1404
  C:092CH         LINE#         1405
  C:092FH         LINE#         1406
  C:0930H         LINE#         1407
  C:0931H         LINE#         1411
  C:0934H         LINE#         1412
  C:0937H         LINE#         1413
  C:0938H         LINE#         1414
  C:0939H         LINE#         1418
  C:093BH         LINE#         1421
  C:093DH         LINE#         1425
  C:0940H         LINE#         1427
BL51 BANKED LINKER/LOCATER V6.22                                                      07/21/2014  16:39:35  PAGE 85


  C:0942H         LINE#         1429
  C:0943H         LINE#         1431
  C:0945H         LINE#         1435
  C:0947H         LINE#         1436
  C:0949H         LINE#         1437
  C:094CH         LINE#         1438
  C:094DH         LINE#         1439
  C:094EH         LINE#         1443
  C:0951H         LINE#         1444
  C:0954H         LINE#         1445
  C:0955H         LINE#         1446
  C:0956H         LINE#         1450
  C:0959H         LINE#         1451
  C:095CH         LINE#         1452
  C:095DH         LINE#         1453
  C:095EH         LINE#         1457
  C:0961H         LINE#         1458
  C:0964H         LINE#         1459
  C:0965H         LINE#         1460
  C:0966H         LINE#         1464
  C:0968H         LINE#         1468
  C:096AH         LINE#         1470
  C:096CH         LINE#         1474
  C:0643H         LINE#         1487
  C:0645H         LINE#         1488
  C:0647H         LINE#         1489
  C:0649H         LINE#         1490
  C:064CH         LINE#         1493
  C:064EH         LINE#         1495
  C:0650H         LINE#         1497
  C:0653H         LINE#         1499
  C:0655H         LINE#         1501
  C:0657H         LINE#         1506
  C:065AH         LINE#         1508
  C:065CH         LINE#         1510
  C:065EH         LINE#         1512
  C:065FH         LINE#         1514
  C:0660H         LINE#         1518
  C:0662H         LINE#         1519
  C:0664H         LINE#         1520
  C:0667H         LINE#         1521
  C:0668H         LINE#         1522
  C:0669H         LINE#         1526
  C:066CH         LINE#         1527
  C:066FH         LINE#         1528
  C:0670H         LINE#         1529
  C:0671H         LINE#         1533
  C:0674H         LINE#         1534
  C:0677H         LINE#         1535
  C:0678H         LINE#         1536
  C:0679H         LINE#         1540
  C:067CH         LINE#         1541
  C:067FH         LINE#         1542
  C:0680H         LINE#         1543
  C:0681H         LINE#         1547
  C:0683H         LINE#         1551
  C:0686H         LINE#         1553
BL51 BANKED LINKER/LOCATER V6.22                                                      07/21/2014  16:39:35  PAGE 86


  C:0688H         LINE#         1555
  C:068AH         LINE#         1557
  C:068BH         LINE#         1559
  C:068CH         LINE#         1563
  C:068EH         LINE#         1564
  C:0690H         LINE#         1565
  C:0693H         LINE#         1566
  C:0694H         LINE#         1567
  C:0695H         LINE#         1571
  C:0698H         LINE#         1572
  C:069BH         LINE#         1573
  C:069CH         LINE#         1574
  C:069DH         LINE#         1578
  C:06A0H         LINE#         1579
  C:06A3H         LINE#         1580
  C:06A4H         LINE#         1581
  C:06A5H         LINE#         1585
  C:06A8H         LINE#         1586
  C:06ABH         LINE#         1587
  C:06ACH         LINE#         1588
  C:06ADH         LINE#         1592
  C:06AFH         LINE#         1597
  C:06B2H         LINE#         1599
  C:06B4H         LINE#         1601
  C:06B6H         LINE#         1603
  C:06B7H         LINE#         1605
  C:06B8H         LINE#         1609
  C:06BAH         LINE#         1610
  C:06BCH         LINE#         1611
  C:06BFH         LINE#         1612
  C:06C0H         LINE#         1613
  C:06C1H         LINE#         1617
  C:06C4H         LINE#         1618
  C:06C7H         LINE#         1619
  C:06C8H         LINE#         1620
  C:06C9H         LINE#         1624
  C:06CCH         LINE#         1625
  C:06CFH         LINE#         1626
  C:06D0H         LINE#         1627
  C:06D1H         LINE#         1631
  C:06D4H         LINE#         1632
  C:06D7H         LINE#         1633
  C:06D8H         LINE#         1634
  C:06D9H         LINE#         1638
  C:06DBH         LINE#         1641
  C:06DDH         LINE#         1645
  C:06E0H         LINE#         1647
  C:06E2H         LINE#         1649
  C:06E4H         LINE#         1651
  C:06E5H         LINE#         1653
  C:06E6H         LINE#         1657
  C:06E8H         LINE#         1658
  C:06EAH         LINE#         1659
  C:06EDH         LINE#         1660
  C:06EEH         LINE#         1661
  C:06EFH         LINE#         1665
  C:06F2H         LINE#         1666
BL51 BANKED LINKER/LOCATER V6.22                                                      07/21/2014  16:39:35  PAGE 87


  C:06F5H         LINE#         1667
  C:06F6H         LINE#         1668
  C:06F7H         LINE#         1672
  C:06FAH         LINE#         1673
  C:06FDH         LINE#         1674
  C:06FEH         LINE#         1675
  C:06FFH         LINE#         1679
  C:0702H         LINE#         1680
  C:0705H         LINE#         1681
  C:0706H         LINE#         1682
  C:0707H         LINE#         1686
  C:0709H         LINE#         1690
  C:070BH         LINE#         1692
  C:070DH         LINE#         1696
  C:0D48H         LINE#         1709
  C:0D4AH         LINE#         1710
  C:0D4CH         LINE#         1711
  C:0D4EH         LINE#         1712
  C:0D51H         LINE#         1715
  C:0D53H         LINE#         1717
  C:0D55H         LINE#         1719
  C:0D58H         LINE#         1721
  C:0D5AH         LINE#         1723
  C:0D5CH         LINE#         1728
  C:0D5FH         LINE#         1730
  C:0D60H         LINE#         1732
  C:0D62H         LINE#         1736
  C:0D64H         LINE#         1737
  C:0D66H         LINE#         1738
  C:0D69H         LINE#         1739
  C:0D6AH         LINE#         1740
  C:0D6BH         LINE#         1744
  C:0D6EH         LINE#         1745
  C:0D71H         LINE#         1746
  C:0D72H         LINE#         1747
  C:0D73H         LINE#         1751
  C:0D76H         LINE#         1752
  C:0D79H         LINE#         1753
  C:0D7AH         LINE#         1754
  C:0D7BH         LINE#         1758
  C:0D7EH         LINE#         1759
  C:0D81H         LINE#         1760
  C:0D82H         LINE#         1761
  C:0D83H         LINE#         1765
  C:0D85H         LINE#         1769
  C:0D88H         LINE#         1771
  C:0D89H         LINE#         1773
  C:0D8BH         LINE#         1777
  C:0D8DH         LINE#         1778
  C:0D8FH         LINE#         1779
  C:0D92H         LINE#         1780
  C:0D93H         LINE#         1781
  C:0D94H         LINE#         1785
  C:0D97H         LINE#         1786
  C:0D9AH         LINE#         1787
  C:0D9BH         LINE#         1788
  C:0D9CH         LINE#         1792
BL51 BANKED LINKER/LOCATER V6.22                                                      07/21/2014  16:39:35  PAGE 88


  C:0D9FH         LINE#         1793
  C:0DA2H         LINE#         1794
  C:0DA3H         LINE#         1795
  C:0DA4H         LINE#         1799
  C:0DA7H         LINE#         1800
  C:0DAAH         LINE#         1801
  C:0DABH         LINE#         1802
  C:0DACH         LINE#         1806
  C:0DAEH         LINE#         1811
  C:0DB1H         LINE#         1813
  C:0DB2H         LINE#         1815
  C:0DB4H         LINE#         1819
  C:0DB6H         LINE#         1820
  C:0DB8H         LINE#         1821
  C:0DBBH         LINE#         1822
  C:0DBCH         LINE#         1823
  C:0DBDH         LINE#         1827
  C:0DC0H         LINE#         1828
  C:0DC3H         LINE#         1829
  C:0DC4H         LINE#         1830
  C:0DC5H         LINE#         1834
  C:0DC8H         LINE#         1835
  C:0DCBH         LINE#         1836
  C:0DCCH         LINE#         1837
  C:0DCDH         LINE#         1841
  C:0DD0H         LINE#         1842
  C:0DD3H         LINE#         1843
  C:0DD4H         LINE#         1844
  C:0DD5H         LINE#         1848
  C:0DD7H         LINE#         1851
  C:0DD9H         LINE#         1855
  C:0DDCH         LINE#         1857
  C:0DDDH         LINE#         1859
  C:0DDFH         LINE#         1863
  C:0DE1H         LINE#         1864
  C:0DE3H         LINE#         1865
  C:0DE6H         LINE#         1866
  C:0DE7H         LINE#         1867
  C:0DE8H         LINE#         1871
  C:0DEBH         LINE#         1872
  C:0DEEH         LINE#         1873
  C:0DEFH         LINE#         1874
  C:0DF0H         LINE#         1878
  C:0DF3H         LINE#         1879
  C:0DF6H         LINE#         1880
  C:0DF7H         LINE#         1881
  C:0DF8H         LINE#         1885
  C:0DFBH         LINE#         1886
  C:0DFEH         LINE#         1887
  C:0DFFH         LINE#         1888
  C:0E00H         LINE#         1892
  C:0E02H         LINE#         1896
  C:0E04H         LINE#         1898
  C:0E06H         LINE#         1902
  C:0BC2H         LINE#         1915
  C:0BC4H         LINE#         1916
  C:0BC6H         LINE#         1917
BL51 BANKED LINKER/LOCATER V6.22                                                      07/21/2014  16:39:35  PAGE 89


  C:0BC8H         LINE#         1918
  C:0BCBH         LINE#         1921
  C:0BCDH         LINE#         1923
  C:0BCFH         LINE#         1925
  C:0BD2H         LINE#         1927
  C:0BD4H         LINE#         1929
  C:0BD6H         LINE#         1934
  C:0BD9H         LINE#         1936
  C:0BDBH         LINE#         1938
  C:0BDCH         LINE#         1940
  C:0BDDH         LINE#         1944
  C:0BDFH         LINE#         1945
  C:0BE1H         LINE#         1946
  C:0BE4H         LINE#         1947
  C:0BE5H         LINE#         1948
  C:0BE6H         LINE#         1952
  C:0BE9H         LINE#         1953
  C:0BECH         LINE#         1954
  C:0BEDH         LINE#         1955
  C:0BEEH         LINE#         1959
  C:0BF1H         LINE#         1960
  C:0BF4H         LINE#         1961
  C:0BF5H         LINE#         1962
  C:0BF6H         LINE#         1966
  C:0BF9H         LINE#         1967
  C:0BFCH         LINE#         1968
  C:0BFDH         LINE#         1969
  C:0BFEH         LINE#         1973
  C:0C00H         LINE#         1977
  C:0C03H         LINE#         1979
  C:0C05H         LINE#         1981
  C:0C06H         LINE#         1983
  C:0C07H         LINE#         1987
  C:0C09H         LINE#         1988
  C:0C0BH         LINE#         1989
  C:0C0EH         LINE#         1990
  C:0C0FH         LINE#         1991
  C:0C10H         LINE#         1995
  C:0C13H         LINE#         1996
  C:0C16H         LINE#         1997
  C:0C17H         LINE#         1998
  C:0C18H         LINE#         2002
  C:0C1BH         LINE#         2003
  C:0C1EH         LINE#         2004
  C:0C1FH         LINE#         2005
  C:0C20H         LINE#         2009
  C:0C23H         LINE#         2010
